{
  "abi": [
    {
      "inputs": [],
      "name": "DEFAULT_SIGNATURE_REQUEST_EXTRA_DATA",
      "outputs": [
        {
          "internalType": "bytes",
          "name": "",
          "type": "bytes"
        }
      ],
      "stateMutability": "view",
      "type": "function"
    },
    {
      "inputs": [],
      "name": "DEFAULT_SIGNATURE_REQUEST_IS_SELECTABLE_BY_USER",
      "outputs": [
        {
          "internalType": "bool",
          "name": "",
          "type": "bool"
        }
      ],
      "stateMutability": "view",
      "type": "function"
    },
    {
      "inputs": [],
      "name": "DEFAULT_SIGNATURE_REQUEST_MESSAGE",
      "outputs": [
        {
          "internalType": "bytes",
          "name": "",
          "type": "bytes"
        }
      ],
      "stateMutability": "view",
      "type": "function"
    },
    {
      "inputs": [
        {
          "internalType": "bytes",
          "name": "message",
          "type": "bytes"
        },
        {
          "internalType": "bool",
          "name": "isSelectableByUser",
          "type": "bool"
        },
        {
          "internalType": "bytes",
          "name": "extraData",
          "type": "bytes"
        }
      ],
      "name": "build",
      "outputs": [
        {
          "components": [
            {
              "internalType": "bytes",
              "name": "message",
              "type": "bytes"
            },
            {
              "internalType": "bool",
              "name": "isSelectableByUser",
              "type": "bool"
            },
            {
              "internalType": "bytes",
              "name": "extraData",
              "type": "bytes"
            }
          ],
          "internalType": "struct SignatureRequest",
          "name": "",
          "type": "tuple"
        }
      ],
      "stateMutability": "pure",
      "type": "function"
    },
    {
      "inputs": [
        {
          "internalType": "bool",
          "name": "isSelectableByUser",
          "type": "bool"
        }
      ],
      "name": "build",
      "outputs": [
        {
          "components": [
            {
              "internalType": "bytes",
              "name": "message",
              "type": "bytes"
            },
            {
              "internalType": "bool",
              "name": "isSelectableByUser",
              "type": "bool"
            },
            {
              "internalType": "bytes",
              "name": "extraData",
              "type": "bytes"
            }
          ],
          "internalType": "struct SignatureRequest",
          "name": "",
          "type": "tuple"
        }
      ],
      "stateMutability": "pure",
      "type": "function"
    },
    {
      "inputs": [
        {
          "internalType": "bytes",
          "name": "message",
          "type": "bytes"
        },
        {
          "internalType": "bytes",
          "name": "extraData",
          "type": "bytes"
        }
      ],
      "name": "build",
      "outputs": [
        {
          "components": [
            {
              "internalType": "bytes",
              "name": "message",
              "type": "bytes"
            },
            {
              "internalType": "bool",
              "name": "isSelectableByUser",
              "type": "bool"
            },
            {
              "internalType": "bytes",
              "name": "extraData",
              "type": "bytes"
            }
          ],
          "internalType": "struct SignatureRequest",
          "name": "",
          "type": "tuple"
        }
      ],
      "stateMutability": "pure",
      "type": "function"
    },
    {
      "inputs": [
        {
          "internalType": "bytes",
          "name": "message",
          "type": "bytes"
        },
        {
          "internalType": "bool",
          "name": "isSelectableByUser",
          "type": "bool"
        }
      ],
      "name": "build",
      "outputs": [
        {
          "components": [
            {
              "internalType": "bytes",
              "name": "message",
              "type": "bytes"
            },
            {
              "internalType": "bool",
              "name": "isSelectableByUser",
              "type": "bool"
            },
            {
              "internalType": "bytes",
              "name": "extraData",
              "type": "bytes"
            }
          ],
          "internalType": "struct SignatureRequest",
          "name": "",
          "type": "tuple"
        }
      ],
      "stateMutability": "pure",
      "type": "function"
    },
    {
      "inputs": [
        {
          "internalType": "bytes",
          "name": "message",
          "type": "bytes"
        }
      ],
      "name": "build",
      "outputs": [
        {
          "components": [
            {
              "internalType": "bytes",
              "name": "message",
              "type": "bytes"
            },
            {
              "internalType": "bool",
              "name": "isSelectableByUser",
              "type": "bool"
            },
            {
              "internalType": "bytes",
              "name": "extraData",
              "type": "bytes"
            }
          ],
          "internalType": "struct SignatureRequest",
          "name": "",
          "type": "tuple"
        }
      ],
      "stateMutability": "pure",
      "type": "function"
    },
    {
      "inputs": [
        {
          "internalType": "bool",
          "name": "isSelectableByUser",
          "type": "bool"
        },
        {
          "internalType": "bytes",
          "name": "extraData",
          "type": "bytes"
        }
      ],
      "name": "build",
      "outputs": [
        {
          "components": [
            {
              "internalType": "bytes",
              "name": "message",
              "type": "bytes"
            },
            {
              "internalType": "bool",
              "name": "isSelectableByUser",
              "type": "bool"
            },
            {
              "internalType": "bytes",
              "name": "extraData",
              "type": "bytes"
            }
          ],
          "internalType": "struct SignatureRequest",
          "name": "",
          "type": "tuple"
        }
      ],
      "stateMutability": "pure",
      "type": "function"
    },
    {
      "inputs": [],
      "name": "buildEmpty",
      "outputs": [
        {
          "components": [
            {
              "internalType": "bytes",
              "name": "message",
              "type": "bytes"
            },
            {
              "internalType": "bool",
              "name": "isSelectableByUser",
              "type": "bool"
            },
            {
              "internalType": "bytes",
              "name": "extraData",
              "type": "bytes"
            }
          ],
          "internalType": "struct SignatureRequest",
          "name": "",
          "type": "tuple"
        }
      ],
      "stateMutability": "pure",
      "type": "function"
    }
  ],
  "bytecode": {
    "object": "0x608060405234801561001057600080fd5b50610a5a806100206000396000f3fe608060405234801561001057600080fd5b506004361061009e5760003560e01c80636835f32c116100665780636835f32c1461018157806372915d89146101b15780637476d1ac146101cf578063800e65f2146101ff578063ac799cb31461021d5761009e565b80631f785c95146100a35780633ed8572e146100d35780635c4b7b60146101035780635de3b44c1461012157806364009b9914610151575b600080fd5b6100bd60048036038101906100b89190610656565b61023b565b6040516100ca91906107c6565b60405180910390f35b6100ed60048036038101906100e891906107e8565b610269565b6040516100fa91906107c6565b60405180910390f35b61010b6102d9565b6040516101189190610824565b60405180910390f35b61013b6004803603810190610136919061083f565b6102de565b60405161014891906107c6565b60405180910390f35b61016b600480360381019061016691906108b7565b61030c565b60405161017891906107c6565b60405180910390f35b61019b60048036038101906101969190610913565b610348565b6040516101a891906107c6565b60405180910390f35b6101b9610384565b6040516101c691906109a6565b60405180910390f35b6101e960048036038101906101e491906109c8565b610397565b6040516101f691906107c6565b60405180910390f35b6102076103f9565b60405161021491906107c6565b60405180910390f35b610225610468565b60405161023291906109a6565b60405180910390f35b6102436104a1565b604051806060016040528085815260200184151581526020018381525090509392505050565b6102716104a1565b60405180606001604052806040518060400160405280601881526020017f4d4553534147455f53454c45435445445f42595f55534552000000000000000081525081526020018315158152602001604051806020016040528060008152508152509050919050565b600081565b6102e66104a1565b604051806060016040528084815260200160001515815260200183815250905092915050565b6103146104a1565b6040518060600160405280848152602001831515815260200160405180602001604052806000815250815250905092915050565b6103506104a1565b6040518060600160405280838152602001600015158152602001604051806020016040528060008152508152509050919050565b6040518060200160405280600081525081565b61039f6104a1565b60405180606001604052806040518060400160405280601881526020017f4d4553534147455f53454c45435445445f42595f5553455200000000000000008152508152602001841515815260200183815250905092915050565b6104016104a1565b60405180606001604052806040518060400160405280601881526020017f4d4553534147455f53454c45435445445f42595f555345520000000000000000815250815260200160001515815260200160405180602001604052806000815250815250905090565b6040518060400160405280601881526020017f4d4553534147455f53454c45435445445f42595f55534552000000000000000081525081565b604051806060016040528060608152602001600015158152602001606081525090565b6000604051905090565b600080fd5b600080fd5b600080fd5b600080fd5b6000601f19601f8301169050919050565b7f4e487b7100000000000000000000000000000000000000000000000000000000600052604160045260246000fd5b61052b826104e2565b810181811067ffffffffffffffff8211171561054a576105496104f3565b5b80604052505050565b600061055d6104c4565b90506105698282610522565b919050565b600067ffffffffffffffff821115610589576105886104f3565b5b610592826104e2565b9050602081019050919050565b82818337600083830152505050565b60006105c16105bc8461056e565b610553565b9050828152602081018484840111156105dd576105dc6104dd565b5b6105e884828561059f565b509392505050565b600082601f830112610605576106046104d8565b5b81356106158482602086016105ae565b91505092915050565b60008115159050919050565b6106338161061e565b811461063e57600080fd5b50565b6000813590506106508161062a565b92915050565b60008060006060848603121561066f5761066e6104ce565b5b600084013567ffffffffffffffff81111561068d5761068c6104d3565b5b610699868287016105f0565b93505060206106aa86828701610641565b925050604084013567ffffffffffffffff8111156106cb576106ca6104d3565b5b6106d7868287016105f0565b9150509250925092565b600081519050919050565b600082825260208201905092915050565b60005b8381101561071b578082015181840152602081019050610700565b60008484015250505050565b6000610732826106e1565b61073c81856106ec565b935061074c8185602086016106fd565b610755816104e2565b840191505092915050565b6107698161061e565b82525050565b6000606083016000830151848203600086015261078c8282610727565b91505060208301516107a16020860182610760565b50604083015184820360408601526107b98282610727565b9150508091505092915050565b600060208201905081810360008301526107e0818461076f565b905092915050565b6000602082840312156107fe576107fd6104ce565b5b600061080c84828501610641565b91505092915050565b61081e8161061e565b82525050565b60006020820190506108396000830184610815565b92915050565b60008060408385031215610856576108556104ce565b5b600083013567ffffffffffffffff811115610874576108736104d3565b5b610880858286016105f0565b925050602083013567ffffffffffffffff8111156108a1576108a06104d3565b5b6108ad858286016105f0565b9150509250929050565b600080604083850312156108ce576108cd6104ce565b5b600083013567ffffffffffffffff8111156108ec576108eb6104d3565b5b6108f8858286016105f0565b925050602061090985828601610641565b9150509250929050565b600060208284031215610929576109286104ce565b5b600082013567ffffffffffffffff811115610947576109466104d3565b5b610953848285016105f0565b91505092915050565b600082825260208201905092915050565b6000610978826106e1565b610982818561095c565b93506109928185602086016106fd565b61099b816104e2565b840191505092915050565b600060208201905081810360008301526109c0818461096d565b905092915050565b600080604083850312156109df576109de6104ce565b5b60006109ed85828601610641565b925050602083013567ffffffffffffffff811115610a0e57610a0d6104d3565b5b610a1a858286016105f0565b915050925092905056fea2646970667358221220a862b12d2afb89f09cd220d8e59fd487f26eb2c9588ae22ecccbbcb4b1a3d7e864736f6c63430008110033",
    "linkReferences": {}
  },
  "methodIdentifiers": {
    "DEFAULT_SIGNATURE_REQUEST_EXTRA_DATA()": "72915d89",
    "DEFAULT_SIGNATURE_REQUEST_IS_SELECTABLE_BY_USER()": "5c4b7b60",
    "DEFAULT_SIGNATURE_REQUEST_MESSAGE()": "ac799cb3",
    "build(bool)": "3ed8572e",
    "build(bool,bytes)": "7476d1ac",
    "build(bytes)": "6835f32c",
    "build(bytes,bool)": "64009b99",
    "build(bytes,bool,bytes)": "1f785c95",
    "build(bytes,bytes)": "5de3b44c",
    "buildEmpty()": "800e65f2"
  },
  "id": 27
}