{
  "abi": [
    {
      "inputs": [
        {
          "components": [
            {
              "internalType": "bytes16",
              "name": "appId",
              "type": "bytes16"
            },
            {
              "components": [
                {
                  "internalType": "bool",
                  "name": "isImpersonationMode",
                  "type": "bool"
                }
              ],
              "internalType": "struct VaultConfig",
              "name": "vault",
              "type": "tuple"
            }
          ],
          "internalType": "struct SismoConnectConfig",
          "name": "_config",
          "type": "tuple"
        }
      ],
      "stateMutability": "nonpayable",
      "type": "constructor"
    },
    {
      "inputs": [],
      "name": "ADDRESSES_PROVIDER_V2",
      "outputs": [
        {
          "internalType": "contract IAddressesProvider",
          "name": "",
          "type": "address"
        }
      ],
      "stateMutability": "view",
      "type": "function"
    },
    {
      "inputs": [],
      "name": "SISMO_CONNECT_LIB_VERSION",
      "outputs": [
        {
          "internalType": "uint256",
          "name": "",
          "type": "uint256"
        }
      ],
      "stateMutability": "view",
      "type": "function"
    },
    {
      "inputs": [
        {
          "internalType": "bool",
          "name": "isSelectableByUser",
          "type": "bool"
        }
      ],
      "name": "buildSignature",
      "outputs": [
        {
          "components": [
            {
              "internalType": "bytes",
              "name": "message",
              "type": "bytes"
            },
            {
              "internalType": "bool",
              "name": "isSelectableByUser",
              "type": "bool"
            },
            {
              "internalType": "bytes",
              "name": "extraData",
              "type": "bytes"
            }
          ],
          "internalType": "struct SignatureRequest",
          "name": "",
          "type": "tuple"
        }
      ],
      "stateMutability": "view",
      "type": "function"
    },
    {
      "inputs": [
        {
          "internalType": "bytes",
          "name": "message",
          "type": "bytes"
        },
        {
          "internalType": "bytes",
          "name": "extraData",
          "type": "bytes"
        }
      ],
      "name": "buildSignature",
      "outputs": [
        {
          "components": [
            {
              "internalType": "bytes",
              "name": "message",
              "type": "bytes"
            },
            {
              "internalType": "bool",
              "name": "isSelectableByUser",
              "type": "bool"
            },
            {
              "internalType": "bytes",
              "name": "extraData",
              "type": "bytes"
            }
          ],
          "internalType": "struct SignatureRequest",
          "name": "",
          "type": "tuple"
        }
      ],
      "stateMutability": "view",
      "type": "function"
    },
    {
      "inputs": [
        {
          "internalType": "bool",
          "name": "isSelectableByUser",
          "type": "bool"
        },
        {
          "internalType": "bytes",
          "name": "extraData",
          "type": "bytes"
        }
      ],
      "name": "buildSignature",
      "outputs": [
        {
          "components": [
            {
              "internalType": "bytes",
              "name": "message",
              "type": "bytes"
            },
            {
              "internalType": "bool",
              "name": "isSelectableByUser",
              "type": "bool"
            },
            {
              "internalType": "bytes",
              "name": "extraData",
              "type": "bytes"
            }
          ],
          "internalType": "struct SignatureRequest",
          "name": "",
          "type": "tuple"
        }
      ],
      "stateMutability": "view",
      "type": "function"
    },
    {
      "inputs": [
        {
          "internalType": "bytes",
          "name": "message",
          "type": "bytes"
        },
        {
          "internalType": "bool",
          "name": "isSelectableByUser",
          "type": "bool"
        },
        {
          "internalType": "bytes",
          "name": "extraData",
          "type": "bytes"
        }
      ],
      "name": "buildSignature",
      "outputs": [
        {
          "components": [
            {
              "internalType": "bytes",
              "name": "message",
              "type": "bytes"
            },
            {
              "internalType": "bool",
              "name": "isSelectableByUser",
              "type": "bool"
            },
            {
              "internalType": "bytes",
              "name": "extraData",
              "type": "bytes"
            }
          ],
          "internalType": "struct SignatureRequest",
          "name": "",
          "type": "tuple"
        }
      ],
      "stateMutability": "view",
      "type": "function"
    },
    {
      "inputs": [],
      "name": "config",
      "outputs": [
        {
          "internalType": "bytes16",
          "name": "appId",
          "type": "bytes16"
        },
        {
          "components": [
            {
              "internalType": "bool",
              "name": "isImpersonationMode",
              "type": "bool"
            }
          ],
          "internalType": "struct VaultConfig",
          "name": "vault",
          "type": "tuple"
        }
      ],
      "stateMutability": "view",
      "type": "function"
    }
  ],
  "bytecode": {
    "object": "0x60806040523480156200001157600080fd5b5060405162001655380380620016558339818101604052810190620000379190620007a5565b80600560008201518160000160006101000a8154816fffffffffffffffffffffffffffffffff021916908360801c021790555060208201518160010160008201518160000160006101000a81548160ff0219169083151502179055505050905050733cd5334eb64ebbd4003b72022cc25465f1bfcee673ffffffffffffffffffffffffffffffffffffffff1663693ec85e6040518060400160405280601981526020017f7369736d6f436f6e6e65637456657269666965722d76312e31000000000000008152506040518263ffffffff1660e01b81526004016200011c919062000860565b602060405180830381865afa1580156200013a573d6000803e3d6000fd5b505050506040513d601f19601f82011682018060405250810190620001609190620008e9565b6000806101000a81548173ffffffffffffffffffffffffffffffffffffffff021916908373ffffffffffffffffffffffffffffffffffffffff160217905550733cd5334eb64ebbd4003b72022cc25465f1bfcee673ffffffffffffffffffffffffffffffffffffffff1663693ec85e6040518060400160405280601781526020017f61757468526571756573744275696c6465722d76312e310000000000000000008152506040518263ffffffff1660e01b815260040162000223919062000860565b602060405180830381865afa15801562000241573d6000803e3d6000fd5b505050506040513d601f19601f82011682018060405250810190620002679190620008e9565b600160006101000a81548173ffffffffffffffffffffffffffffffffffffffff021916908373ffffffffffffffffffffffffffffffffffffffff160217905550733cd5334eb64ebbd4003b72022cc25465f1bfcee673ffffffffffffffffffffffffffffffffffffffff1663693ec85e6040518060400160405280601881526020017f636c61696d526571756573744275696c6465722d76312e3100000000000000008152506040518263ffffffff1660e01b81526004016200032b919062000860565b602060405180830381865afa15801562000349573d6000803e3d6000fd5b505050506040513d601f19601f820116820180604052508101906200036f9190620008e9565b600260006101000a81548173ffffffffffffffffffffffffffffffffffffffff021916908373ffffffffffffffffffffffffffffffffffffffff160217905550733cd5334eb64ebbd4003b72022cc25465f1bfcee673ffffffffffffffffffffffffffffffffffffffff1663693ec85e6040518060400160405280601581526020017f7369676e61747572654275696c6465722d76312e3100000000000000000000008152506040518263ffffffff1660e01b815260040162000433919062000860565b602060405180830381865afa15801562000451573d6000803e3d6000fd5b505050506040513d601f19601f82011682018060405250810190620004779190620008e9565b600360006101000a81548173ffffffffffffffffffffffffffffffffffffffff021916908373ffffffffffffffffffffffffffffffffffffffff160217905550733cd5334eb64ebbd4003b72022cc25465f1bfcee673ffffffffffffffffffffffffffffffffffffffff1663693ec85e6040518060400160405280601381526020017f726571756573744275696c6465722d76312e31000000000000000000000000008152506040518263ffffffff1660e01b81526004016200053b919062000860565b602060405180830381865afa15801562000559573d6000803e3d6000fd5b505050506040513d601f19601f820116820180604052508101906200057f9190620008e9565b600460006101000a81548173ffffffffffffffffffffffffffffffffffffffff021916908373ffffffffffffffffffffffffffffffffffffffff160217905550506200091b565b6000604051905090565b600080fd5b600080fd5b6000601f19601f8301169050919050565b7f4e487b7100000000000000000000000000000000000000000000000000000000600052604160045260246000fd5b6200062582620005da565b810181811067ffffffffffffffff82111715620006475762000646620005eb565b5b80604052505050565b60006200065c620005c6565b90506200066a82826200061a565b919050565b60007fffffffffffffffffffffffffffffffff0000000000000000000000000000000082169050919050565b620006a6816200066f565b8114620006b257600080fd5b50565b600081519050620006c6816200069b565b92915050565b60008115159050919050565b620006e381620006cc565b8114620006ef57600080fd5b50565b6000815190506200070381620006d8565b92915050565b600060208284031215620007225762000721620005d5565b5b6200072e602062000650565b905060006200074084828501620006f2565b60008301525092915050565b600060408284031215620007655762000764620005d5565b5b62000771604062000650565b905060006200078384828501620006b5565b6000830152506020620007998482850162000709565b60208301525092915050565b600060408284031215620007be57620007bd620005d0565b5b6000620007ce848285016200074c565b91505092915050565b600081519050919050565b600082825260208201905092915050565b60005b8381101562000813578082015181840152602081019050620007f6565b60008484015250505050565b60006200082c82620007d7565b620008388185620007e2565b93506200084a818560208601620007f3565b6200085581620005da565b840191505092915050565b600060208201905081810360008301526200087c81846200081f565b905092915050565b600073ffffffffffffffffffffffffffffffffffffffff82169050919050565b6000620008b18262000884565b9050919050565b620008c381620008a4565b8114620008cf57600080fd5b50565b600081519050620008e381620008b8565b92915050565b600060208284031215620009025762000901620005d0565b5b60006200091284828501620008d2565b91505092915050565b610d2a806200092b6000396000f3fe608060405234801561001057600080fd5b506004361061007d5760003560e01c806379502c551161005b57806379502c5514610100578063c9512d991461011f578063cea8eb4e1461013d578063e06897031461016d5761007d565b8063469163011461008257806349161195146100a05780636e01370e146100d0575b600080fd5b61008a61019d565b604051610097919061056c565b60405180910390f35b6100ba60048036038101906100b591906105d3565b6101b5565b6040516100c791906106f6565b60405180910390f35b6100ea60048036038101906100e5919061084d565b610265565b6040516100f791906106f6565b60405180910390f35b610108610318565b60405161011692919061091c565b60405180910390f35b61012761035c565b604051610134919061095e565b60405180910390f35b61015760048036038101906101529190610979565b610361565b60405161016491906106f6565b60405180910390f35b610187600480360381019061018291906109d5565b610414565b60405161019491906106f6565b60405180910390f35b733cd5334eb64ebbd4003b72022cc25465f1bfcee681565b6101bd6104ca565b600360009054906101000a900473ffffffffffffffffffffffffffffffffffffffff1673ffffffffffffffffffffffffffffffffffffffff16633ed8572e836040518263ffffffff1660e01b81526004016102189190610a6f565b600060405180830381865afa158015610235573d6000803e3d6000fd5b505050506040513d6000823e3d601f19601f8201168201806040525081019061025e9190610bb5565b9050919050565b61026d6104ca565b600360009054906101000a900473ffffffffffffffffffffffffffffffffffffffff1673ffffffffffffffffffffffffffffffffffffffff16635de3b44c84846040518363ffffffff1660e01b81526004016102ca929190610c48565b600060405180830381865afa1580156102e7573d6000803e3d6000fd5b505050506040513d6000823e3d601f19601f820116820180604052508101906103109190610bb5565b905092915050565b60058060000160009054906101000a900460801b90806001016040518060200160405290816000820160009054906101000a900460ff161515151581525050905082565b600281565b6103696104ca565b600360009054906101000a900473ffffffffffffffffffffffffffffffffffffffff1673ffffffffffffffffffffffffffffffffffffffff16637476d1ac84846040518363ffffffff1660e01b81526004016103c6929190610c7f565b600060405180830381865afa1580156103e3573d6000803e3d6000fd5b505050506040513d6000823e3d601f19601f8201168201806040525081019061040c9190610bb5565b905092915050565b61041c6104ca565b600360009054906101000a900473ffffffffffffffffffffffffffffffffffffffff1673ffffffffffffffffffffffffffffffffffffffff16631f785c958585856040518463ffffffff1660e01b815260040161047b93929190610caf565b600060405180830381865afa158015610498573d6000803e3d6000fd5b505050506040513d6000823e3d601f19601f820116820180604052508101906104c19190610bb5565b90509392505050565b604051806060016040528060608152602001600015158152602001606081525090565b600073ffffffffffffffffffffffffffffffffffffffff82169050919050565b6000819050919050565b600061053261052d610528846104ed565b61050d565b6104ed565b9050919050565b600061054482610517565b9050919050565b600061055682610539565b9050919050565b6105668161054b565b82525050565b6000602082019050610581600083018461055d565b92915050565b6000604051905090565b600080fd5b600080fd5b60008115159050919050565b6105b08161059b565b81146105bb57600080fd5b50565b6000813590506105cd816105a7565b92915050565b6000602082840312156105e9576105e8610591565b5b60006105f7848285016105be565b91505092915050565b600081519050919050565b600082825260208201905092915050565b60005b8381101561063a57808201518184015260208101905061061f565b60008484015250505050565b6000601f19601f8301169050919050565b600061066282610600565b61066c818561060b565b935061067c81856020860161061c565b61068581610646565b840191505092915050565b6106998161059b565b82525050565b600060608301600083015184820360008601526106bc8282610657565b91505060208301516106d16020860182610690565b50604083015184820360408601526106e98282610657565b9150508091505092915050565b60006020820190508181036000830152610710818461069f565b905092915050565b600080fd5b600080fd5b7f4e487b7100000000000000000000000000000000000000000000000000000000600052604160045260246000fd5b61075a82610646565b810181811067ffffffffffffffff8211171561077957610778610722565b5b80604052505050565b600061078c610587565b90506107988282610751565b919050565b600067ffffffffffffffff8211156107b8576107b7610722565b5b6107c182610646565b9050602081019050919050565b82818337600083830152505050565b60006107f06107eb8461079d565b610782565b90508281526020810184848401111561080c5761080b61071d565b5b6108178482856107ce565b509392505050565b600082601f83011261083457610833610718565b5b81356108448482602086016107dd565b91505092915050565b6000806040838503121561086457610863610591565b5b600083013567ffffffffffffffff81111561088257610881610596565b5b61088e8582860161081f565b925050602083013567ffffffffffffffff8111156108af576108ae610596565b5b6108bb8582860161081f565b9150509250929050565b60007fffffffffffffffffffffffffffffffff0000000000000000000000000000000082169050919050565b6108fa816108c5565b82525050565b6020820160008201516109166000850182610690565b50505050565b600060408201905061093160008301856108f1565b61093e6020830184610900565b9392505050565b6000819050919050565b61095881610945565b82525050565b6000602082019050610973600083018461094f565b92915050565b600080604083850312156109905761098f610591565b5b600061099e858286016105be565b925050602083013567ffffffffffffffff8111156109bf576109be610596565b5b6109cb8582860161081f565b9150509250929050565b6000806000606084860312156109ee576109ed610591565b5b600084013567ffffffffffffffff811115610a0c57610a0b610596565b5b610a188682870161081f565b9350506020610a29868287016105be565b925050604084013567ffffffffffffffff811115610a4a57610a49610596565b5b610a568682870161081f565b9150509250925092565b610a698161059b565b82525050565b6000602082019050610a846000830184610a60565b92915050565b600080fd5b600080fd5b6000610aa7610aa28461079d565b610782565b905082815260208101848484011115610ac357610ac261071d565b5b610ace84828561061c565b509392505050565b600082601f830112610aeb57610aea610718565b5b8151610afb848260208601610a94565b91505092915050565b600081519050610b13816105a7565b92915050565b600060608284031215610b2f57610b2e610a8a565b5b610b396060610782565b9050600082015167ffffffffffffffff811115610b5957610b58610a8f565b5b610b6584828501610ad6565b6000830152506020610b7984828501610b04565b602083015250604082015167ffffffffffffffff811115610b9d57610b9c610a8f565b5b610ba984828501610ad6565b60408301525092915050565b600060208284031215610bcb57610bca610591565b5b600082015167ffffffffffffffff811115610be957610be8610596565b5b610bf584828501610b19565b91505092915050565b600082825260208201905092915050565b6000610c1a82610600565b610c248185610bfe565b9350610c3481856020860161061c565b610c3d81610646565b840191505092915050565b60006040820190508181036000830152610c628185610c0f565b90508181036020830152610c768184610c0f565b90509392505050565b6000604082019050610c946000830185610a60565b8181036020830152610ca68184610c0f565b90509392505050565b60006060820190508181036000830152610cc98186610c0f565b9050610cd86020830185610a60565b8181036040830152610cea8184610c0f565b905094935050505056fea26469706673582212207e146a19a8c74d2761785a69e5fc9e1337f81c5503e5aa998e23979cf7309f8764736f6c63430008110033",
    "linkReferences": {}
  },
  "methodIdentifiers": {
    "ADDRESSES_PROVIDER_V2()": "46916301",
    "SISMO_CONNECT_LIB_VERSION()": "c9512d99",
    "buildSignature(bool)": "49161195",
    "buildSignature(bool,bytes)": "cea8eb4e",
    "buildSignature(bytes,bool,bytes)": "e0689703",
    "buildSignature(bytes,bytes)": "6e01370e",
    "config()": "79502c55"
  },
  "id": 23
}