{
  "abi": [
    {
      "inputs": [],
      "name": "InvalidUserIdAndAuthType",
      "type": "error"
    },
    {
      "inputs": [],
      "name": "InvalidUserIdAndIsSelectableByUserAuthType",
      "type": "error"
    },
    {
      "inputs": [],
      "name": "DEFAULT_AUTH_REQUEST_EXTRA_DATA",
      "outputs": [
        {
          "internalType": "bytes",
          "name": "",
          "type": "bytes"
        }
      ],
      "stateMutability": "view",
      "type": "function"
    },
    {
      "inputs": [],
      "name": "DEFAULT_AUTH_REQUEST_IS_ANON",
      "outputs": [
        {
          "internalType": "bool",
          "name": "",
          "type": "bool"
        }
      ],
      "stateMutability": "view",
      "type": "function"
    },
    {
      "inputs": [],
      "name": "DEFAULT_AUTH_REQUEST_IS_OPTIONAL",
      "outputs": [
        {
          "internalType": "bool",
          "name": "",
          "type": "bool"
        }
      ],
      "stateMutability": "view",
      "type": "function"
    },
    {
      "inputs": [],
      "name": "DEFAULT_AUTH_REQUEST_USER_ID",
      "outputs": [
        {
          "internalType": "uint256",
          "name": "",
          "type": "uint256"
        }
      ],
      "stateMutability": "view",
      "type": "function"
    },
    {
      "inputs": [
        {
          "internalType": "enum AuthType",
          "name": "authType",
          "type": "uint8"
        },
        {
          "internalType": "bool",
          "name": "isAnon",
          "type": "bool"
        },
        {
          "internalType": "bytes",
          "name": "extraData",
          "type": "bytes"
        }
      ],
      "name": "build",
      "outputs": [
        {
          "components": [
            {
              "internalType": "enum AuthType",
              "name": "authType",
              "type": "uint8"
            },
            {
              "internalType": "uint256",
              "name": "userId",
              "type": "uint256"
            },
            {
              "internalType": "bool",
              "name": "isAnon",
              "type": "bool"
            },
            {
              "internalType": "bool",
              "name": "isOptional",
              "type": "bool"
            },
            {
              "internalType": "bool",
              "name": "isSelectableByUser",
              "type": "bool"
            },
            {
              "internalType": "bytes",
              "name": "extraData",
              "type": "bytes"
            }
          ],
          "internalType": "struct AuthRequest",
          "name": "",
          "type": "tuple"
        }
      ],
      "stateMutability": "pure",
      "type": "function"
    },
    {
      "inputs": [
        {
          "internalType": "enum AuthType",
          "name": "authType",
          "type": "uint8"
        },
        {
          "internalType": "bool",
          "name": "isAnon",
          "type": "bool"
        }
      ],
      "name": "build",
      "outputs": [
        {
          "components": [
            {
              "internalType": "enum AuthType",
              "name": "authType",
              "type": "uint8"
            },
            {
              "internalType": "uint256",
              "name": "userId",
              "type": "uint256"
            },
            {
              "internalType": "bool",
              "name": "isAnon",
              "type": "bool"
            },
            {
              "internalType": "bool",
              "name": "isOptional",
              "type": "bool"
            },
            {
              "internalType": "bool",
              "name": "isSelectableByUser",
              "type": "bool"
            },
            {
              "internalType": "bytes",
              "name": "extraData",
              "type": "bytes"
            }
          ],
          "internalType": "struct AuthRequest",
          "name": "",
          "type": "tuple"
        }
      ],
      "stateMutability": "pure",
      "type": "function"
    },
    {
      "inputs": [
        {
          "internalType": "enum AuthType",
          "name": "authType",
          "type": "uint8"
        },
        {
          "internalType": "bool",
          "name": "isAnon",
          "type": "bool"
        },
        {
          "internalType": "bool",
          "name": "isOptional",
          "type": "bool"
        },
        {
          "internalType": "bool",
          "name": "isSelectableByUser",
          "type": "bool"
        }
      ],
      "name": "build",
      "outputs": [
        {
          "components": [
            {
              "internalType": "enum AuthType",
              "name": "authType",
              "type": "uint8"
            },
            {
              "internalType": "uint256",
              "name": "userId",
              "type": "uint256"
            },
            {
              "internalType": "bool",
              "name": "isAnon",
              "type": "bool"
            },
            {
              "internalType": "bool",
              "name": "isOptional",
              "type": "bool"
            },
            {
              "internalType": "bool",
              "name": "isSelectableByUser",
              "type": "bool"
            },
            {
              "internalType": "bytes",
              "name": "extraData",
              "type": "bytes"
            }
          ],
          "internalType": "struct AuthRequest",
          "name": "",
          "type": "tuple"
        }
      ],
      "stateMutability": "pure",
      "type": "function"
    },
    {
      "inputs": [
        {
          "internalType": "enum AuthType",
          "name": "authType",
          "type": "uint8"
        },
        {
          "internalType": "bool",
          "name": "isOptional",
          "type": "bool"
        },
        {
          "internalType": "bool",
          "name": "isSelectableByUser",
          "type": "bool"
        },
        {
          "internalType": "uint256",
          "name": "userId",
          "type": "uint256"
        }
      ],
      "name": "build",
      "outputs": [
        {
          "components": [
            {
              "internalType": "enum AuthType",
              "name": "authType",
              "type": "uint8"
            },
            {
              "internalType": "uint256",
              "name": "userId",
              "type": "uint256"
            },
            {
              "internalType": "bool",
              "name": "isAnon",
              "type": "bool"
            },
            {
              "internalType": "bool",
              "name": "isOptional",
              "type": "bool"
            },
            {
              "internalType": "bool",
              "name": "isSelectableByUser",
              "type": "bool"
            },
            {
              "internalType": "bytes",
              "name": "extraData",
              "type": "bytes"
            }
          ],
          "internalType": "struct AuthRequest",
          "name": "",
          "type": "tuple"
        }
      ],
      "stateMutability": "pure",
      "type": "function"
    },
    {
      "inputs": [
        {
          "internalType": "enum AuthType",
          "name": "authType",
          "type": "uint8"
        }
      ],
      "name": "build",
      "outputs": [
        {
          "components": [
            {
              "internalType": "enum AuthType",
              "name": "authType",
              "type": "uint8"
            },
            {
              "internalType": "uint256",
              "name": "userId",
              "type": "uint256"
            },
            {
              "internalType": "bool",
              "name": "isAnon",
              "type": "bool"
            },
            {
              "internalType": "bool",
              "name": "isOptional",
              "type": "bool"
            },
            {
              "internalType": "bool",
              "name": "isSelectableByUser",
              "type": "bool"
            },
            {
              "internalType": "bytes",
              "name": "extraData",
              "type": "bytes"
            }
          ],
          "internalType": "struct AuthRequest",
          "name": "",
          "type": "tuple"
        }
      ],
      "stateMutability": "pure",
      "type": "function"
    },
    {
      "inputs": [
        {
          "internalType": "enum AuthType",
          "name": "authType",
          "type": "uint8"
        },
        {
          "internalType": "uint256",
          "name": "userId",
          "type": "uint256"
        },
        {
          "internalType": "bool",
          "name": "isOptional",
          "type": "bool"
        }
      ],
      "name": "build",
      "outputs": [
        {
          "components": [
            {
              "internalType": "enum AuthType",
              "name": "authType",
              "type": "uint8"
            },
            {
              "internalType": "uint256",
              "name": "userId",
              "type": "uint256"
            },
            {
              "internalType": "bool",
              "name": "isAnon",
              "type": "bool"
            },
            {
              "internalType": "bool",
              "name": "isOptional",
              "type": "bool"
            },
            {
              "internalType": "bool",
              "name": "isSelectableByUser",
              "type": "bool"
            },
            {
              "internalType": "bytes",
              "name": "extraData",
              "type": "bytes"
            }
          ],
          "internalType": "struct AuthRequest",
          "name": "",
          "type": "tuple"
        }
      ],
      "stateMutability": "pure",
      "type": "function"
    },
    {
      "inputs": [
        {
          "internalType": "enum AuthType",
          "name": "authType",
          "type": "uint8"
        },
        {
          "internalType": "uint256",
          "name": "userId",
          "type": "uint256"
        }
      ],
      "name": "build",
      "outputs": [
        {
          "components": [
            {
              "internalType": "enum AuthType",
              "name": "authType",
              "type": "uint8"
            },
            {
              "internalType": "uint256",
              "name": "userId",
              "type": "uint256"
            },
            {
              "internalType": "bool",
              "name": "isAnon",
              "type": "bool"
            },
            {
              "internalType": "bool",
              "name": "isOptional",
              "type": "bool"
            },
            {
              "internalType": "bool",
              "name": "isSelectableByUser",
              "type": "bool"
            },
            {
              "internalType": "bytes",
              "name": "extraData",
              "type": "bytes"
            }
          ],
          "internalType": "struct AuthRequest",
          "name": "",
          "type": "tuple"
        }
      ],
      "stateMutability": "pure",
      "type": "function"
    },
    {
      "inputs": [
        {
          "internalType": "enum AuthType",
          "name": "authType",
          "type": "uint8"
        },
        {
          "internalType": "bytes",
          "name": "extraData",
          "type": "bytes"
        }
      ],
      "name": "build",
      "outputs": [
        {
          "components": [
            {
              "internalType": "enum AuthType",
              "name": "authType",
              "type": "uint8"
            },
            {
              "internalType": "uint256",
              "name": "userId",
              "type": "uint256"
            },
            {
              "internalType": "bool",
              "name": "isAnon",
              "type": "bool"
            },
            {
              "internalType": "bool",
              "name": "isOptional",
              "type": "bool"
            },
            {
              "internalType": "bool",
              "name": "isSelectableByUser",
              "type": "bool"
            },
            {
              "internalType": "bytes",
              "name": "extraData",
              "type": "bytes"
            }
          ],
          "internalType": "struct AuthRequest",
          "name": "",
          "type": "tuple"
        }
      ],
      "stateMutability": "pure",
      "type": "function"
    },
    {
      "inputs": [
        {
          "internalType": "enum AuthType",
          "name": "authType",
          "type": "uint8"
        },
        {
          "internalType": "bool",
          "name": "isAnon",
          "type": "bool"
        },
        {
          "internalType": "uint256",
          "name": "userId",
          "type": "uint256"
        }
      ],
      "name": "build",
      "outputs": [
        {
          "components": [
            {
              "internalType": "enum AuthType",
              "name": "authType",
              "type": "uint8"
            },
            {
              "internalType": "uint256",
              "name": "userId",
              "type": "uint256"
            },
            {
              "internalType": "bool",
              "name": "isAnon",
              "type": "bool"
            },
            {
              "internalType": "bool",
              "name": "isOptional",
              "type": "bool"
            },
            {
              "internalType": "bool",
              "name": "isSelectableByUser",
              "type": "bool"
            },
            {
              "internalType": "bytes",
              "name": "extraData",
              "type": "bytes"
            }
          ],
          "internalType": "struct AuthRequest",
          "name": "",
          "type": "tuple"
        }
      ],
      "stateMutability": "pure",
      "type": "function"
    },
    {
      "inputs": [
        {
          "internalType": "enum AuthType",
          "name": "authType",
          "type": "uint8"
        },
        {
          "internalType": "bool",
          "name": "isAnon",
          "type": "bool"
        },
        {
          "internalType": "uint256",
          "name": "userId",
          "type": "uint256"
        },
        {
          "internalType": "bool",
          "name": "isOptional",
          "type": "bool"
        }
      ],
      "name": "build",
      "outputs": [
        {
          "components": [
            {
              "internalType": "enum AuthType",
              "name": "authType",
              "type": "uint8"
            },
            {
              "internalType": "uint256",
              "name": "userId",
              "type": "uint256"
            },
            {
              "internalType": "bool",
              "name": "isAnon",
              "type": "bool"
            },
            {
              "internalType": "bool",
              "name": "isOptional",
              "type": "bool"
            },
            {
              "internalType": "bool",
              "name": "isSelectableByUser",
              "type": "bool"
            },
            {
              "internalType": "bytes",
              "name": "extraData",
              "type": "bytes"
            }
          ],
          "internalType": "struct AuthRequest",
          "name": "",
          "type": "tuple"
        }
      ],
      "stateMutability": "pure",
      "type": "function"
    },
    {
      "inputs": [
        {
          "internalType": "enum AuthType",
          "name": "authType",
          "type": "uint8"
        },
        {
          "internalType": "bool",
          "name": "isAnon",
          "type": "bool"
        },
        {
          "internalType": "uint256",
          "name": "userId",
          "type": "uint256"
        },
        {
          "internalType": "bool",
          "name": "isOptional",
          "type": "bool"
        },
        {
          "internalType": "bool",
          "name": "isSelectableByUser",
          "type": "bool"
        },
        {
          "internalType": "bytes",
          "name": "extraData",
          "type": "bytes"
        }
      ],
      "name": "build",
      "outputs": [
        {
          "components": [
            {
              "internalType": "enum AuthType",
              "name": "authType",
              "type": "uint8"
            },
            {
              "internalType": "uint256",
              "name": "userId",
              "type": "uint256"
            },
            {
              "internalType": "bool",
              "name": "isAnon",
              "type": "bool"
            },
            {
              "internalType": "bool",
              "name": "isOptional",
              "type": "bool"
            },
            {
              "internalType": "bool",
              "name": "isSelectableByUser",
              "type": "bool"
            },
            {
              "internalType": "bytes",
              "name": "extraData",
              "type": "bytes"
            }
          ],
          "internalType": "struct AuthRequest",
          "name": "",
          "type": "tuple"
        }
      ],
      "stateMutability": "pure",
      "type": "function"
    },
    {
      "inputs": [
        {
          "internalType": "enum AuthType",
          "name": "authType",
          "type": "uint8"
        },
        {
          "internalType": "uint256",
          "name": "userId",
          "type": "uint256"
        },
        {
          "internalType": "bytes",
          "name": "extraData",
          "type": "bytes"
        }
      ],
      "name": "build",
      "outputs": [
        {
          "components": [
            {
              "internalType": "enum AuthType",
              "name": "authType",
              "type": "uint8"
            },
            {
              "internalType": "uint256",
              "name": "userId",
              "type": "uint256"
            },
            {
              "internalType": "bool",
              "name": "isAnon",
              "type": "bool"
            },
            {
              "internalType": "bool",
              "name": "isOptional",
              "type": "bool"
            },
            {
              "internalType": "bool",
              "name": "isSelectableByUser",
              "type": "bool"
            },
            {
              "internalType": "bytes",
              "name": "extraData",
              "type": "bytes"
            }
          ],
          "internalType": "struct AuthRequest",
          "name": "",
          "type": "tuple"
        }
      ],
      "stateMutability": "pure",
      "type": "function"
    },
    {
      "inputs": [
        {
          "internalType": "enum AuthType",
          "name": "authType",
          "type": "uint8"
        },
        {
          "internalType": "bool",
          "name": "isAnon",
          "type": "bool"
        },
        {
          "internalType": "uint256",
          "name": "userId",
          "type": "uint256"
        },
        {
          "internalType": "bytes",
          "name": "extraData",
          "type": "bytes"
        }
      ],
      "name": "build",
      "outputs": [
        {
          "components": [
            {
              "internalType": "enum AuthType",
              "name": "authType",
              "type": "uint8"
            },
            {
              "internalType": "uint256",
              "name": "userId",
              "type": "uint256"
            },
            {
              "internalType": "bool",
              "name": "isAnon",
              "type": "bool"
            },
            {
              "internalType": "bool",
              "name": "isOptional",
              "type": "bool"
            },
            {
              "internalType": "bool",
              "name": "isSelectableByUser",
              "type": "bool"
            },
            {
              "internalType": "bytes",
              "name": "extraData",
              "type": "bytes"
            }
          ],
          "internalType": "struct AuthRequest",
          "name": "",
          "type": "tuple"
        }
      ],
      "stateMutability": "pure",
      "type": "function"
    },
    {
      "inputs": [
        {
          "internalType": "enum AuthType",
          "name": "authType",
          "type": "uint8"
        },
        {
          "internalType": "bool",
          "name": "isOptional",
          "type": "bool"
        },
        {
          "internalType": "bool",
          "name": "isSelectableByUser",
          "type": "bool"
        }
      ],
      "name": "build",
      "outputs": [
        {
          "components": [
            {
              "internalType": "enum AuthType",
              "name": "authType",
              "type": "uint8"
            },
            {
              "internalType": "uint256",
              "name": "userId",
              "type": "uint256"
            },
            {
              "internalType": "bool",
              "name": "isAnon",
              "type": "bool"
            },
            {
              "internalType": "bool",
              "name": "isOptional",
              "type": "bool"
            },
            {
              "internalType": "bool",
              "name": "isSelectableByUser",
              "type": "bool"
            },
            {
              "internalType": "bytes",
              "name": "extraData",
              "type": "bytes"
            }
          ],
          "internalType": "struct AuthRequest",
          "name": "",
          "type": "tuple"
        }
      ],
      "stateMutability": "pure",
      "type": "function"
    }
  ],
  "bytecode": {
    "object": "0x608060405234801561001057600080fd5b50611294806100206000396000f3fe608060405234801561001057600080fd5b50600436106101165760003560e01c8063498a992e116100a2578063916d93c711610071578063916d93c7146103435780639aa01be114610373578063af4f6396146103a3578063c355a32c146103d3578063c3bcacd01461040357610116565b8063498a992e1461029557806351559190146102b35780636746dd2c146102e35780638b9dba711461031357610116565b80633049e4f1116100e95780633049e4f1146101c95780633a0ba6ff146101f95780633ca1531a14610229578063448324ea1461025957806345c130831461027757610116565b80631967e5101461011b5780631a88fb281461013957806320c9019914610169578063291884ae14610199575b600080fd5b610123610433565b60405161013091906108cc565b60405180910390f35b610153600480360381019061014e9190610a92565b610438565b6040516101609190610ca8565b60405180910390f35b610183600480360381019061017e9190610cca565b610457565b6040516101909190610ca8565b60405180910390f35b6101b360048036038101906101ae9190610d0a565b610484565b6040516101c09190610ca8565b60405180910390f35b6101e360048036038101906101de9190610d9d565b6104b4565b6040516101f09190610ca8565b60405180910390f35b610213600480360381019061020e9190610e04565b6104e4565b6040516102209190610ca8565b60405180910390f35b610243600480360381019061023e9190610e31565b610511565b6040516102509190610ca8565b60405180910390f35b61026161053f565b60405161026e9190610e93565b60405180910390f35b61027f610544565b60405161028c9190610ef8565b60405180910390f35b61029d610557565b6040516102aa91906108cc565b60405180910390f35b6102cd60048036038101906102c89190610f1a565b61055c565b6040516102da9190610ca8565b60405180910390f35b6102fd60048036038101906102f89190610f5a565b61058a565b60405161030a9190610ca8565b60405180910390f35b61032d60048036038101906103289190610fb6565b6105a9565b60405161033a9190610ca8565b60405180910390f35b61035d60048036038101906103589190611009565b6105d7565b60405161036a9190610ca8565b60405180910390f35b61038d60048036038101906103889190611070565b610605565b60405161039a9190610ca8565b60405180910390f35b6103bd60048036038101906103b89190611119565b610627565b6040516103ca9190610ca8565b60405180910390f35b6103ed60048036038101906103e89190611188565b610647565b6040516103fa9190610ca8565b60405180910390f35b61041d6004803603810190610418919061120b565b610667565b60405161042a9190610ca8565b60405180910390f35b600081565b610440610863565b61044e848460008086610696565b90509392505050565b61045f610863565b61047c838360008060405180602001604052806000815250610696565b905092915050565b61048c610863565b6104aa858560008686604051806020016040528060008152506106c0565b9050949350505050565b6104bc610863565b6104da856000848787604051806020016040528060008152506106c0565b9050949350505050565b6104ec610863565b61050a82600080600060405180602001604052806000815250610696565b9050919050565b610519610863565b610536846000858560405180602001604052806000815250610696565b90509392505050565b600081565b6040518060200160405280600081525081565b600081565b610564610863565b61058283600084600060405180602001604052806000815250610696565b905092915050565b610592610863565b6105a183600080600086610696565b905092915050565b6105b1610863565b6105ce848484600060405180602001604052806000815250610696565b90509392505050565b6105df610863565b6105fb8585858560405180602001604052806000815250610696565b9050949350505050565b61060d610863565b61061b8787878787876106c0565b90509695505050505050565b61062f610863565b61063e84600085600086610696565b90509392505050565b61064f610863565b61065d858585600086610696565b9050949350505050565b61066f610863565b61068d846000808686604051806020016040528060008152506106c0565b90509392505050565b61069e610863565b6106b5868686866106af8b8a610811565b876106c0565b905095945050505050565b6106c8610863565b600060058111156106dc576106db610b01565b5b8760058111156106ef576106ee610b01565b5b141580156106fd5750600085145b801561070d575060001515831515145b15610744576040517f032e5d9a00000000000000000000000000000000000000000000000000000000815260040160405180910390fd5b6000600581111561075857610757610b01565b5b87600581111561076b5761076a610b01565b5b148015610779575060008514155b8015610789575060001515831515145b156107c0576040517f7fb1693d00000000000000000000000000000000000000000000000000000000815260040160405180910390fd5b6040518060c001604052808860058111156107de576107dd610b01565b5b81526020018681526020018715158152602001851515815260200184151581526020018381525090509695505050505050565b600080600581111561082657610825610b01565b5b83600581111561083957610838610b01565b5b03610847576000905061085d565b60008203610858576001905061085d565b600090505b92915050565b6040518060c001604052806000600581111561088257610881610b01565b5b815260200160008152602001600015158152602001600015158152602001600015158152602001606081525090565b60008115159050919050565b6108c6816108b1565b82525050565b60006020820190506108e160008301846108bd565b92915050565b6000604051905090565b600080fd5b600080fd5b6006811061090857600080fd5b50565b60008135905061091a816108fb565b92915050565b610929816108b1565b811461093457600080fd5b50565b60008135905061094681610920565b92915050565b600080fd5b600080fd5b6000601f19601f8301169050919050565b7f4e487b7100000000000000000000000000000000000000000000000000000000600052604160045260246000fd5b61099f82610956565b810181811067ffffffffffffffff821117156109be576109bd610967565b5b80604052505050565b60006109d16108e7565b90506109dd8282610996565b919050565b600067ffffffffffffffff8211156109fd576109fc610967565b5b610a0682610956565b9050602081019050919050565b82818337600083830152505050565b6000610a35610a30846109e2565b6109c7565b905082815260208101848484011115610a5157610a50610951565b5b610a5c848285610a13565b509392505050565b600082601f830112610a7957610a7861094c565b5b8135610a89848260208601610a22565b91505092915050565b600080600060608486031215610aab57610aaa6108f1565b5b6000610ab98682870161090b565b9350506020610aca86828701610937565b925050604084013567ffffffffffffffff811115610aeb57610aea6108f6565b5b610af786828701610a64565b9150509250925092565b7f4e487b7100000000000000000000000000000000000000000000000000000000600052602160045260246000fd5b60068110610b4157610b40610b01565b5b50565b6000819050610b5282610b30565b919050565b6000610b6282610b44565b9050919050565b610b7281610b57565b82525050565b6000819050919050565b610b8b81610b78565b82525050565b610b9a816108b1565b82525050565b600081519050919050565b600082825260208201905092915050565b60005b83811015610bda578082015181840152602081019050610bbf565b60008484015250505050565b6000610bf182610ba0565b610bfb8185610bab565b9350610c0b818560208601610bbc565b610c1481610956565b840191505092915050565b600060c083016000830151610c376000860182610b69565b506020830151610c4a6020860182610b82565b506040830151610c5d6040860182610b91565b506060830151610c706060860182610b91565b506080830151610c836080860182610b91565b5060a083015184820360a0860152610c9b8282610be6565b9150508091505092915050565b60006020820190508181036000830152610cc28184610c1f565b905092915050565b60008060408385031215610ce157610ce06108f1565b5b6000610cef8582860161090b565b9250506020610d0085828601610937565b9150509250929050565b60008060008060808587031215610d2457610d236108f1565b5b6000610d328782880161090b565b9450506020610d4387828801610937565b9350506040610d5487828801610937565b9250506060610d6587828801610937565b91505092959194509250565b610d7a81610b78565b8114610d8557600080fd5b50565b600081359050610d9781610d71565b92915050565b60008060008060808587031215610db757610db66108f1565b5b6000610dc58782880161090b565b9450506020610dd687828801610937565b9350506040610de787828801610937565b9250506060610df887828801610d88565b91505092959194509250565b600060208284031215610e1a57610e196108f1565b5b6000610e288482850161090b565b91505092915050565b600080600060608486031215610e4a57610e496108f1565b5b6000610e588682870161090b565b9350506020610e6986828701610d88565b9250506040610e7a86828701610937565b9150509250925092565b610e8d81610b78565b82525050565b6000602082019050610ea86000830184610e84565b92915050565b600082825260208201905092915050565b6000610eca82610ba0565b610ed48185610eae565b9350610ee4818560208601610bbc565b610eed81610956565b840191505092915050565b60006020820190508181036000830152610f128184610ebf565b905092915050565b60008060408385031215610f3157610f306108f1565b5b6000610f3f8582860161090b565b9250506020610f5085828601610d88565b9150509250929050565b60008060408385031215610f7157610f706108f1565b5b6000610f7f8582860161090b565b925050602083013567ffffffffffffffff811115610fa057610f9f6108f6565b5b610fac85828601610a64565b9150509250929050565b600080600060608486031215610fcf57610fce6108f1565b5b6000610fdd8682870161090b565b9350506020610fee86828701610937565b9250506040610fff86828701610d88565b9150509250925092565b60008060008060808587031215611023576110226108f1565b5b60006110318782880161090b565b945050602061104287828801610937565b935050604061105387828801610d88565b925050606061106487828801610937565b91505092959194509250565b60008060008060008060c0878903121561108d5761108c6108f1565b5b600061109b89828a0161090b565b96505060206110ac89828a01610937565b95505060406110bd89828a01610d88565b94505060606110ce89828a01610937565b93505060806110df89828a01610937565b92505060a087013567ffffffffffffffff811115611100576110ff6108f6565b5b61110c89828a01610a64565b9150509295509295509295565b600080600060608486031215611132576111316108f1565b5b60006111408682870161090b565b935050602061115186828701610d88565b925050604084013567ffffffffffffffff811115611172576111716108f6565b5b61117e86828701610a64565b9150509250925092565b600080600080608085870312156111a2576111a16108f1565b5b60006111b08782880161090b565b94505060206111c187828801610937565b93505060406111d287828801610d88565b925050606085013567ffffffffffffffff8111156111f3576111f26108f6565b5b6111ff87828801610a64565b91505092959194509250565b600080600060608486031215611224576112236108f1565b5b60006112328682870161090b565b935050602061124386828701610937565b925050604061125486828701610937565b915050925092509256fea2646970667358221220f992c7e17858cdb3e6224eaaa862fb3c8f85bd0ed5d1a6f61b85eff505a27aad64736f6c63430008110033",
    "linkReferences": {}
  },
  "methodIdentifiers": {
    "DEFAULT_AUTH_REQUEST_EXTRA_DATA()": "45c13083",
    "DEFAULT_AUTH_REQUEST_IS_ANON()": "1967e510",
    "DEFAULT_AUTH_REQUEST_IS_OPTIONAL()": "498a992e",
    "DEFAULT_AUTH_REQUEST_USER_ID()": "448324ea",
    "build(uint8)": "3a0ba6ff",
    "build(uint8,bool)": "20c90199",
    "build(uint8,bool,bool)": "c3bcacd0",
    "build(uint8,bool,bool,bool)": "291884ae",
    "build(uint8,bool,bool,uint256)": "3049e4f1",
    "build(uint8,bool,bytes)": "1a88fb28",
    "build(uint8,bool,uint256)": "8b9dba71",
    "build(uint8,bool,uint256,bool)": "916d93c7",
    "build(uint8,bool,uint256,bool,bool,bytes)": "9aa01be1",
    "build(uint8,bool,uint256,bytes)": "c355a32c",
    "build(uint8,bytes)": "6746dd2c",
    "build(uint8,uint256)": "51559190",
    "build(uint8,uint256,bool)": "3ca1531a",
    "build(uint8,uint256,bytes)": "af4f6396"
  },
  "id": 24
}