{
  "abi": [
    {
      "inputs": [
        {
          "internalType": "string",
          "name": "_symbol",
          "type": "string"
        },
        {
          "internalType": "string",
          "name": "_ticker",
          "type": "string"
        },
        {
          "internalType": "bytes16",
          "name": "_groupID",
          "type": "bytes16"
        },
        {
          "internalType": "bool",
          "name": "_useSismo",
          "type": "bool"
        }
      ],
      "stateMutability": "nonpayable",
      "type": "constructor"
    },
    {
      "inputs": [],
      "name": "AlreadyClaimed",
      "type": "error"
    },
    {
      "inputs": [],
      "name": "AlreadyLent",
      "type": "error"
    },
    {
      "inputs": [
        {
          "internalType": "enum AuthType",
          "name": "authType",
          "type": "uint8"
        }
      ],
      "name": "AuthTypeNotFoundInVerifiedResult",
      "type": "error"
    },
    {
      "inputs": [],
      "name": "InvalidExpiry",
      "type": "error"
    },
    {
      "inputs": [],
      "name": "NotExpiredYet",
      "type": "error"
    },
    {
      "inputs": [],
      "name": "NotLoaned",
      "type": "error"
    },
    {
      "inputs": [],
      "name": "OwnerZero",
      "type": "error"
    },
    {
      "anonymous": false,
      "inputs": [
        {
          "indexed": true,
          "internalType": "address",
          "name": "owner",
          "type": "address"
        },
        {
          "indexed": true,
          "internalType": "address",
          "name": "approved",
          "type": "address"
        },
        {
          "indexed": true,
          "internalType": "uint256",
          "name": "tokenId",
          "type": "uint256"
        }
      ],
      "name": "Approval",
      "type": "event"
    },
    {
      "anonymous": false,
      "inputs": [
        {
          "indexed": true,
          "internalType": "address",
          "name": "owner",
          "type": "address"
        },
        {
          "indexed": true,
          "internalType": "address",
          "name": "operator",
          "type": "address"
        },
        {
          "indexed": false,
          "internalType": "bool",
          "name": "approved",
          "type": "bool"
        }
      ],
      "name": "ApprovalForAll",
      "type": "event"
    },
    {
      "anonymous": false,
      "inputs": [
        {
          "indexed": true,
          "internalType": "address",
          "name": "from",
          "type": "address"
        },
        {
          "indexed": true,
          "internalType": "address",
          "name": "to",
          "type": "address"
        },
        {
          "indexed": true,
          "internalType": "uint256",
          "name": "tokenId",
          "type": "uint256"
        }
      ],
      "name": "Transfer",
      "type": "event"
    },
    {
      "inputs": [],
      "name": "ADDRESSES_PROVIDER_V2",
      "outputs": [
        {
          "internalType": "contract IAddressesProvider",
          "name": "",
          "type": "address"
        }
      ],
      "stateMutability": "view",
      "type": "function"
    },
    {
      "inputs": [],
      "name": "APP_ID",
      "outputs": [
        {
          "internalType": "bytes16",
          "name": "",
          "type": "bytes16"
        }
      ],
      "stateMutability": "view",
      "type": "function"
    },
    {
      "inputs": [],
      "name": "IS_IMPERSONATION_MODE",
      "outputs": [
        {
          "internalType": "bool",
          "name": "",
          "type": "bool"
        }
      ],
      "stateMutability": "view",
      "type": "function"
    },
    {
      "inputs": [],
      "name": "SISMO_CONNECT_LIB_VERSION",
      "outputs": [
        {
          "internalType": "uint256",
          "name": "",
          "type": "uint256"
        }
      ],
      "stateMutability": "view",
      "type": "function"
    },
    {
      "inputs": [
        {
          "internalType": "address",
          "name": "to",
          "type": "address"
        },
        {
          "internalType": "uint256",
          "name": "tokenId",
          "type": "uint256"
        }
      ],
      "name": "approve",
      "outputs": [],
      "stateMutability": "nonpayable",
      "type": "function"
    },
    {
      "inputs": [
        {
          "internalType": "address",
          "name": "owner",
          "type": "address"
        }
      ],
      "name": "balanceOf",
      "outputs": [
        {
          "internalType": "uint256",
          "name": "",
          "type": "uint256"
        }
      ],
      "stateMutability": "view",
      "type": "function"
    },
    {
      "inputs": [
        {
          "internalType": "bool",
          "name": "isSelectableByUser",
          "type": "bool"
        }
      ],
      "name": "buildSignature",
      "outputs": [
        {
          "components": [
            {
              "internalType": "bytes",
              "name": "message",
              "type": "bytes"
            },
            {
              "internalType": "bool",
              "name": "isSelectableByUser",
              "type": "bool"
            },
            {
              "internalType": "bytes",
              "name": "extraData",
              "type": "bytes"
            }
          ],
          "internalType": "struct SignatureRequest",
          "name": "",
          "type": "tuple"
        }
      ],
      "stateMutability": "view",
      "type": "function"
    },
    {
      "inputs": [
        {
          "internalType": "bytes",
          "name": "message",
          "type": "bytes"
        },
        {
          "internalType": "bytes",
          "name": "extraData",
          "type": "bytes"
        }
      ],
      "name": "buildSignature",
      "outputs": [
        {
          "components": [
            {
              "internalType": "bytes",
              "name": "message",
              "type": "bytes"
            },
            {
              "internalType": "bool",
              "name": "isSelectableByUser",
              "type": "bool"
            },
            {
              "internalType": "bytes",
              "name": "extraData",
              "type": "bytes"
            }
          ],
          "internalType": "struct SignatureRequest",
          "name": "",
          "type": "tuple"
        }
      ],
      "stateMutability": "view",
      "type": "function"
    },
    {
      "inputs": [
        {
          "internalType": "bool",
          "name": "isSelectableByUser",
          "type": "bool"
        },
        {
          "internalType": "bytes",
          "name": "extraData",
          "type": "bytes"
        }
      ],
      "name": "buildSignature",
      "outputs": [
        {
          "components": [
            {
              "internalType": "bytes",
              "name": "message",
              "type": "bytes"
            },
            {
              "internalType": "bool",
              "name": "isSelectableByUser",
              "type": "bool"
            },
            {
              "internalType": "bytes",
              "name": "extraData",
              "type": "bytes"
            }
          ],
          "internalType": "struct SignatureRequest",
          "name": "",
          "type": "tuple"
        }
      ],
      "stateMutability": "view",
      "type": "function"
    },
    {
      "inputs": [
        {
          "internalType": "bytes",
          "name": "message",
          "type": "bytes"
        },
        {
          "internalType": "bool",
          "name": "isSelectableByUser",
          "type": "bool"
        },
        {
          "internalType": "bytes",
          "name": "extraData",
          "type": "bytes"
        }
      ],
      "name": "buildSignature",
      "outputs": [
        {
          "components": [
            {
              "internalType": "bytes",
              "name": "message",
              "type": "bytes"
            },
            {
              "internalType": "bool",
              "name": "isSelectableByUser",
              "type": "bool"
            },
            {
              "internalType": "bytes",
              "name": "extraData",
              "type": "bytes"
            }
          ],
          "internalType": "struct SignatureRequest",
          "name": "",
          "type": "tuple"
        }
      ],
      "stateMutability": "view",
      "type": "function"
    },
    {
      "inputs": [],
      "name": "config",
      "outputs": [
        {
          "internalType": "bytes16",
          "name": "appId",
          "type": "bytes16"
        },
        {
          "components": [
            {
              "internalType": "bool",
              "name": "isImpersonationMode",
              "type": "bool"
            }
          ],
          "internalType": "struct VaultConfig",
          "name": "vault",
          "type": "tuple"
        }
      ],
      "stateMutability": "view",
      "type": "function"
    },
    {
      "inputs": [
        {
          "internalType": "uint256",
          "name": "tokenId",
          "type": "uint256"
        }
      ],
      "name": "getApproved",
      "outputs": [
        {
          "internalType": "address",
          "name": "",
          "type": "address"
        }
      ],
      "stateMutability": "view",
      "type": "function"
    },
    {
      "inputs": [
        {
          "internalType": "address",
          "name": "wallet",
          "type": "address"
        }
      ],
      "name": "getOwnedTokenIds",
      "outputs": [
        {
          "internalType": "uint256[]",
          "name": "",
          "type": "uint256[]"
        }
      ],
      "stateMutability": "view",
      "type": "function"
    },
    {
      "inputs": [
        {
          "internalType": "address",
          "name": "owner",
          "type": "address"
        },
        {
          "internalType": "address",
          "name": "operator",
          "type": "address"
        }
      ],
      "name": "isApprovedForAll",
      "outputs": [
        {
          "internalType": "bool",
          "name": "",
          "type": "bool"
        }
      ],
      "stateMutability": "view",
      "type": "function"
    },
    {
      "inputs": [
        {
          "internalType": "address",
          "name": "recipient",
          "type": "address"
        },
        {
          "internalType": "uint256",
          "name": "tokenId",
          "type": "uint256"
        },
        {
          "internalType": "uint256",
          "name": "_expiry",
          "type": "uint256"
        }
      ],
      "name": "lend",
      "outputs": [],
      "stateMutability": "nonpayable",
      "type": "function"
    },
    {
      "inputs": [
        {
          "internalType": "address",
          "name": "recipient",
          "type": "address"
        },
        {
          "internalType": "bytes",
          "name": "response",
          "type": "bytes"
        }
      ],
      "name": "mint",
      "outputs": [
        {
          "internalType": "uint256",
          "name": "",
          "type": "uint256"
        }
      ],
      "stateMutability": "nonpayable",
      "type": "function"
    },
    {
      "inputs": [],
      "name": "name",
      "outputs": [
        {
          "internalType": "string",
          "name": "",
          "type": "string"
        }
      ],
      "stateMutability": "view",
      "type": "function"
    },
    {
      "inputs": [
        {
          "internalType": "uint256",
          "name": "tokenId",
          "type": "uint256"
        }
      ],
      "name": "ownerOf",
      "outputs": [
        {
          "internalType": "address",
          "name": "",
          "type": "address"
        }
      ],
      "stateMutability": "view",
      "type": "function"
    },
    {
      "inputs": [
        {
          "internalType": "uint256",
          "name": "tokenId",
          "type": "uint256"
        }
      ],
      "name": "reclaim",
      "outputs": [],
      "stateMutability": "nonpayable",
      "type": "function"
    },
    {
      "inputs": [
        {
          "internalType": "address",
          "name": "from",
          "type": "address"
        },
        {
          "internalType": "address",
          "name": "to",
          "type": "address"
        },
        {
          "internalType": "uint256",
          "name": "tokenId",
          "type": "uint256"
        }
      ],
      "name": "safeTransferFrom",
      "outputs": [],
      "stateMutability": "nonpayable",
      "type": "function"
    },
    {
      "inputs": [
        {
          "internalType": "address",
          "name": "from",
          "type": "address"
        },
        {
          "internalType": "address",
          "name": "to",
          "type": "address"
        },
        {
          "internalType": "uint256",
          "name": "tokenId",
          "type": "uint256"
        },
        {
          "internalType": "bytes",
          "name": "data",
          "type": "bytes"
        }
      ],
      "name": "safeTransferFrom",
      "outputs": [],
      "stateMutability": "nonpayable",
      "type": "function"
    },
    {
      "inputs": [
        {
          "internalType": "address",
          "name": "operator",
          "type": "address"
        },
        {
          "internalType": "bool",
          "name": "approved",
          "type": "bool"
        }
      ],
      "name": "setApprovalForAll",
      "outputs": [],
      "stateMutability": "nonpayable",
      "type": "function"
    },
    {
      "inputs": [
        {
          "internalType": "bytes4",
          "name": "interfaceId",
          "type": "bytes4"
        }
      ],
      "name": "supportsInterface",
      "outputs": [
        {
          "internalType": "bool",
          "name": "",
          "type": "bool"
        }
      ],
      "stateMutability": "view",
      "type": "function"
    },
    {
      "inputs": [],
      "name": "symbol",
      "outputs": [
        {
          "internalType": "string",
          "name": "",
          "type": "string"
        }
      ],
      "stateMutability": "view",
      "type": "function"
    },
    {
      "inputs": [
        {
          "internalType": "uint256",
          "name": "index",
          "type": "uint256"
        }
      ],
      "name": "tokenByIndex",
      "outputs": [
        {
          "internalType": "uint256",
          "name": "",
          "type": "uint256"
        }
      ],
      "stateMutability": "view",
      "type": "function"
    },
    {
      "inputs": [
        {
          "internalType": "address",
          "name": "owner",
          "type": "address"
        },
        {
          "internalType": "uint256",
          "name": "index",
          "type": "uint256"
        }
      ],
      "name": "tokenOfOwnerByIndex",
      "outputs": [
        {
          "internalType": "uint256",
          "name": "",
          "type": "uint256"
        }
      ],
      "stateMutability": "view",
      "type": "function"
    },
    {
      "inputs": [
        {
          "internalType": "uint256",
          "name": "tokenId",
          "type": "uint256"
        }
      ],
      "name": "tokenURI",
      "outputs": [
        {
          "internalType": "string",
          "name": "",
          "type": "string"
        }
      ],
      "stateMutability": "view",
      "type": "function"
    },
    {
      "inputs": [],
      "name": "totalSupply",
      "outputs": [
        {
          "internalType": "uint256",
          "name": "",
          "type": "uint256"
        }
      ],
      "stateMutability": "view",
      "type": "function"
    },
    {
      "inputs": [
        {
          "internalType": "address",
          "name": "from",
          "type": "address"
        },
        {
          "internalType": "address",
          "name": "to",
          "type": "address"
        },
        {
          "internalType": "uint256",
          "name": "tokenId",
          "type": "uint256"
        }
      ],
      "name": "transferFrom",
      "outputs": [],
      "stateMutability": "nonpayable",
      "type": "function"
    }
  ],
  "bytecode": {
    "object": "0x60806040523480156200001157600080fd5b5060405162003ff138038062003ff1833981016040819052620000349162000612565b620000546f2608144f622fd1f6c9975c290c05cd0560821b6001620004e3565b8484600062000064838262000747565b50600162000073828262000747565b50508151600f80546001600160801b03191660809290921c91909117905550602080820151516010805460ff1916911515919091179055604080518082018252601981527f7369736d6f436f6e6e65637456657269666965722d76312e3100000000000000928101929092525163349f642f60e11b8152733cd5334eb64ebbd4003b72022cc25465f1bfcee69163693ec85e9162000115919060040162000813565b602060405180830381865afa15801562000133573d6000803e3d6000fd5b505050506040513d601f19601f8201168201806040525081019062000159919062000848565b600a80546001600160a01b0319166001600160a01b0392909216919091179055604080518082018252601781527f61757468526571756573744275696c6465722d76312e310000000000000000006020820152905163349f642f60e11b8152733cd5334eb64ebbd4003b72022cc25465f1bfcee69163693ec85e91620001e3919060040162000813565b602060405180830381865afa15801562000201573d6000803e3d6000fd5b505050506040513d601f19601f8201168201806040525081019062000227919062000848565b600b80546001600160a01b0319166001600160a01b0392909216919091179055604080518082018252601881527f636c61696d526571756573744275696c6465722d76312e3100000000000000006020820152905163349f642f60e11b8152733cd5334eb64ebbd4003b72022cc25465f1bfcee69163693ec85e91620002b1919060040162000813565b602060405180830381865afa158015620002cf573d6000803e3d6000fd5b505050506040513d601f19601f82011682018060405250810190620002f5919062000848565b600c80546001600160a01b0319166001600160a01b0392909216919091179055604080518082018252601581527f7369676e61747572654275696c6465722d76312e3100000000000000000000006020820152905163349f642f60e11b8152733cd5334eb64ebbd4003b72022cc25465f1bfcee69163693ec85e916200037f919060040162000813565b602060405180830381865afa1580156200039d573d6000803e3d6000fd5b505050506040513d601f19601f82011682018060405250810190620003c3919062000848565b600d80546001600160a01b0319166001600160a01b0392909216919091179055604080518082018252601381527f726571756573744275696c6465722d76312e31000000000000000000000000006020820152905163349f642f60e11b8152733cd5334eb64ebbd4003b72022cc25465f1bfcee69163693ec85e916200044d919060040162000813565b602060405180830381865afa1580156200046b573d6000803e3d6000fd5b505050506040513d601f19601f8201168201806040525081019062000491919062000848565b600e80546001600160a01b03929092166001600160a01b03199092169190911790555060168054911515600160801b026001600160881b031990921660809390931c92909217179055506200087a9050565b6200050a604080518082018252600080825282516020818101909452908152909182015290565b506040805180820182526001600160801b03199390931683528051602080820183526000909152815180820190925291151581529082015290565b634e487b7160e01b600052604160045260246000fd5b60005b83811015620005785781810151838201526020016200055e565b50506000910152565b600082601f8301126200059357600080fd5b81516001600160401b0380821115620005b057620005b062000545565b604051601f8301601f19908116603f01168101908282118183101715620005db57620005db62000545565b81604052838152866020858801011115620005f557600080fd5b620006088460208301602089016200055b565b9695505050505050565b600080600080608085870312156200062957600080fd5b84516001600160401b03808211156200064157600080fd5b6200064f8883890162000581565b955060208701519150808211156200066657600080fd5b50620006758782880162000581565b604087015190945090506001600160801b0319811681146200069657600080fd5b60608601519092508015158114620006ad57600080fd5b939692955090935050565b600181811c90821680620006cd57607f821691505b602082108103620006ee57634e487b7160e01b600052602260045260246000fd5b50919050565b601f8211156200074257600081815260208120601f850160051c810160208610156200071d5750805b601f850160051c820191505b818110156200073e5782815560010162000729565b5050505b505050565b81516001600160401b0381111562000763576200076362000545565b6200077b81620007748454620006b8565b84620006f4565b602080601f831160018114620007b357600084156200079a5750858301515b600019600386901b1c1916600185901b1785556200073e565b600085815260208120601f198616915b82811015620007e457888601518255948401946001909101908401620007c3565b5085821015620008035787850151600019600388901b60f8161c191681555b5050505050600190811b01905550565b6020815260008251806020840152620008348160408501602087016200055b565b601f01601f19169190910160400192915050565b6000602082840312156200085b57600080fd5b81516001600160a01b03811681146200087357600080fd5b9392505050565b613767806200088a6000396000f3fe608060405234801561001057600080fd5b50600436106101cf5760003560e01c80636e01370e11610104578063b510391f116100a2578063c9512d9911610071578063c9512d991461043c578063cea8eb4e14610444578063e068970314610457578063e985e9c51461046a57600080fd5b8063b510391f146103d0578063b88d4fde146103e3578063c187bbc1146103f6578063c87b56dd1461042957600080fd5b806379502c55116100de57806379502c551461036957806395d89b41146103ad578063a183dc27146103b5578063a22cb465146103bd57600080fd5b80636e01370e146103305780637082d2031461034357806370a082311461035657600080fd5b80632f745c5911610171578063491611951161014b57806349161195146102ca5780634f6ccce7146102ea5780634fac7e41146102fd5780636352211e1461031d57600080fd5b80632f745c591461028957806342842e0e1461029c57806346916301146102af57600080fd5b8063095ea7b3116101ad578063095ea7b31461023c57806318160ddd1461025157806323b872dd146102635780632dabbeed1461027657600080fd5b806301ffc9a7146101d457806306fdde03146101fc578063081812fc14610211575b600080fd5b6101e76101e2366004611e55565b6104a6565b60405190151581526020015b60405180910390f35b6102046104b7565b6040516101f39190611ec2565b61022461021f366004611ed5565b610549565b6040516001600160a01b0390911681526020016101f3565b61024f61024a366004611f0a565b610570565b005b6008545b6040519081526020016101f3565b61024f610271366004611f34565b61068a565b61024f610284366004611ed5565b6106bb565b610255610297366004611f0a565b6107b6565b61024f6102aa366004611f34565b61084c565b610224733cd5334eb64ebbd4003b72022cc25465f1bfcee681565b6102dd6102d8366004611f7e565b610867565b6040516101f39190611fde565b6102556102f8366004611ed5565b6108f2565b61031061030b366004611ff1565b610985565b6040516101f3919061200c565b61022461032b366004611ed5565b610a8b565b6102dd61033e3660046121a1565b610aeb565b61024f610351366004612204565b610b81565b610255610364366004611ff1565b610c1f565b600f54604080516020810190915260105460ff161515815261038c9160801b9082565b604080516001600160801b03199093168352905115156020830152016101f3565b610204610ca5565b6101e7600181565b61024f6103cb366004612237565b610cb4565b6102556103de36600461226e565b610cc3565b61024f6103f13660046122b1565b610da7565b6104106f2608144f622fd1f6c9975c290c05cd0560821b81565b6040516001600160801b031990911681526020016101f3565b610204610437366004611ed5565b610ddf565b610255600281565b6102dd610452366004612318565b610e52565b6102dd610465366004612336565b610e9c565b6101e76104783660046123ad565b6001600160a01b03918216600090815260056020908152604080832093909416825291909152205460ff1690565b60006104b182610f35565b92915050565b6060600080546104c6906123e0565b80601f01602080910402602001604051908101604052809291908181526020018280546104f2906123e0565b801561053f5780601f106105145761010080835404028352916020019161053f565b820191906000526020600020905b81548152906001019060200180831161052257829003601f168201915b5050505050905090565b600061055482610f5a565b506000908152600460205260409020546001600160a01b031690565b600061057b82610a8b565b9050806001600160a01b0316836001600160a01b0316036105ed5760405162461bcd60e51b815260206004820152602160248201527f4552433732313a20617070726f76616c20746f2063757272656e74206f776e656044820152603960f91b60648201526084015b60405180910390fd5b336001600160a01b038216148061060957506106098133610478565b61067b5760405162461bcd60e51b815260206004820152603d60248201527f4552433732313a20617070726f76652063616c6c6572206973206e6f7420746f60448201527f6b656e206f776e6572206f7220617070726f76656420666f7220616c6c00000060648201526084016105e4565b6106858383610fbc565b505050565b610694338261102a565b6106b05760405162461bcd60e51b81526004016105e49061241a565b6106858383836110a8565b6000818152601360205260409020544210156106ea5760405163a8058ea960e01b815260040160405180910390fd5b60008181526014602052604081205460ff161515900361071d57604051631fada9ab60e31b815260040160405180910390fd5b6000818152601560205260409020546001600160a01b031661075257604051631f05a2bf60e11b815260040160405180910390fd5b61077c61075e82610a8b565b6000838152601560205260409020546001600160a01b0316836110a8565b60009081526013602090815260408083208390556015825280832080546001600160a01b031916905560149091529020805460ff19169055565b60006107c183610c1f565b82106108235760405162461bcd60e51b815260206004820152602b60248201527f455243373231456e756d657261626c653a206f776e657220696e646578206f7560448201526a74206f6620626f756e647360a81b60648201526084016105e4565b506001600160a01b03919091166000908152600660209081526040808320938352929052205490565b61068583838360405180602001604052806000815250610da7565b60408051606080820183528082526000602083015281830152600d549151631f6c2b9760e11b8152831515600482015290916001600160a01b031690633ed8572e906024015b600060405180830381865afa1580156108ca573d6000803e3d6000fd5b505050506040513d6000823e601f3d908101601f191682016040526104b19190810190612556565b60006108fd60085490565b82106109605760405162461bcd60e51b815260206004820152602c60248201527f455243373231456e756d657261626c653a20676c6f62616c20696e646578206f60448201526b7574206f6620626f756e647360a01b60648201526084016105e4565b600882815481106109735761097361258a565b90600052602060002001549050919050565b6060600061099283610c1f565b90506000816001600160401b038111156109ae576109ae612050565b6040519080825280602002602001820160405280156109d7578160200160208202803683370190505b50905060005b82811015610a8357604051632f745c5960e01b81526001600160a01b0386166004820152602481018290523090632f745c5990604401602060405180830381865afa158015610a30573d6000803e3d6000fd5b505050506040513d601f19601f82011682018060405250810190610a5491906125a0565b828281518110610a6657610a6661258a565b602090810291909101015280610a7b816125cf565b9150506109dd565b509392505050565b6000818152600260205260408120546001600160a01b0316806104b15760405162461bcd60e51b8152602060048201526018602482015277115490cdcc8c4e881a5b9d985b1a59081d1bdad95b88125160421b60448201526064016105e4565b60408051606080820183528082526000602083015281830152600d549151631778ed1360e21b815290916001600160a01b031690635de3b44c90610b3590869086906004016125e8565b600060405180830381865afa158015610b52573d6000803e3d6000fd5b505050506040513d6000823e601f3d908101601f19168201604052610b7a9190810190612556565b9392505050565b60008281526014602052604090205460ff161515600103610bb557604051630431aa8b60e01b815260040160405180910390fd5b428111610bd45760405162d36c8560e81b815260040160405180910390fd5b610bdf33848461068a565b6000918252601360209081526040808420929092556015815281832080546001600160a01b03191633179055601490529020805460ff1916600117905550565b60006001600160a01b038216610c895760405162461bcd60e51b815260206004820152602960248201527f4552433732313a2061646472657373207a65726f206973206e6f7420612076616044820152683634b21037bbb732b960b91b60648201526084016105e4565b506001600160a01b031660009081526003602052604090205490565b6060600180546104c6906123e0565b610cbf338383611219565b5050565b600080610ccf60115490565b601654909150600160801b900460ff1615610d8f576000610d2f84610cf460006112e7565b601654610d079060801b6001600061138c565b60408051336020820152610d2a910160405160208183030381529060405261143c565b611484565b90506000610d3d8282611562565b60008181526012602052604090205490915060ff161515600103610d7457604051630c8d9eab60e31b815260040160405180910390fd5b6000908152601260205260409020805460ff19166001179055505b610d998482611615565b610b7a601180546001019055565b610db1338361102a565b610dcd5760405162461bcd60e51b81526004016105e49061241a565b610dd9848484846117ae565b50505050565b6060610dea82610f5a565b6000610e0160408051602081019091526000815290565b90506000815111610e215760405180602001604052806000815250610b7a565b80610e2b846117e1565b604051602001610e3c92919061260d565b6040516020818303038152906040529392505050565b60408051606080820183528082526000602083015281830152600d549151631d1db46b60e21b815290916001600160a01b031690637476d1ac90610b35908690869060040161263c565b60408051606080820183528082526000602083015281830152600d549151631f785c9560e01b815290916001600160a01b031690631f785c9590610ee890879087908790600401612657565b600060405180830381865afa158015610f05573d6000803e3d6000fd5b505050506040513d6000823e601f3d908101601f19168201604052610f2d9190810190612556565b949350505050565b60006001600160e01b0319821663780e9d6360e01b14806104b157506104b182611873565b6000818152600260205260409020546001600160a01b0316610fb95760405162461bcd60e51b8152602060048201526018602482015277115490cdcc8c4e881a5b9d985b1a59081d1bdad95b88125160421b60448201526064016105e4565b50565b600081815260046020526040902080546001600160a01b0319166001600160a01b0384169081179091558190610ff182610a8b565b6001600160a01b03167f8c5be1e5ebec7d5bd14f71427d1e84f3dd0314c0f7b2291e5b200ac8c7c3b92560405160405180910390a45050565b60008061103683610a8b565b9050806001600160a01b0316846001600160a01b0316148061107d57506001600160a01b0380821660009081526005602090815260408083209388168352929052205460ff165b80610f2d5750836001600160a01b031661109684610549565b6001600160a01b031614949350505050565b826001600160a01b03166110bb82610a8b565b6001600160a01b0316146110e15760405162461bcd60e51b81526004016105e49061268e565b6001600160a01b0382166111435760405162461bcd60e51b8152602060048201526024808201527f4552433732313a207472616e7366657220746f20746865207a65726f206164646044820152637265737360e01b60648201526084016105e4565b61115083838360016118c3565b826001600160a01b031661116382610a8b565b6001600160a01b0316146111895760405162461bcd60e51b81526004016105e49061268e565b600081815260046020908152604080832080546001600160a01b03199081169091556001600160a01b0387811680865260038552838620805460001901905590871680865283862080546001019055868652600290945282852080549092168417909155905184937fddf252ad1be2c89b69c2b068fc378daa952ba7f163c4a11628f55a4df523b3ef91a4505050565b816001600160a01b0316836001600160a01b03160361127a5760405162461bcd60e51b815260206004820152601960248201527f4552433732313a20617070726f766520746f2063616c6c65720000000000000060448201526064016105e4565b6001600160a01b03838116600081815260056020908152604080832094871680845294825291829020805460ff191686151590811790915591519182527f17307eab39ab6107e8899845ad3d59bd9653f200f220920489ca2b5937696c31910160405180910390a3505050565b6040805160c0810182526000808252602082018190528183018190526060808301829052608083019190915260a0820152600b549151633a0ba6ff60e01b815290916001600160a01b031690633a0ba6ff906113479085906004016126fd565b600060405180830381865afa158015611364573d6000803e3d6000fd5b505050506040513d6000823e601f3d908101601f191682016040526104b191908101906127b5565b6040805160e08101825260008082526020820181905281830181905260608083018290526080830182905260a083019190915260c0820152600c54915163204fbc4d60e11b815290916001600160a01b03169063409f789a906113f7908790879087906004016127f9565b600060405180830381865afa158015611414573d6000803e3d6000fd5b505050506040513d6000823e601f3d908101601f19168201604052610f2d91908101906128eb565b60408051606080820183528082526000602083015281830152600d549151631a0d7ccb60e21b815290916001600160a01b031690636835f32c906108ad908590600401611ec2565b6040805160c0810182526000808252602082018190529181019190915260608082018190526080820181905260a08201526000858060200190518101906114cb9190612b57565b905060006114da8686866118cf565b600a546040516312b037ff60e01b81529192506001600160a01b0316906312b037ff906115109085908590600f90600401612f8c565b6000604051808303816000875af115801561152f573d6000803e3d6000fd5b505050506040513d6000823e601f3d908101601f191682016040526115579190810190613398565b979650505050505050565b6000805b8360600151518110156115f957826005811115611585576115856126d3565b8460600151828151811061159b5761159b61258a565b60200260200101516000015160058111156115b8576115b86126d3565b036115e757836060015181815181106115d3576115d361258a565b6020026020010151604001519150506104b1565b806115f1816125cf565b915050611566565b508160405163267ac2cf60e01b81526004016105e491906126fd565b6001600160a01b03821661166b5760405162461bcd60e51b815260206004820181905260248201527f4552433732313a206d696e7420746f20746865207a65726f206164647265737360448201526064016105e4565b6000818152600260205260409020546001600160a01b0316156116d05760405162461bcd60e51b815260206004820152601c60248201527f4552433732313a20746f6b656e20616c7265616479206d696e7465640000000060448201526064016105e4565b6116de6000838360016118c3565b6000818152600260205260409020546001600160a01b0316156117435760405162461bcd60e51b815260206004820152601c60248201527f4552433732313a20746f6b656e20616c7265616479206d696e7465640000000060448201526064016105e4565b6001600160a01b038216600081815260036020908152604080832080546001019055848352600290915280822080546001600160a01b0319168417905551839291907fddf252ad1be2c89b69c2b068fc378daa952ba7f163c4a11628f55a4df523b3ef908290a45050565b6117b98484846110a8565b6117c584848484611950565b610dd95760405162461bcd60e51b81526004016105e490613478565b606060006117ee83611a4e565b60010190506000816001600160401b0381111561180d5761180d612050565b6040519080825280601f01601f191660200182016040528015611837576020820181803683370190505b5090508181016020015b600019016f181899199a1a9b1b9c1cb0b131b232b360811b600a86061a8153600a850494508461184157509392505050565b60006001600160e01b031982166380ac58cd60e01b14806118a457506001600160e01b03198216635b5e139f60e01b145b806104b157506301ffc9a760e01b6001600160e01b03198316146104b1565b610dd984848484611b26565b6118d7611dea565b600e54604051637969f8fb60e11b81526001600160a01b039091169063f2d3f1f69061190b908790879087906004016134ca565b600060405180830381865afa158015611928573d6000803e3d6000fd5b505050506040513d6000823e601f3d908101601f19168201604052610f2d9190810190613582565b60006001600160a01b0384163b15611a4657604051630a85bd0160e11b81526001600160a01b0385169063150b7a02906119949033908990889088906004016136b8565b6020604051808303816000875af19250505080156119cf575060408051601f3d908101601f191682019092526119cc918101906136eb565b60015b611a2c573d8080156119fd576040519150601f19603f3d011682016040523d82523d6000602084013e611a02565b606091505b508051600003611a245760405162461bcd60e51b81526004016105e490613478565b805181602001fd5b6001600160e01b031916630a85bd0160e11b149050610f2d565b506001610f2d565b60008072184f03e93ff9f4daa797ed6e38ed64bf6a1f0160401b8310611a8d5772184f03e93ff9f4daa797ed6e38ed64bf6a1f0160401b830492506040015b6d04ee2d6d415b85acef81000000008310611ab9576d04ee2d6d415b85acef8100000000830492506020015b662386f26fc100008310611ad757662386f26fc10000830492506010015b6305f5e1008310611aef576305f5e100830492506008015b6127108310611b0357612710830492506004015b60648310611b15576064830492506002015b600a83106104b15760010192915050565b6001811115611b955760405162461bcd60e51b815260206004820152603560248201527f455243373231456e756d657261626c653a20636f6e7365637574697665207472604482015274185b9cd9995c9cc81b9bdd081cdd5c1c1bdc9d1959605a1b60648201526084016105e4565b816001600160a01b038516611bf157611bec81600880546000838152600960205260408120829055600182018355919091527ff3f7a9fe364faab93b216da50a3214154f22a0a2b415b23a84c8169e8b636ee30155565b611c14565b836001600160a01b0316856001600160a01b031614611c1457611c148582611c5a565b6001600160a01b038416611c3057611c2b81611cf7565b611c53565b846001600160a01b0316846001600160a01b031614611c5357611c538482611da6565b5050505050565b60006001611c6784610c1f565b611c719190613708565b600083815260076020526040902054909150808214611cc4576001600160a01b03841660009081526006602090815260408083208584528252808320548484528184208190558352600790915290208190555b5060009182526007602090815260408084208490556001600160a01b039094168352600681528383209183525290812055565b600854600090611d0990600190613708565b60008381526009602052604081205460088054939450909284908110611d3157611d3161258a565b906000526020600020015490508060088381548110611d5257611d5261258a565b6000918252602080832090910192909255828152600990915260408082208490558582528120556008805480611d8a57611d8a61371b565b6001900381819060005260206000200160009055905550505050565b6000611db183610c1f565b6001600160a01b039093166000908152600660209081526040808320868452825280832085905593825260079052919091209190915550565b604051806080016040528060006001600160801b03191681526020016060815260200160608152602001611e3a604051806060016040528060608152602001600015158152602001606081525090565b905290565b6001600160e01b031981168114610fb957600080fd5b600060208284031215611e6757600080fd5b8135610b7a81611e3f565b60005b83811015611e8d578181015183820152602001611e75565b50506000910152565b60008151808452611eae816020860160208601611e72565b601f01601f19169290920160200192915050565b602081526000610b7a6020830184611e96565b600060208284031215611ee757600080fd5b5035919050565b80356001600160a01b0381168114611f0557600080fd5b919050565b60008060408385031215611f1d57600080fd5b611f2683611eee565b946020939093013593505050565b600080600060608486031215611f4957600080fd5b611f5284611eee565b9250611f6060208501611eee565b9150604084013590509250925092565b8015158114610fb957600080fd5b600060208284031215611f9057600080fd5b8135610b7a81611f70565b6000815160608452611fb06060850182611e96565b905060208301511515602085015260408301518482036040860152611fd58282611e96565b95945050505050565b602081526000610b7a6020830184611f9b565b60006020828403121561200357600080fd5b610b7a82611eee565b6020808252825182820181905260009190848201906040850190845b8181101561204457835183529284019291840191600101612028565b50909695505050505050565b634e487b7160e01b600052604160045260246000fd5b60405160c081016001600160401b038111828210171561208857612088612050565b60405290565b60405160e081016001600160401b038111828210171561208857612088612050565b60405160a081016001600160401b038111828210171561208857612088612050565b604051608081016001600160401b038111828210171561208857612088612050565b604051601f8201601f191681016001600160401b038111828210171561211c5761211c612050565b604052919050565b60006001600160401b0382111561213d5761213d612050565b50601f01601f191660200190565b600082601f83011261215c57600080fd5b813561216f61216a82612124565b6120f4565b81815284602083860101111561218457600080fd5b816020850160208301376000918101602001919091529392505050565b600080604083850312156121b457600080fd5b82356001600160401b03808211156121cb57600080fd5b6121d78683870161214b565b935060208501359150808211156121ed57600080fd5b506121fa8582860161214b565b9150509250929050565b60008060006060848603121561221957600080fd5b61222284611eee565b95602085013595506040909401359392505050565b6000806040838503121561224a57600080fd5b61225383611eee565b9150602083013561226381611f70565b809150509250929050565b6000806040838503121561228157600080fd5b61228a83611eee565b915060208301356001600160401b038111156122a557600080fd5b6121fa8582860161214b565b600080600080608085870312156122c757600080fd5b6122d085611eee565b93506122de60208601611eee565b92506040850135915060608501356001600160401b0381111561230057600080fd5b61230c8782880161214b565b91505092959194509250565b6000806040838503121561232b57600080fd5b823561228a81611f70565b60008060006060848603121561234b57600080fd5b83356001600160401b038082111561236257600080fd5b61236e8783880161214b565b94506020860135915061238082611f70565b9092506040850135908082111561239657600080fd5b506123a38682870161214b565b9150509250925092565b600080604083850312156123c057600080fd5b6123c983611eee565b91506123d760208401611eee565b90509250929050565b600181811c908216806123f457607f821691505b60208210810361241457634e487b7160e01b600052602260045260246000fd5b50919050565b6020808252602d908201527f4552433732313a2063616c6c6572206973206e6f7420746f6b656e206f776e6560408201526c1c881bdc88185c1c1c9bdd9959609a1b606082015260800190565b600082601f83011261247857600080fd5b815161248661216a82612124565b81815284602083860101111561249b57600080fd5b610f2d826020830160208701611e72565b8051611f0581611f70565b6000606082840312156124c957600080fd5b604051606081016001600160401b0382821081831117156124ec576124ec612050565b81604052829350845191508082111561250457600080fd5b61251086838701612467565b83526020850151915061252282611f70565b816020840152604085015191508082111561253c57600080fd5b5061254985828601612467565b6040830152505092915050565b60006020828403121561256857600080fd5b81516001600160401b0381111561257e57600080fd5b610f2d848285016124b7565b634e487b7160e01b600052603260045260246000fd5b6000602082840312156125b257600080fd5b5051919050565b634e487b7160e01b600052601160045260246000fd5b6000600182016125e1576125e16125b9565b5060010190565b6040815260006125fb6040830185611e96565b8281036020840152611fd58185611e96565b6000835161261f818460208801611e72565b835190830190612633818360208801611e72565b01949350505050565b8215158152604060208201526000610f2d6040830184611e96565b60608152600061266a6060830186611e96565b841515602084015282810360408401526126848185611e96565b9695505050505050565b60208082526025908201527f4552433732313a207472616e736665722066726f6d20696e636f72726563742060408201526437bbb732b960d91b606082015260800190565b634e487b7160e01b600052602160045260246000fd5b600681106126f9576126f96126d3565b9052565b602081016104b182846126e9565b805160068110611f0557600080fd5b600060c0828403121561272c57600080fd5b612734612066565b905061273f8261270b565b815260208201516020820152604082015161275981611f70565b6040820152606082015161276c81611f70565b6060820152608082015161277f81611f70565b608082015260a08201516001600160401b0381111561279d57600080fd5b6127a984828501612467565b60a08301525092915050565b6000602082840312156127c757600080fd5b81516001600160401b038111156127dd57600080fd5b610f2d8482850161271a565b600581106126f9576126f96126d3565b6001600160801b0319841681526020810183905260608101610f2d60408301846127e9565b805160058110611f0557600080fd5b80516001600160801b031981168114611f0557600080fd5b600060e0828403121561285757600080fd5b61285f61208e565b905061286a8261281e565b81526128786020830161282d565b60208201526128896040830161282d565b6040820152606082015160608201526128a4608083016124ac565b60808201526128b560a083016124ac565b60a082015260c08201516001600160401b038111156128d357600080fd5b6128df84828501612467565b60c08301525092915050565b6000602082840312156128fd57600080fd5b81516001600160401b0381111561291357600080fd5b610f2d84828501612845565b60006001600160401b0382111561293857612938612050565b5060051b60200190565b600082601f83011261295357600080fd5b8151602061296361216a8361291f565b82815260059290921b8401810191818101908684111561298257600080fd5b8286015b84811015612a405780516001600160401b03808211156129a65760008081fd5b9088019060a0828b03601f19018113156129c05760008081fd5b6129c86120b0565b6129d388850161270b565b81526040808501516129e481611f70565b828a01526060858101516129f781611f70565b8083850152506080915081860151818401525082850151925083831115612a1e5760008081fd5b612a2c8d8a85880101612467565b908201528652505050918301918301612986565b509695505050505050565b600082601f830112612a5c57600080fd5b81516020612a6c61216a8361291f565b82815260059290921b84018101918181019086841115612a8b57600080fd5b8286015b84811015612a405780516001600160401b0380821115612aaf5760008081fd5b9088019060c0828b03601f1901811315612ac95760008081fd5b612ad1612066565b612adc88850161281e565b81526040612aeb81860161282d565b898301526060612afc81870161282d565b828401526080915081860151612b1181611f70565b9083015260a08581015182840152928501519284841115612b3457600091508182fd5b612b428e8b86890101612467565b90830152508652505050918301918301612a8f565b60006020808385031215612b6a57600080fd5b82516001600160401b0380821115612b8157600080fd5b9084019060a08287031215612b9557600080fd5b612b9d6120b0565b612ba68361282d565b8152612bb384840161282d565b8482015260408301516040820152606083015182811115612bd357600080fd5b612bdf88828601612467565b60608301525060808084015183811115612bf857600080fd5b80850194505087601f850112612c0d57600080fd5b8351612c1b61216a8261291f565b81815260059190911b8501860190868101908a831115612c3a57600080fd5b8787015b83811015612d2257805187811115612c565760008081fd5b880160a0818e03601f19011215612c6d5760008081fd5b612c756120b0565b8a82015189811115612c875760008081fd5b612c958f8d83860101612942565b825250604082015189811115612cab5760008081fd5b612cb98f8d83860101612a4b565b8c83015250606082015160408201528682015189811115612cda5760008081fd5b612ce88f8d83860101612467565b60608301525060a082015189811115612d015760008081fd5b612d0f8f8d83860101612467565b8289015250845250918801918801612c3e565b50928401929092525090979650505050505050565b600081518084526020808501808196508360051b8101915082860160005b85811015612dd4578284038952815160c0612d718683516127e9565b818701516001600160801b031990811687890152604080840151909116908701526060808301511515908701526080808301519087015260a091820151918601819052612dc081870183611e96565b9a87019a9550505090840190600101612d55565b5091979650505050505050565b612dec8282516126e9565b60208101516020830152604081015115156040830152606081015115156060830152608081015115156080830152600060a082015160c060a0850152610f2d60c0850182611e96565b612e408282516127e9565b600060208201516001600160801b0319808216602086015280604085015116604086015250506060820151606084015260808201511515608084015260a0820151151560a084015260c082015160e060c0850152610f2d60e0850182611e96565b600081518084526020808501808196508360051b8101915082860160005b85811015612dd4578284038952612ed7848351612e35565b98850198935090840190600101612ebf565b6000608083016001600160801b0319835116845260208084015160808287015282815180855260a08801915060a08160051b8901019450838301925060005b81811015612f5657609f19898703018352612f44868551612de1565b95509284019291840191600101612f28565b505050505060408301518482036040860152612f728282612ea1565b91505060608301518482036060860152611fd58282611f9b565b600060808083526001600160801b0319808751168285015260208088015182811660a087015250604088015191508160c08601526060880151915060a060e0860152612fdc610120860183611e96565b88840151868203607f1901610100880152805180835291935082019082840190600581901b8501840160005b8281101561311557601f198783030184528451805160a0808552815190850181905260c0600582901b86018101928a01919086019060005b818110156130aa5760bf19888603018352835161305e8682516126e9565b8c81015115158d870152604081015115156040870152606081015160608701528e810151905060a08f87015261309760a0870182611e96565b955050928b0192918b0191600101613040565b5050505087820151848203898601526130c38282612d37565b91505060408201516040850152606082015184820360608601526130e78282611e96565b9150508982015191508381038a8501526131018183611e96565b968801969588019593505050600101613008565b50888103858a0152613127818c612ee9565b975050505050505050610f2d6040830184805460801b6001600160801b03191682526001015460ff161515602090910152565b600082601f83011261316b57600080fd5b8151602061317b61216a8361291f565b82815260059290921b8401810191818101908684111561319a57600080fd5b8286015b84811015612a405780516001600160401b03808211156131be5760008081fd5b9088019060a0828b03601f19018113156131d85760008081fd5b6131e06120b0565b6131eb88850161270b565b81526040808501516131fc81611f70565b808a84015250606080860151828401526080915081860151858111156132225760008081fd5b6132308f8c838a0101612467565b8285015250508285015192508383111561324a5760008081fd5b6132588d8a85880101612467565b90820152865250505091830191830161319e565b600082601f83011261327d57600080fd5b8151602061328d61216a8361291f565b82815260059290921b840181019181810190868411156132ac57600080fd5b8286015b84811015612a405780516001600160401b03808211156132d05760008081fd5b9088019060e0828b03601f19018113156132ea5760008081fd5b6132f261208e565b6132fd88850161281e565b8152604061330c81860161282d565b89830152606061331d81870161282d565b828401526080915081860151818401525060a080860151858111156133425760008081fd5b6133508f8c838a0101612467565b838501525060c09150818601518184015250828501519250838311156133765760008081fd5b6133848d8a85880101612467565b9082015286525050509183019183016132b0565b6000602082840312156133aa57600080fd5b81516001600160401b03808211156133c157600080fd5b9083019060c082860312156133d557600080fd5b6133dd612066565b6133e68361282d565b81526133f46020840161282d565b60208201526040830151604082015260608301518281111561341557600080fd5b6134218782860161315a565b60608301525060808301518281111561343957600080fd5b6134458782860161326c565b60808301525060a08301518281111561345d57600080fd5b61346987828601612467565b60a08301525095945050505050565b60208082526032908201527f4552433732313a207472616e7366657220746f206e6f6e20455243373231526560408201527131b2b4bb32b91034b6b83632b6b2b73a32b960711b606082015260800190565b6060815260006134dd6060830186612de1565b82810360208401526134ef8186612e35565b905082810360408401526126848185611f9b565b600082601f83011261351457600080fd5b8151602061352461216a8361291f565b82815260059290921b8401810191818101908684111561354357600080fd5b8286015b84811015612a405780516001600160401b038111156135665760008081fd5b6135748986838b0101612845565b845250918301918301613547565b6000602080838503121561359557600080fd5b82516001600160401b03808211156135ac57600080fd5b90840190608082870312156135c057600080fd5b6135c86120d2565b6135d18361282d565b815283830151828111156135e457600080fd5b8301601f810188136135f557600080fd5b805161360361216a8261291f565b81815260059190911b8201860190868101908a83111561362257600080fd5b8784015b8381101561365a5780518781111561363e5760008081fd5b61364c8d8b8389010161271a565b845250918801918801613626565b50808886015250505050604083015193508184111561367857600080fd5b61368487858501613503565b6040820152606083015193508184111561369d57600080fd5b6136a9878585016124b7565b60608201529695505050505050565b6001600160a01b038581168252841660208201526040810183905260806060820181905260009061268490830184611e96565b6000602082840312156136fd57600080fd5b8151610b7a81611e3f565b818103818111156104b1576104b16125b9565b634e487b7160e01b600052603160045260246000fdfea2646970667358221220c405d562fcb350b5587589c56aebbe69876ac55d63237e2e61d3c793ed9be93d64736f6c63430008140033",
    "linkReferences": {}
  },
  "methodIdentifiers": {
    "ADDRESSES_PROVIDER_V2()": "46916301",
    "APP_ID()": "c187bbc1",
    "IS_IMPERSONATION_MODE()": "a183dc27",
    "SISMO_CONNECT_LIB_VERSION()": "c9512d99",
    "approve(address,uint256)": "095ea7b3",
    "balanceOf(address)": "70a08231",
    "buildSignature(bool)": "49161195",
    "buildSignature(bool,bytes)": "cea8eb4e",
    "buildSignature(bytes,bool,bytes)": "e0689703",
    "buildSignature(bytes,bytes)": "6e01370e",
    "config()": "79502c55",
    "getApproved(uint256)": "081812fc",
    "getOwnedTokenIds(address)": "4fac7e41",
    "isApprovedForAll(address,address)": "e985e9c5",
    "lend(address,uint256,uint256)": "7082d203",
    "mint(address,bytes)": "b510391f",
    "name()": "06fdde03",
    "ownerOf(uint256)": "6352211e",
    "reclaim(uint256)": "2dabbeed",
    "safeTransferFrom(address,address,uint256)": "42842e0e",
    "safeTransferFrom(address,address,uint256,bytes)": "b88d4fde",
    "setApprovalForAll(address,bool)": "a22cb465",
    "supportsInterface(bytes4)": "01ffc9a7",
    "symbol()": "95d89b41",
    "tokenByIndex(uint256)": "4f6ccce7",
    "tokenOfOwnerByIndex(address,uint256)": "2f745c59",
    "tokenURI(uint256)": "c87b56dd",
    "totalSupply()": "18160ddd",
    "transferFrom(address,address,uint256)": "23b872dd"
  },
  "id": 44
}