{
  "abi": [
    {
      "inputs": [],
      "name": "DEFAULT_NAMESPACE",
      "outputs": [
        {
          "internalType": "bytes16",
          "name": "",
          "type": "bytes16"
        }
      ],
      "stateMutability": "view",
      "type": "function"
    },
    {
      "inputs": [
        {
          "components": [
            {
              "internalType": "enum ClaimType",
              "name": "claimType",
              "type": "uint8"
            },
            {
              "internalType": "bytes16",
              "name": "groupId",
              "type": "bytes16"
            },
            {
              "internalType": "bytes16",
              "name": "groupTimestamp",
              "type": "bytes16"
            },
            {
              "internalType": "uint256",
              "name": "value",
              "type": "uint256"
            },
            {
              "internalType": "bool",
              "name": "isOptional",
              "type": "bool"
            },
            {
              "internalType": "bool",
              "name": "isSelectableByUser",
              "type": "bool"
            },
            {
              "internalType": "bytes",
              "name": "extraData",
              "type": "bytes"
            }
          ],
          "internalType": "struct ClaimRequest",
          "name": "claim",
          "type": "tuple"
        },
        {
          "internalType": "bytes16",
          "name": "namespace",
          "type": "bytes16"
        }
      ],
      "name": "build",
      "outputs": [
        {
          "components": [
            {
              "internalType": "bytes16",
              "name": "namespace",
              "type": "bytes16"
            },
            {
              "components": [
                {
                  "internalType": "enum AuthType",
                  "name": "authType",
                  "type": "uint8"
                },
                {
                  "internalType": "uint256",
                  "name": "userId",
                  "type": "uint256"
                },
                {
                  "internalType": "bool",
                  "name": "isAnon",
                  "type": "bool"
                },
                {
                  "internalType": "bool",
                  "name": "isOptional",
                  "type": "bool"
                },
                {
                  "internalType": "bool",
                  "name": "isSelectableByUser",
                  "type": "bool"
                },
                {
                  "internalType": "bytes",
                  "name": "extraData",
                  "type": "bytes"
                }
              ],
              "internalType": "struct AuthRequest[]",
              "name": "auths",
              "type": "tuple[]"
            },
            {
              "components": [
                {
                  "internalType": "enum ClaimType",
                  "name": "claimType",
                  "type": "uint8"
                },
                {
                  "internalType": "bytes16",
                  "name": "groupId",
                  "type": "bytes16"
                },
                {
                  "internalType": "bytes16",
                  "name": "groupTimestamp",
                  "type": "bytes16"
                },
                {
                  "internalType": "uint256",
                  "name": "value",
                  "type": "uint256"
                },
                {
                  "internalType": "bool",
                  "name": "isOptional",
                  "type": "bool"
                },
                {
                  "internalType": "bool",
                  "name": "isSelectableByUser",
                  "type": "bool"
                },
                {
                  "internalType": "bytes",
                  "name": "extraData",
                  "type": "bytes"
                }
              ],
              "internalType": "struct ClaimRequest[]",
              "name": "claims",
              "type": "tuple[]"
            },
            {
              "components": [
                {
                  "internalType": "bytes",
                  "name": "message",
                  "type": "bytes"
                },
                {
                  "internalType": "bool",
                  "name": "isSelectableByUser",
                  "type": "bool"
                },
                {
                  "internalType": "bytes",
                  "name": "extraData",
                  "type": "bytes"
                }
              ],
              "internalType": "struct SignatureRequest",
              "name": "signature",
              "type": "tuple"
            }
          ],
          "internalType": "struct SismoConnectRequest",
          "name": "",
          "type": "tuple"
        }
      ],
      "stateMutability": "view",
      "type": "function"
    },
    {
      "inputs": [
        {
          "components": [
            {
              "internalType": "enum ClaimType",
              "name": "claimType",
              "type": "uint8"
            },
            {
              "internalType": "bytes16",
              "name": "groupId",
              "type": "bytes16"
            },
            {
              "internalType": "bytes16",
              "name": "groupTimestamp",
              "type": "bytes16"
            },
            {
              "internalType": "uint256",
              "name": "value",
              "type": "uint256"
            },
            {
              "internalType": "bool",
              "name": "isOptional",
              "type": "bool"
            },
            {
              "internalType": "bool",
              "name": "isSelectableByUser",
              "type": "bool"
            },
            {
              "internalType": "bytes",
              "name": "extraData",
              "type": "bytes"
            }
          ],
          "internalType": "struct ClaimRequest",
          "name": "claim",
          "type": "tuple"
        }
      ],
      "name": "build",
      "outputs": [
        {
          "components": [
            {
              "internalType": "bytes16",
              "name": "namespace",
              "type": "bytes16"
            },
            {
              "components": [
                {
                  "internalType": "enum AuthType",
                  "name": "authType",
                  "type": "uint8"
                },
                {
                  "internalType": "uint256",
                  "name": "userId",
                  "type": "uint256"
                },
                {
                  "internalType": "bool",
                  "name": "isAnon",
                  "type": "bool"
                },
                {
                  "internalType": "bool",
                  "name": "isOptional",
                  "type": "bool"
                },
                {
                  "internalType": "bool",
                  "name": "isSelectableByUser",
                  "type": "bool"
                },
                {
                  "internalType": "bytes",
                  "name": "extraData",
                  "type": "bytes"
                }
              ],
              "internalType": "struct AuthRequest[]",
              "name": "auths",
              "type": "tuple[]"
            },
            {
              "components": [
                {
                  "internalType": "enum ClaimType",
                  "name": "claimType",
                  "type": "uint8"
                },
                {
                  "internalType": "bytes16",
                  "name": "groupId",
                  "type": "bytes16"
                },
                {
                  "internalType": "bytes16",
                  "name": "groupTimestamp",
                  "type": "bytes16"
                },
                {
                  "internalType": "uint256",
                  "name": "value",
                  "type": "uint256"
                },
                {
                  "internalType": "bool",
                  "name": "isOptional",
                  "type": "bool"
                },
                {
                  "internalType": "bool",
                  "name": "isSelectableByUser",
                  "type": "bool"
                },
                {
                  "internalType": "bytes",
                  "name": "extraData",
                  "type": "bytes"
                }
              ],
              "internalType": "struct ClaimRequest[]",
              "name": "claims",
              "type": "tuple[]"
            },
            {
              "components": [
                {
                  "internalType": "bytes",
                  "name": "message",
                  "type": "bytes"
                },
                {
                  "internalType": "bool",
                  "name": "isSelectableByUser",
                  "type": "bool"
                },
                {
                  "internalType": "bytes",
                  "name": "extraData",
                  "type": "bytes"
                }
              ],
              "internalType": "struct SignatureRequest",
              "name": "signature",
              "type": "tuple"
            }
          ],
          "internalType": "struct SismoConnectRequest",
          "name": "",
          "type": "tuple"
        }
      ],
      "stateMutability": "view",
      "type": "function"
    },
    {
      "inputs": [
        {
          "components": [
            {
              "internalType": "enum AuthType",
              "name": "authType",
              "type": "uint8"
            },
            {
              "internalType": "uint256",
              "name": "userId",
              "type": "uint256"
            },
            {
              "internalType": "bool",
              "name": "isAnon",
              "type": "bool"
            },
            {
              "internalType": "bool",
              "name": "isOptional",
              "type": "bool"
            },
            {
              "internalType": "bool",
              "name": "isSelectableByUser",
              "type": "bool"
            },
            {
              "internalType": "bytes",
              "name": "extraData",
              "type": "bytes"
            }
          ],
          "internalType": "struct AuthRequest",
          "name": "auth",
          "type": "tuple"
        },
        {
          "components": [
            {
              "internalType": "bytes",
              "name": "message",
              "type": "bytes"
            },
            {
              "internalType": "bool",
              "name": "isSelectableByUser",
              "type": "bool"
            },
            {
              "internalType": "bytes",
              "name": "extraData",
              "type": "bytes"
            }
          ],
          "internalType": "struct SignatureRequest",
          "name": "signature",
          "type": "tuple"
        },
        {
          "internalType": "bytes16",
          "name": "namespace",
          "type": "bytes16"
        }
      ],
      "name": "build",
      "outputs": [
        {
          "components": [
            {
              "internalType": "bytes16",
              "name": "namespace",
              "type": "bytes16"
            },
            {
              "components": [
                {
                  "internalType": "enum AuthType",
                  "name": "authType",
                  "type": "uint8"
                },
                {
                  "internalType": "uint256",
                  "name": "userId",
                  "type": "uint256"
                },
                {
                  "internalType": "bool",
                  "name": "isAnon",
                  "type": "bool"
                },
                {
                  "internalType": "bool",
                  "name": "isOptional",
                  "type": "bool"
                },
                {
                  "internalType": "bool",
                  "name": "isSelectableByUser",
                  "type": "bool"
                },
                {
                  "internalType": "bytes",
                  "name": "extraData",
                  "type": "bytes"
                }
              ],
              "internalType": "struct AuthRequest[]",
              "name": "auths",
              "type": "tuple[]"
            },
            {
              "components": [
                {
                  "internalType": "enum ClaimType",
                  "name": "claimType",
                  "type": "uint8"
                },
                {
                  "internalType": "bytes16",
                  "name": "groupId",
                  "type": "bytes16"
                },
                {
                  "internalType": "bytes16",
                  "name": "groupTimestamp",
                  "type": "bytes16"
                },
                {
                  "internalType": "uint256",
                  "name": "value",
                  "type": "uint256"
                },
                {
                  "internalType": "bool",
                  "name": "isOptional",
                  "type": "bool"
                },
                {
                  "internalType": "bool",
                  "name": "isSelectableByUser",
                  "type": "bool"
                },
                {
                  "internalType": "bytes",
                  "name": "extraData",
                  "type": "bytes"
                }
              ],
              "internalType": "struct ClaimRequest[]",
              "name": "claims",
              "type": "tuple[]"
            },
            {
              "components": [
                {
                  "internalType": "bytes",
                  "name": "message",
                  "type": "bytes"
                },
                {
                  "internalType": "bool",
                  "name": "isSelectableByUser",
                  "type": "bool"
                },
                {
                  "internalType": "bytes",
                  "name": "extraData",
                  "type": "bytes"
                }
              ],
              "internalType": "struct SignatureRequest",
              "name": "signature",
              "type": "tuple"
            }
          ],
          "internalType": "struct SismoConnectRequest",
          "name": "",
          "type": "tuple"
        }
      ],
      "stateMutability": "pure",
      "type": "function"
    },
    {
      "inputs": [
        {
          "components": [
            {
              "internalType": "enum AuthType",
              "name": "authType",
              "type": "uint8"
            },
            {
              "internalType": "uint256",
              "name": "userId",
              "type": "uint256"
            },
            {
              "internalType": "bool",
              "name": "isAnon",
              "type": "bool"
            },
            {
              "internalType": "bool",
              "name": "isOptional",
              "type": "bool"
            },
            {
              "internalType": "bool",
              "name": "isSelectableByUser",
              "type": "bool"
            },
            {
              "internalType": "bytes",
              "name": "extraData",
              "type": "bytes"
            }
          ],
          "internalType": "struct AuthRequest[]",
          "name": "auths",
          "type": "tuple[]"
        }
      ],
      "name": "build",
      "outputs": [
        {
          "components": [
            {
              "internalType": "bytes16",
              "name": "namespace",
              "type": "bytes16"
            },
            {
              "components": [
                {
                  "internalType": "enum AuthType",
                  "name": "authType",
                  "type": "uint8"
                },
                {
                  "internalType": "uint256",
                  "name": "userId",
                  "type": "uint256"
                },
                {
                  "internalType": "bool",
                  "name": "isAnon",
                  "type": "bool"
                },
                {
                  "internalType": "bool",
                  "name": "isOptional",
                  "type": "bool"
                },
                {
                  "internalType": "bool",
                  "name": "isSelectableByUser",
                  "type": "bool"
                },
                {
                  "internalType": "bytes",
                  "name": "extraData",
                  "type": "bytes"
                }
              ],
              "internalType": "struct AuthRequest[]",
              "name": "auths",
              "type": "tuple[]"
            },
            {
              "components": [
                {
                  "internalType": "enum ClaimType",
                  "name": "claimType",
                  "type": "uint8"
                },
                {
                  "internalType": "bytes16",
                  "name": "groupId",
                  "type": "bytes16"
                },
                {
                  "internalType": "bytes16",
                  "name": "groupTimestamp",
                  "type": "bytes16"
                },
                {
                  "internalType": "uint256",
                  "name": "value",
                  "type": "uint256"
                },
                {
                  "internalType": "bool",
                  "name": "isOptional",
                  "type": "bool"
                },
                {
                  "internalType": "bool",
                  "name": "isSelectableByUser",
                  "type": "bool"
                },
                {
                  "internalType": "bytes",
                  "name": "extraData",
                  "type": "bytes"
                }
              ],
              "internalType": "struct ClaimRequest[]",
              "name": "claims",
              "type": "tuple[]"
            },
            {
              "components": [
                {
                  "internalType": "bytes",
                  "name": "message",
                  "type": "bytes"
                },
                {
                  "internalType": "bool",
                  "name": "isSelectableByUser",
                  "type": "bool"
                },
                {
                  "internalType": "bytes",
                  "name": "extraData",
                  "type": "bytes"
                }
              ],
              "internalType": "struct SignatureRequest",
              "name": "signature",
              "type": "tuple"
            }
          ],
          "internalType": "struct SismoConnectRequest",
          "name": "",
          "type": "tuple"
        }
      ],
      "stateMutability": "view",
      "type": "function"
    },
    {
      "inputs": [
        {
          "components": [
            {
              "internalType": "enum ClaimType",
              "name": "claimType",
              "type": "uint8"
            },
            {
              "internalType": "bytes16",
              "name": "groupId",
              "type": "bytes16"
            },
            {
              "internalType": "bytes16",
              "name": "groupTimestamp",
              "type": "bytes16"
            },
            {
              "internalType": "uint256",
              "name": "value",
              "type": "uint256"
            },
            {
              "internalType": "bool",
              "name": "isOptional",
              "type": "bool"
            },
            {
              "internalType": "bool",
              "name": "isSelectableByUser",
              "type": "bool"
            },
            {
              "internalType": "bytes",
              "name": "extraData",
              "type": "bytes"
            }
          ],
          "internalType": "struct ClaimRequest[]",
          "name": "claims",
          "type": "tuple[]"
        },
        {
          "components": [
            {
              "internalType": "bytes",
              "name": "message",
              "type": "bytes"
            },
            {
              "internalType": "bool",
              "name": "isSelectableByUser",
              "type": "bool"
            },
            {
              "internalType": "bytes",
              "name": "extraData",
              "type": "bytes"
            }
          ],
          "internalType": "struct SignatureRequest",
          "name": "signature",
          "type": "tuple"
        },
        {
          "internalType": "bytes16",
          "name": "namespace",
          "type": "bytes16"
        }
      ],
      "name": "build",
      "outputs": [
        {
          "components": [
            {
              "internalType": "bytes16",
              "name": "namespace",
              "type": "bytes16"
            },
            {
              "components": [
                {
                  "internalType": "enum AuthType",
                  "name": "authType",
                  "type": "uint8"
                },
                {
                  "internalType": "uint256",
                  "name": "userId",
                  "type": "uint256"
                },
                {
                  "internalType": "bool",
                  "name": "isAnon",
                  "type": "bool"
                },
                {
                  "internalType": "bool",
                  "name": "isOptional",
                  "type": "bool"
                },
                {
                  "internalType": "bool",
                  "name": "isSelectableByUser",
                  "type": "bool"
                },
                {
                  "internalType": "bytes",
                  "name": "extraData",
                  "type": "bytes"
                }
              ],
              "internalType": "struct AuthRequest[]",
              "name": "auths",
              "type": "tuple[]"
            },
            {
              "components": [
                {
                  "internalType": "enum ClaimType",
                  "name": "claimType",
                  "type": "uint8"
                },
                {
                  "internalType": "bytes16",
                  "name": "groupId",
                  "type": "bytes16"
                },
                {
                  "internalType": "bytes16",
                  "name": "groupTimestamp",
                  "type": "bytes16"
                },
                {
                  "internalType": "uint256",
                  "name": "value",
                  "type": "uint256"
                },
                {
                  "internalType": "bool",
                  "name": "isOptional",
                  "type": "bool"
                },
                {
                  "internalType": "bool",
                  "name": "isSelectableByUser",
                  "type": "bool"
                },
                {
                  "internalType": "bytes",
                  "name": "extraData",
                  "type": "bytes"
                }
              ],
              "internalType": "struct ClaimRequest[]",
              "name": "claims",
              "type": "tuple[]"
            },
            {
              "components": [
                {
                  "internalType": "bytes",
                  "name": "message",
                  "type": "bytes"
                },
                {
                  "internalType": "bool",
                  "name": "isSelectableByUser",
                  "type": "bool"
                },
                {
                  "internalType": "bytes",
                  "name": "extraData",
                  "type": "bytes"
                }
              ],
              "internalType": "struct SignatureRequest",
              "name": "signature",
              "type": "tuple"
            }
          ],
          "internalType": "struct SismoConnectRequest",
          "name": "",
          "type": "tuple"
        }
      ],
      "stateMutability": "pure",
      "type": "function"
    },
    {
      "inputs": [
        {
          "components": [
            {
              "internalType": "enum AuthType",
              "name": "authType",
              "type": "uint8"
            },
            {
              "internalType": "uint256",
              "name": "userId",
              "type": "uint256"
            },
            {
              "internalType": "bool",
              "name": "isAnon",
              "type": "bool"
            },
            {
              "internalType": "bool",
              "name": "isOptional",
              "type": "bool"
            },
            {
              "internalType": "bool",
              "name": "isSelectableByUser",
              "type": "bool"
            },
            {
              "internalType": "bytes",
              "name": "extraData",
              "type": "bytes"
            }
          ],
          "internalType": "struct AuthRequest[]",
          "name": "auths",
          "type": "tuple[]"
        },
        {
          "internalType": "bytes16",
          "name": "namespace",
          "type": "bytes16"
        }
      ],
      "name": "build",
      "outputs": [
        {
          "components": [
            {
              "internalType": "bytes16",
              "name": "namespace",
              "type": "bytes16"
            },
            {
              "components": [
                {
                  "internalType": "enum AuthType",
                  "name": "authType",
                  "type": "uint8"
                },
                {
                  "internalType": "uint256",
                  "name": "userId",
                  "type": "uint256"
                },
                {
                  "internalType": "bool",
                  "name": "isAnon",
                  "type": "bool"
                },
                {
                  "internalType": "bool",
                  "name": "isOptional",
                  "type": "bool"
                },
                {
                  "internalType": "bool",
                  "name": "isSelectableByUser",
                  "type": "bool"
                },
                {
                  "internalType": "bytes",
                  "name": "extraData",
                  "type": "bytes"
                }
              ],
              "internalType": "struct AuthRequest[]",
              "name": "auths",
              "type": "tuple[]"
            },
            {
              "components": [
                {
                  "internalType": "enum ClaimType",
                  "name": "claimType",
                  "type": "uint8"
                },
                {
                  "internalType": "bytes16",
                  "name": "groupId",
                  "type": "bytes16"
                },
                {
                  "internalType": "bytes16",
                  "name": "groupTimestamp",
                  "type": "bytes16"
                },
                {
                  "internalType": "uint256",
                  "name": "value",
                  "type": "uint256"
                },
                {
                  "internalType": "bool",
                  "name": "isOptional",
                  "type": "bool"
                },
                {
                  "internalType": "bool",
                  "name": "isSelectableByUser",
                  "type": "bool"
                },
                {
                  "internalType": "bytes",
                  "name": "extraData",
                  "type": "bytes"
                }
              ],
              "internalType": "struct ClaimRequest[]",
              "name": "claims",
              "type": "tuple[]"
            },
            {
              "components": [
                {
                  "internalType": "bytes",
                  "name": "message",
                  "type": "bytes"
                },
                {
                  "internalType": "bool",
                  "name": "isSelectableByUser",
                  "type": "bool"
                },
                {
                  "internalType": "bytes",
                  "name": "extraData",
                  "type": "bytes"
                }
              ],
              "internalType": "struct SignatureRequest",
              "name": "signature",
              "type": "tuple"
            }
          ],
          "internalType": "struct SismoConnectRequest",
          "name": "",
          "type": "tuple"
        }
      ],
      "stateMutability": "view",
      "type": "function"
    },
    {
      "inputs": [
        {
          "components": [
            {
              "internalType": "enum AuthType",
              "name": "authType",
              "type": "uint8"
            },
            {
              "internalType": "uint256",
              "name": "userId",
              "type": "uint256"
            },
            {
              "internalType": "bool",
              "name": "isAnon",
              "type": "bool"
            },
            {
              "internalType": "bool",
              "name": "isOptional",
              "type": "bool"
            },
            {
              "internalType": "bool",
              "name": "isSelectableByUser",
              "type": "bool"
            },
            {
              "internalType": "bytes",
              "name": "extraData",
              "type": "bytes"
            }
          ],
          "internalType": "struct AuthRequest[]",
          "name": "auths",
          "type": "tuple[]"
        },
        {
          "components": [
            {
              "internalType": "bytes",
              "name": "message",
              "type": "bytes"
            },
            {
              "internalType": "bool",
              "name": "isSelectableByUser",
              "type": "bool"
            },
            {
              "internalType": "bytes",
              "name": "extraData",
              "type": "bytes"
            }
          ],
          "internalType": "struct SignatureRequest",
          "name": "signature",
          "type": "tuple"
        }
      ],
      "name": "build",
      "outputs": [
        {
          "components": [
            {
              "internalType": "bytes16",
              "name": "namespace",
              "type": "bytes16"
            },
            {
              "components": [
                {
                  "internalType": "enum AuthType",
                  "name": "authType",
                  "type": "uint8"
                },
                {
                  "internalType": "uint256",
                  "name": "userId",
                  "type": "uint256"
                },
                {
                  "internalType": "bool",
                  "name": "isAnon",
                  "type": "bool"
                },
                {
                  "internalType": "bool",
                  "name": "isOptional",
                  "type": "bool"
                },
                {
                  "internalType": "bool",
                  "name": "isSelectableByUser",
                  "type": "bool"
                },
                {
                  "internalType": "bytes",
                  "name": "extraData",
                  "type": "bytes"
                }
              ],
              "internalType": "struct AuthRequest[]",
              "name": "auths",
              "type": "tuple[]"
            },
            {
              "components": [
                {
                  "internalType": "enum ClaimType",
                  "name": "claimType",
                  "type": "uint8"
                },
                {
                  "internalType": "bytes16",
                  "name": "groupId",
                  "type": "bytes16"
                },
                {
                  "internalType": "bytes16",
                  "name": "groupTimestamp",
                  "type": "bytes16"
                },
                {
                  "internalType": "uint256",
                  "name": "value",
                  "type": "uint256"
                },
                {
                  "internalType": "bool",
                  "name": "isOptional",
                  "type": "bool"
                },
                {
                  "internalType": "bool",
                  "name": "isSelectableByUser",
                  "type": "bool"
                },
                {
                  "internalType": "bytes",
                  "name": "extraData",
                  "type": "bytes"
                }
              ],
              "internalType": "struct ClaimRequest[]",
              "name": "claims",
              "type": "tuple[]"
            },
            {
              "components": [
                {
                  "internalType": "bytes",
                  "name": "message",
                  "type": "bytes"
                },
                {
                  "internalType": "bool",
                  "name": "isSelectableByUser",
                  "type": "bool"
                },
                {
                  "internalType": "bytes",
                  "name": "extraData",
                  "type": "bytes"
                }
              ],
              "internalType": "struct SignatureRequest",
              "name": "signature",
              "type": "tuple"
            }
          ],
          "internalType": "struct SismoConnectRequest",
          "name": "",
          "type": "tuple"
        }
      ],
      "stateMutability": "pure",
      "type": "function"
    },
    {
      "inputs": [
        {
          "components": [
            {
              "internalType": "enum AuthType",
              "name": "authType",
              "type": "uint8"
            },
            {
              "internalType": "uint256",
              "name": "userId",
              "type": "uint256"
            },
            {
              "internalType": "bool",
              "name": "isAnon",
              "type": "bool"
            },
            {
              "internalType": "bool",
              "name": "isOptional",
              "type": "bool"
            },
            {
              "internalType": "bool",
              "name": "isSelectableByUser",
              "type": "bool"
            },
            {
              "internalType": "bytes",
              "name": "extraData",
              "type": "bytes"
            }
          ],
          "internalType": "struct AuthRequest",
          "name": "auth",
          "type": "tuple"
        },
        {
          "components": [
            {
              "internalType": "enum ClaimType",
              "name": "claimType",
              "type": "uint8"
            },
            {
              "internalType": "bytes16",
              "name": "groupId",
              "type": "bytes16"
            },
            {
              "internalType": "bytes16",
              "name": "groupTimestamp",
              "type": "bytes16"
            },
            {
              "internalType": "uint256",
              "name": "value",
              "type": "uint256"
            },
            {
              "internalType": "bool",
              "name": "isOptional",
              "type": "bool"
            },
            {
              "internalType": "bool",
              "name": "isSelectableByUser",
              "type": "bool"
            },
            {
              "internalType": "bytes",
              "name": "extraData",
              "type": "bytes"
            }
          ],
          "internalType": "struct ClaimRequest",
          "name": "claim",
          "type": "tuple"
        },
        {
          "internalType": "bytes16",
          "name": "namespace",
          "type": "bytes16"
        }
      ],
      "name": "build",
      "outputs": [
        {
          "components": [
            {
              "internalType": "bytes16",
              "name": "namespace",
              "type": "bytes16"
            },
            {
              "components": [
                {
                  "internalType": "enum AuthType",
                  "name": "authType",
                  "type": "uint8"
                },
                {
                  "internalType": "uint256",
                  "name": "userId",
                  "type": "uint256"
                },
                {
                  "internalType": "bool",
                  "name": "isAnon",
                  "type": "bool"
                },
                {
                  "internalType": "bool",
                  "name": "isOptional",
                  "type": "bool"
                },
                {
                  "internalType": "bool",
                  "name": "isSelectableByUser",
                  "type": "bool"
                },
                {
                  "internalType": "bytes",
                  "name": "extraData",
                  "type": "bytes"
                }
              ],
              "internalType": "struct AuthRequest[]",
              "name": "auths",
              "type": "tuple[]"
            },
            {
              "components": [
                {
                  "internalType": "enum ClaimType",
                  "name": "claimType",
                  "type": "uint8"
                },
                {
                  "internalType": "bytes16",
                  "name": "groupId",
                  "type": "bytes16"
                },
                {
                  "internalType": "bytes16",
                  "name": "groupTimestamp",
                  "type": "bytes16"
                },
                {
                  "internalType": "uint256",
                  "name": "value",
                  "type": "uint256"
                },
                {
                  "internalType": "bool",
                  "name": "isOptional",
                  "type": "bool"
                },
                {
                  "internalType": "bool",
                  "name": "isSelectableByUser",
                  "type": "bool"
                },
                {
                  "internalType": "bytes",
                  "name": "extraData",
                  "type": "bytes"
                }
              ],
              "internalType": "struct ClaimRequest[]",
              "name": "claims",
              "type": "tuple[]"
            },
            {
              "components": [
                {
                  "internalType": "bytes",
                  "name": "message",
                  "type": "bytes"
                },
                {
                  "internalType": "bool",
                  "name": "isSelectableByUser",
                  "type": "bool"
                },
                {
                  "internalType": "bytes",
                  "name": "extraData",
                  "type": "bytes"
                }
              ],
              "internalType": "struct SignatureRequest",
              "name": "signature",
              "type": "tuple"
            }
          ],
          "internalType": "struct SismoConnectRequest",
          "name": "",
          "type": "tuple"
        }
      ],
      "stateMutability": "view",
      "type": "function"
    },
    {
      "inputs": [
        {
          "components": [
            {
              "internalType": "enum AuthType",
              "name": "authType",
              "type": "uint8"
            },
            {
              "internalType": "uint256",
              "name": "userId",
              "type": "uint256"
            },
            {
              "internalType": "bool",
              "name": "isAnon",
              "type": "bool"
            },
            {
              "internalType": "bool",
              "name": "isOptional",
              "type": "bool"
            },
            {
              "internalType": "bool",
              "name": "isSelectableByUser",
              "type": "bool"
            },
            {
              "internalType": "bytes",
              "name": "extraData",
              "type": "bytes"
            }
          ],
          "internalType": "struct AuthRequest",
          "name": "auth",
          "type": "tuple"
        },
        {
          "components": [
            {
              "internalType": "bytes",
              "name": "message",
              "type": "bytes"
            },
            {
              "internalType": "bool",
              "name": "isSelectableByUser",
              "type": "bool"
            },
            {
              "internalType": "bytes",
              "name": "extraData",
              "type": "bytes"
            }
          ],
          "internalType": "struct SignatureRequest",
          "name": "signature",
          "type": "tuple"
        }
      ],
      "name": "build",
      "outputs": [
        {
          "components": [
            {
              "internalType": "bytes16",
              "name": "namespace",
              "type": "bytes16"
            },
            {
              "components": [
                {
                  "internalType": "enum AuthType",
                  "name": "authType",
                  "type": "uint8"
                },
                {
                  "internalType": "uint256",
                  "name": "userId",
                  "type": "uint256"
                },
                {
                  "internalType": "bool",
                  "name": "isAnon",
                  "type": "bool"
                },
                {
                  "internalType": "bool",
                  "name": "isOptional",
                  "type": "bool"
                },
                {
                  "internalType": "bool",
                  "name": "isSelectableByUser",
                  "type": "bool"
                },
                {
                  "internalType": "bytes",
                  "name": "extraData",
                  "type": "bytes"
                }
              ],
              "internalType": "struct AuthRequest[]",
              "name": "auths",
              "type": "tuple[]"
            },
            {
              "components": [
                {
                  "internalType": "enum ClaimType",
                  "name": "claimType",
                  "type": "uint8"
                },
                {
                  "internalType": "bytes16",
                  "name": "groupId",
                  "type": "bytes16"
                },
                {
                  "internalType": "bytes16",
                  "name": "groupTimestamp",
                  "type": "bytes16"
                },
                {
                  "internalType": "uint256",
                  "name": "value",
                  "type": "uint256"
                },
                {
                  "internalType": "bool",
                  "name": "isOptional",
                  "type": "bool"
                },
                {
                  "internalType": "bool",
                  "name": "isSelectableByUser",
                  "type": "bool"
                },
                {
                  "internalType": "bytes",
                  "name": "extraData",
                  "type": "bytes"
                }
              ],
              "internalType": "struct ClaimRequest[]",
              "name": "claims",
              "type": "tuple[]"
            },
            {
              "components": [
                {
                  "internalType": "bytes",
                  "name": "message",
                  "type": "bytes"
                },
                {
                  "internalType": "bool",
                  "name": "isSelectableByUser",
                  "type": "bool"
                },
                {
                  "internalType": "bytes",
                  "name": "extraData",
                  "type": "bytes"
                }
              ],
              "internalType": "struct SignatureRequest",
              "name": "signature",
              "type": "tuple"
            }
          ],
          "internalType": "struct SismoConnectRequest",
          "name": "",
          "type": "tuple"
        }
      ],
      "stateMutability": "pure",
      "type": "function"
    },
    {
      "inputs": [
        {
          "components": [
            {
              "internalType": "enum ClaimType",
              "name": "claimType",
              "type": "uint8"
            },
            {
              "internalType": "bytes16",
              "name": "groupId",
              "type": "bytes16"
            },
            {
              "internalType": "bytes16",
              "name": "groupTimestamp",
              "type": "bytes16"
            },
            {
              "internalType": "uint256",
              "name": "value",
              "type": "uint256"
            },
            {
              "internalType": "bool",
              "name": "isOptional",
              "type": "bool"
            },
            {
              "internalType": "bool",
              "name": "isSelectableByUser",
              "type": "bool"
            },
            {
              "internalType": "bytes",
              "name": "extraData",
              "type": "bytes"
            }
          ],
          "internalType": "struct ClaimRequest",
          "name": "claim",
          "type": "tuple"
        },
        {
          "components": [
            {
              "internalType": "bytes",
              "name": "message",
              "type": "bytes"
            },
            {
              "internalType": "bool",
              "name": "isSelectableByUser",
              "type": "bool"
            },
            {
              "internalType": "bytes",
              "name": "extraData",
              "type": "bytes"
            }
          ],
          "internalType": "struct SignatureRequest",
          "name": "signature",
          "type": "tuple"
        },
        {
          "internalType": "bytes16",
          "name": "namespace",
          "type": "bytes16"
        }
      ],
      "name": "build",
      "outputs": [
        {
          "components": [
            {
              "internalType": "bytes16",
              "name": "namespace",
              "type": "bytes16"
            },
            {
              "components": [
                {
                  "internalType": "enum AuthType",
                  "name": "authType",
                  "type": "uint8"
                },
                {
                  "internalType": "uint256",
                  "name": "userId",
                  "type": "uint256"
                },
                {
                  "internalType": "bool",
                  "name": "isAnon",
                  "type": "bool"
                },
                {
                  "internalType": "bool",
                  "name": "isOptional",
                  "type": "bool"
                },
                {
                  "internalType": "bool",
                  "name": "isSelectableByUser",
                  "type": "bool"
                },
                {
                  "internalType": "bytes",
                  "name": "extraData",
                  "type": "bytes"
                }
              ],
              "internalType": "struct AuthRequest[]",
              "name": "auths",
              "type": "tuple[]"
            },
            {
              "components": [
                {
                  "internalType": "enum ClaimType",
                  "name": "claimType",
                  "type": "uint8"
                },
                {
                  "internalType": "bytes16",
                  "name": "groupId",
                  "type": "bytes16"
                },
                {
                  "internalType": "bytes16",
                  "name": "groupTimestamp",
                  "type": "bytes16"
                },
                {
                  "internalType": "uint256",
                  "name": "value",
                  "type": "uint256"
                },
                {
                  "internalType": "bool",
                  "name": "isOptional",
                  "type": "bool"
                },
                {
                  "internalType": "bool",
                  "name": "isSelectableByUser",
                  "type": "bool"
                },
                {
                  "internalType": "bytes",
                  "name": "extraData",
                  "type": "bytes"
                }
              ],
              "internalType": "struct ClaimRequest[]",
              "name": "claims",
              "type": "tuple[]"
            },
            {
              "components": [
                {
                  "internalType": "bytes",
                  "name": "message",
                  "type": "bytes"
                },
                {
                  "internalType": "bool",
                  "name": "isSelectableByUser",
                  "type": "bool"
                },
                {
                  "internalType": "bytes",
                  "name": "extraData",
                  "type": "bytes"
                }
              ],
              "internalType": "struct SignatureRequest",
              "name": "signature",
              "type": "tuple"
            }
          ],
          "internalType": "struct SismoConnectRequest",
          "name": "",
          "type": "tuple"
        }
      ],
      "stateMutability": "pure",
      "type": "function"
    },
    {
      "inputs": [
        {
          "components": [
            {
              "internalType": "enum AuthType",
              "name": "authType",
              "type": "uint8"
            },
            {
              "internalType": "uint256",
              "name": "userId",
              "type": "uint256"
            },
            {
              "internalType": "bool",
              "name": "isAnon",
              "type": "bool"
            },
            {
              "internalType": "bool",
              "name": "isOptional",
              "type": "bool"
            },
            {
              "internalType": "bool",
              "name": "isSelectableByUser",
              "type": "bool"
            },
            {
              "internalType": "bytes",
              "name": "extraData",
              "type": "bytes"
            }
          ],
          "internalType": "struct AuthRequest",
          "name": "auth",
          "type": "tuple"
        },
        {
          "internalType": "bytes16",
          "name": "namespace",
          "type": "bytes16"
        }
      ],
      "name": "build",
      "outputs": [
        {
          "components": [
            {
              "internalType": "bytes16",
              "name": "namespace",
              "type": "bytes16"
            },
            {
              "components": [
                {
                  "internalType": "enum AuthType",
                  "name": "authType",
                  "type": "uint8"
                },
                {
                  "internalType": "uint256",
                  "name": "userId",
                  "type": "uint256"
                },
                {
                  "internalType": "bool",
                  "name": "isAnon",
                  "type": "bool"
                },
                {
                  "internalType": "bool",
                  "name": "isOptional",
                  "type": "bool"
                },
                {
                  "internalType": "bool",
                  "name": "isSelectableByUser",
                  "type": "bool"
                },
                {
                  "internalType": "bytes",
                  "name": "extraData",
                  "type": "bytes"
                }
              ],
              "internalType": "struct AuthRequest[]",
              "name": "auths",
              "type": "tuple[]"
            },
            {
              "components": [
                {
                  "internalType": "enum ClaimType",
                  "name": "claimType",
                  "type": "uint8"
                },
                {
                  "internalType": "bytes16",
                  "name": "groupId",
                  "type": "bytes16"
                },
                {
                  "internalType": "bytes16",
                  "name": "groupTimestamp",
                  "type": "bytes16"
                },
                {
                  "internalType": "uint256",
                  "name": "value",
                  "type": "uint256"
                },
                {
                  "internalType": "bool",
                  "name": "isOptional",
                  "type": "bool"
                },
                {
                  "internalType": "bool",
                  "name": "isSelectableByUser",
                  "type": "bool"
                },
                {
                  "internalType": "bytes",
                  "name": "extraData",
                  "type": "bytes"
                }
              ],
              "internalType": "struct ClaimRequest[]",
              "name": "claims",
              "type": "tuple[]"
            },
            {
              "components": [
                {
                  "internalType": "bytes",
                  "name": "message",
                  "type": "bytes"
                },
                {
                  "internalType": "bool",
                  "name": "isSelectableByUser",
                  "type": "bool"
                },
                {
                  "internalType": "bytes",
                  "name": "extraData",
                  "type": "bytes"
                }
              ],
              "internalType": "struct SignatureRequest",
              "name": "signature",
              "type": "tuple"
            }
          ],
          "internalType": "struct SismoConnectRequest",
          "name": "",
          "type": "tuple"
        }
      ],
      "stateMutability": "view",
      "type": "function"
    },
    {
      "inputs": [
        {
          "components": [
            {
              "internalType": "enum AuthType",
              "name": "authType",
              "type": "uint8"
            },
            {
              "internalType": "uint256",
              "name": "userId",
              "type": "uint256"
            },
            {
              "internalType": "bool",
              "name": "isAnon",
              "type": "bool"
            },
            {
              "internalType": "bool",
              "name": "isOptional",
              "type": "bool"
            },
            {
              "internalType": "bool",
              "name": "isSelectableByUser",
              "type": "bool"
            },
            {
              "internalType": "bytes",
              "name": "extraData",
              "type": "bytes"
            }
          ],
          "internalType": "struct AuthRequest[]",
          "name": "auths",
          "type": "tuple[]"
        },
        {
          "components": [
            {
              "internalType": "enum ClaimType",
              "name": "claimType",
              "type": "uint8"
            },
            {
              "internalType": "bytes16",
              "name": "groupId",
              "type": "bytes16"
            },
            {
              "internalType": "bytes16",
              "name": "groupTimestamp",
              "type": "bytes16"
            },
            {
              "internalType": "uint256",
              "name": "value",
              "type": "uint256"
            },
            {
              "internalType": "bool",
              "name": "isOptional",
              "type": "bool"
            },
            {
              "internalType": "bool",
              "name": "isSelectableByUser",
              "type": "bool"
            },
            {
              "internalType": "bytes",
              "name": "extraData",
              "type": "bytes"
            }
          ],
          "internalType": "struct ClaimRequest[]",
          "name": "claims",
          "type": "tuple[]"
        },
        {
          "internalType": "bytes16",
          "name": "namespace",
          "type": "bytes16"
        }
      ],
      "name": "build",
      "outputs": [
        {
          "components": [
            {
              "internalType": "bytes16",
              "name": "namespace",
              "type": "bytes16"
            },
            {
              "components": [
                {
                  "internalType": "enum AuthType",
                  "name": "authType",
                  "type": "uint8"
                },
                {
                  "internalType": "uint256",
                  "name": "userId",
                  "type": "uint256"
                },
                {
                  "internalType": "bool",
                  "name": "isAnon",
                  "type": "bool"
                },
                {
                  "internalType": "bool",
                  "name": "isOptional",
                  "type": "bool"
                },
                {
                  "internalType": "bool",
                  "name": "isSelectableByUser",
                  "type": "bool"
                },
                {
                  "internalType": "bytes",
                  "name": "extraData",
                  "type": "bytes"
                }
              ],
              "internalType": "struct AuthRequest[]",
              "name": "auths",
              "type": "tuple[]"
            },
            {
              "components": [
                {
                  "internalType": "enum ClaimType",
                  "name": "claimType",
                  "type": "uint8"
                },
                {
                  "internalType": "bytes16",
                  "name": "groupId",
                  "type": "bytes16"
                },
                {
                  "internalType": "bytes16",
                  "name": "groupTimestamp",
                  "type": "bytes16"
                },
                {
                  "internalType": "uint256",
                  "name": "value",
                  "type": "uint256"
                },
                {
                  "internalType": "bool",
                  "name": "isOptional",
                  "type": "bool"
                },
                {
                  "internalType": "bool",
                  "name": "isSelectableByUser",
                  "type": "bool"
                },
                {
                  "internalType": "bytes",
                  "name": "extraData",
                  "type": "bytes"
                }
              ],
              "internalType": "struct ClaimRequest[]",
              "name": "claims",
              "type": "tuple[]"
            },
            {
              "components": [
                {
                  "internalType": "bytes",
                  "name": "message",
                  "type": "bytes"
                },
                {
                  "internalType": "bool",
                  "name": "isSelectableByUser",
                  "type": "bool"
                },
                {
                  "internalType": "bytes",
                  "name": "extraData",
                  "type": "bytes"
                }
              ],
              "internalType": "struct SignatureRequest",
              "name": "signature",
              "type": "tuple"
            }
          ],
          "internalType": "struct SismoConnectRequest",
          "name": "",
          "type": "tuple"
        }
      ],
      "stateMutability": "view",
      "type": "function"
    },
    {
      "inputs": [
        {
          "components": [
            {
              "internalType": "enum AuthType",
              "name": "authType",
              "type": "uint8"
            },
            {
              "internalType": "uint256",
              "name": "userId",
              "type": "uint256"
            },
            {
              "internalType": "bool",
              "name": "isAnon",
              "type": "bool"
            },
            {
              "internalType": "bool",
              "name": "isOptional",
              "type": "bool"
            },
            {
              "internalType": "bool",
              "name": "isSelectableByUser",
              "type": "bool"
            },
            {
              "internalType": "bytes",
              "name": "extraData",
              "type": "bytes"
            }
          ],
          "internalType": "struct AuthRequest[]",
          "name": "auths",
          "type": "tuple[]"
        },
        {
          "components": [
            {
              "internalType": "enum ClaimType",
              "name": "claimType",
              "type": "uint8"
            },
            {
              "internalType": "bytes16",
              "name": "groupId",
              "type": "bytes16"
            },
            {
              "internalType": "bytes16",
              "name": "groupTimestamp",
              "type": "bytes16"
            },
            {
              "internalType": "uint256",
              "name": "value",
              "type": "uint256"
            },
            {
              "internalType": "bool",
              "name": "isOptional",
              "type": "bool"
            },
            {
              "internalType": "bool",
              "name": "isSelectableByUser",
              "type": "bool"
            },
            {
              "internalType": "bytes",
              "name": "extraData",
              "type": "bytes"
            }
          ],
          "internalType": "struct ClaimRequest[]",
          "name": "claims",
          "type": "tuple[]"
        },
        {
          "components": [
            {
              "internalType": "bytes",
              "name": "message",
              "type": "bytes"
            },
            {
              "internalType": "bool",
              "name": "isSelectableByUser",
              "type": "bool"
            },
            {
              "internalType": "bytes",
              "name": "extraData",
              "type": "bytes"
            }
          ],
          "internalType": "struct SignatureRequest",
          "name": "signature",
          "type": "tuple"
        }
      ],
      "name": "build",
      "outputs": [
        {
          "components": [
            {
              "internalType": "bytes16",
              "name": "namespace",
              "type": "bytes16"
            },
            {
              "components": [
                {
                  "internalType": "enum AuthType",
                  "name": "authType",
                  "type": "uint8"
                },
                {
                  "internalType": "uint256",
                  "name": "userId",
                  "type": "uint256"
                },
                {
                  "internalType": "bool",
                  "name": "isAnon",
                  "type": "bool"
                },
                {
                  "internalType": "bool",
                  "name": "isOptional",
                  "type": "bool"
                },
                {
                  "internalType": "bool",
                  "name": "isSelectableByUser",
                  "type": "bool"
                },
                {
                  "internalType": "bytes",
                  "name": "extraData",
                  "type": "bytes"
                }
              ],
              "internalType": "struct AuthRequest[]",
              "name": "auths",
              "type": "tuple[]"
            },
            {
              "components": [
                {
                  "internalType": "enum ClaimType",
                  "name": "claimType",
                  "type": "uint8"
                },
                {
                  "internalType": "bytes16",
                  "name": "groupId",
                  "type": "bytes16"
                },
                {
                  "internalType": "bytes16",
                  "name": "groupTimestamp",
                  "type": "bytes16"
                },
                {
                  "internalType": "uint256",
                  "name": "value",
                  "type": "uint256"
                },
                {
                  "internalType": "bool",
                  "name": "isOptional",
                  "type": "bool"
                },
                {
                  "internalType": "bool",
                  "name": "isSelectableByUser",
                  "type": "bool"
                },
                {
                  "internalType": "bytes",
                  "name": "extraData",
                  "type": "bytes"
                }
              ],
              "internalType": "struct ClaimRequest[]",
              "name": "claims",
              "type": "tuple[]"
            },
            {
              "components": [
                {
                  "internalType": "bytes",
                  "name": "message",
                  "type": "bytes"
                },
                {
                  "internalType": "bool",
                  "name": "isSelectableByUser",
                  "type": "bool"
                },
                {
                  "internalType": "bytes",
                  "name": "extraData",
                  "type": "bytes"
                }
              ],
              "internalType": "struct SignatureRequest",
              "name": "signature",
              "type": "tuple"
            }
          ],
          "internalType": "struct SismoConnectRequest",
          "name": "",
          "type": "tuple"
        }
      ],
      "stateMutability": "pure",
      "type": "function"
    },
    {
      "inputs": [
        {
          "components": [
            {
              "internalType": "enum AuthType",
              "name": "authType",
              "type": "uint8"
            },
            {
              "internalType": "uint256",
              "name": "userId",
              "type": "uint256"
            },
            {
              "internalType": "bool",
              "name": "isAnon",
              "type": "bool"
            },
            {
              "internalType": "bool",
              "name": "isOptional",
              "type": "bool"
            },
            {
              "internalType": "bool",
              "name": "isSelectableByUser",
              "type": "bool"
            },
            {
              "internalType": "bytes",
              "name": "extraData",
              "type": "bytes"
            }
          ],
          "internalType": "struct AuthRequest[]",
          "name": "auths",
          "type": "tuple[]"
        },
        {
          "components": [
            {
              "internalType": "enum ClaimType",
              "name": "claimType",
              "type": "uint8"
            },
            {
              "internalType": "bytes16",
              "name": "groupId",
              "type": "bytes16"
            },
            {
              "internalType": "bytes16",
              "name": "groupTimestamp",
              "type": "bytes16"
            },
            {
              "internalType": "uint256",
              "name": "value",
              "type": "uint256"
            },
            {
              "internalType": "bool",
              "name": "isOptional",
              "type": "bool"
            },
            {
              "internalType": "bool",
              "name": "isSelectableByUser",
              "type": "bool"
            },
            {
              "internalType": "bytes",
              "name": "extraData",
              "type": "bytes"
            }
          ],
          "internalType": "struct ClaimRequest[]",
          "name": "claims",
          "type": "tuple[]"
        }
      ],
      "name": "build",
      "outputs": [
        {
          "components": [
            {
              "internalType": "bytes16",
              "name": "namespace",
              "type": "bytes16"
            },
            {
              "components": [
                {
                  "internalType": "enum AuthType",
                  "name": "authType",
                  "type": "uint8"
                },
                {
                  "internalType": "uint256",
                  "name": "userId",
                  "type": "uint256"
                },
                {
                  "internalType": "bool",
                  "name": "isAnon",
                  "type": "bool"
                },
                {
                  "internalType": "bool",
                  "name": "isOptional",
                  "type": "bool"
                },
                {
                  "internalType": "bool",
                  "name": "isSelectableByUser",
                  "type": "bool"
                },
                {
                  "internalType": "bytes",
                  "name": "extraData",
                  "type": "bytes"
                }
              ],
              "internalType": "struct AuthRequest[]",
              "name": "auths",
              "type": "tuple[]"
            },
            {
              "components": [
                {
                  "internalType": "enum ClaimType",
                  "name": "claimType",
                  "type": "uint8"
                },
                {
                  "internalType": "bytes16",
                  "name": "groupId",
                  "type": "bytes16"
                },
                {
                  "internalType": "bytes16",
                  "name": "groupTimestamp",
                  "type": "bytes16"
                },
                {
                  "internalType": "uint256",
                  "name": "value",
                  "type": "uint256"
                },
                {
                  "internalType": "bool",
                  "name": "isOptional",
                  "type": "bool"
                },
                {
                  "internalType": "bool",
                  "name": "isSelectableByUser",
                  "type": "bool"
                },
                {
                  "internalType": "bytes",
                  "name": "extraData",
                  "type": "bytes"
                }
              ],
              "internalType": "struct ClaimRequest[]",
              "name": "claims",
              "type": "tuple[]"
            },
            {
              "components": [
                {
                  "internalType": "bytes",
                  "name": "message",
                  "type": "bytes"
                },
                {
                  "internalType": "bool",
                  "name": "isSelectableByUser",
                  "type": "bool"
                },
                {
                  "internalType": "bytes",
                  "name": "extraData",
                  "type": "bytes"
                }
              ],
              "internalType": "struct SignatureRequest",
              "name": "signature",
              "type": "tuple"
            }
          ],
          "internalType": "struct SismoConnectRequest",
          "name": "",
          "type": "tuple"
        }
      ],
      "stateMutability": "view",
      "type": "function"
    },
    {
      "inputs": [
        {
          "components": [
            {
              "internalType": "enum ClaimType",
              "name": "claimType",
              "type": "uint8"
            },
            {
              "internalType": "bytes16",
              "name": "groupId",
              "type": "bytes16"
            },
            {
              "internalType": "bytes16",
              "name": "groupTimestamp",
              "type": "bytes16"
            },
            {
              "internalType": "uint256",
              "name": "value",
              "type": "uint256"
            },
            {
              "internalType": "bool",
              "name": "isOptional",
              "type": "bool"
            },
            {
              "internalType": "bool",
              "name": "isSelectableByUser",
              "type": "bool"
            },
            {
              "internalType": "bytes",
              "name": "extraData",
              "type": "bytes"
            }
          ],
          "internalType": "struct ClaimRequest[]",
          "name": "claims",
          "type": "tuple[]"
        }
      ],
      "name": "build",
      "outputs": [
        {
          "components": [
            {
              "internalType": "bytes16",
              "name": "namespace",
              "type": "bytes16"
            },
            {
              "components": [
                {
                  "internalType": "enum AuthType",
                  "name": "authType",
                  "type": "uint8"
                },
                {
                  "internalType": "uint256",
                  "name": "userId",
                  "type": "uint256"
                },
                {
                  "internalType": "bool",
                  "name": "isAnon",
                  "type": "bool"
                },
                {
                  "internalType": "bool",
                  "name": "isOptional",
                  "type": "bool"
                },
                {
                  "internalType": "bool",
                  "name": "isSelectableByUser",
                  "type": "bool"
                },
                {
                  "internalType": "bytes",
                  "name": "extraData",
                  "type": "bytes"
                }
              ],
              "internalType": "struct AuthRequest[]",
              "name": "auths",
              "type": "tuple[]"
            },
            {
              "components": [
                {
                  "internalType": "enum ClaimType",
                  "name": "claimType",
                  "type": "uint8"
                },
                {
                  "internalType": "bytes16",
                  "name": "groupId",
                  "type": "bytes16"
                },
                {
                  "internalType": "bytes16",
                  "name": "groupTimestamp",
                  "type": "bytes16"
                },
                {
                  "internalType": "uint256",
                  "name": "value",
                  "type": "uint256"
                },
                {
                  "internalType": "bool",
                  "name": "isOptional",
                  "type": "bool"
                },
                {
                  "internalType": "bool",
                  "name": "isSelectableByUser",
                  "type": "bool"
                },
                {
                  "internalType": "bytes",
                  "name": "extraData",
                  "type": "bytes"
                }
              ],
              "internalType": "struct ClaimRequest[]",
              "name": "claims",
              "type": "tuple[]"
            },
            {
              "components": [
                {
                  "internalType": "bytes",
                  "name": "message",
                  "type": "bytes"
                },
                {
                  "internalType": "bool",
                  "name": "isSelectableByUser",
                  "type": "bool"
                },
                {
                  "internalType": "bytes",
                  "name": "extraData",
                  "type": "bytes"
                }
              ],
              "internalType": "struct SignatureRequest",
              "name": "signature",
              "type": "tuple"
            }
          ],
          "internalType": "struct SismoConnectRequest",
          "name": "",
          "type": "tuple"
        }
      ],
      "stateMutability": "view",
      "type": "function"
    },
    {
      "inputs": [
        {
          "components": [
            {
              "internalType": "enum ClaimType",
              "name": "claimType",
              "type": "uint8"
            },
            {
              "internalType": "bytes16",
              "name": "groupId",
              "type": "bytes16"
            },
            {
              "internalType": "bytes16",
              "name": "groupTimestamp",
              "type": "bytes16"
            },
            {
              "internalType": "uint256",
              "name": "value",
              "type": "uint256"
            },
            {
              "internalType": "bool",
              "name": "isOptional",
              "type": "bool"
            },
            {
              "internalType": "bool",
              "name": "isSelectableByUser",
              "type": "bool"
            },
            {
              "internalType": "bytes",
              "name": "extraData",
              "type": "bytes"
            }
          ],
          "internalType": "struct ClaimRequest[]",
          "name": "claims",
          "type": "tuple[]"
        },
        {
          "components": [
            {
              "internalType": "bytes",
              "name": "message",
              "type": "bytes"
            },
            {
              "internalType": "bool",
              "name": "isSelectableByUser",
              "type": "bool"
            },
            {
              "internalType": "bytes",
              "name": "extraData",
              "type": "bytes"
            }
          ],
          "internalType": "struct SignatureRequest",
          "name": "signature",
          "type": "tuple"
        }
      ],
      "name": "build",
      "outputs": [
        {
          "components": [
            {
              "internalType": "bytes16",
              "name": "namespace",
              "type": "bytes16"
            },
            {
              "components": [
                {
                  "internalType": "enum AuthType",
                  "name": "authType",
                  "type": "uint8"
                },
                {
                  "internalType": "uint256",
                  "name": "userId",
                  "type": "uint256"
                },
                {
                  "internalType": "bool",
                  "name": "isAnon",
                  "type": "bool"
                },
                {
                  "internalType": "bool",
                  "name": "isOptional",
                  "type": "bool"
                },
                {
                  "internalType": "bool",
                  "name": "isSelectableByUser",
                  "type": "bool"
                },
                {
                  "internalType": "bytes",
                  "name": "extraData",
                  "type": "bytes"
                }
              ],
              "internalType": "struct AuthRequest[]",
              "name": "auths",
              "type": "tuple[]"
            },
            {
              "components": [
                {
                  "internalType": "enum ClaimType",
                  "name": "claimType",
                  "type": "uint8"
                },
                {
                  "internalType": "bytes16",
                  "name": "groupId",
                  "type": "bytes16"
                },
                {
                  "internalType": "bytes16",
                  "name": "groupTimestamp",
                  "type": "bytes16"
                },
                {
                  "internalType": "uint256",
                  "name": "value",
                  "type": "uint256"
                },
                {
                  "internalType": "bool",
                  "name": "isOptional",
                  "type": "bool"
                },
                {
                  "internalType": "bool",
                  "name": "isSelectableByUser",
                  "type": "bool"
                },
                {
                  "internalType": "bytes",
                  "name": "extraData",
                  "type": "bytes"
                }
              ],
              "internalType": "struct ClaimRequest[]",
              "name": "claims",
              "type": "tuple[]"
            },
            {
              "components": [
                {
                  "internalType": "bytes",
                  "name": "message",
                  "type": "bytes"
                },
                {
                  "internalType": "bool",
                  "name": "isSelectableByUser",
                  "type": "bool"
                },
                {
                  "internalType": "bytes",
                  "name": "extraData",
                  "type": "bytes"
                }
              ],
              "internalType": "struct SignatureRequest",
              "name": "signature",
              "type": "tuple"
            }
          ],
          "internalType": "struct SismoConnectRequest",
          "name": "",
          "type": "tuple"
        }
      ],
      "stateMutability": "pure",
      "type": "function"
    },
    {
      "inputs": [
        {
          "components": [
            {
              "internalType": "enum ClaimType",
              "name": "claimType",
              "type": "uint8"
            },
            {
              "internalType": "bytes16",
              "name": "groupId",
              "type": "bytes16"
            },
            {
              "internalType": "bytes16",
              "name": "groupTimestamp",
              "type": "bytes16"
            },
            {
              "internalType": "uint256",
              "name": "value",
              "type": "uint256"
            },
            {
              "internalType": "bool",
              "name": "isOptional",
              "type": "bool"
            },
            {
              "internalType": "bool",
              "name": "isSelectableByUser",
              "type": "bool"
            },
            {
              "internalType": "bytes",
              "name": "extraData",
              "type": "bytes"
            }
          ],
          "internalType": "struct ClaimRequest",
          "name": "claim",
          "type": "tuple"
        },
        {
          "components": [
            {
              "internalType": "bytes",
              "name": "message",
              "type": "bytes"
            },
            {
              "internalType": "bool",
              "name": "isSelectableByUser",
              "type": "bool"
            },
            {
              "internalType": "bytes",
              "name": "extraData",
              "type": "bytes"
            }
          ],
          "internalType": "struct SignatureRequest",
          "name": "signature",
          "type": "tuple"
        }
      ],
      "name": "build",
      "outputs": [
        {
          "components": [
            {
              "internalType": "bytes16",
              "name": "namespace",
              "type": "bytes16"
            },
            {
              "components": [
                {
                  "internalType": "enum AuthType",
                  "name": "authType",
                  "type": "uint8"
                },
                {
                  "internalType": "uint256",
                  "name": "userId",
                  "type": "uint256"
                },
                {
                  "internalType": "bool",
                  "name": "isAnon",
                  "type": "bool"
                },
                {
                  "internalType": "bool",
                  "name": "isOptional",
                  "type": "bool"
                },
                {
                  "internalType": "bool",
                  "name": "isSelectableByUser",
                  "type": "bool"
                },
                {
                  "internalType": "bytes",
                  "name": "extraData",
                  "type": "bytes"
                }
              ],
              "internalType": "struct AuthRequest[]",
              "name": "auths",
              "type": "tuple[]"
            },
            {
              "components": [
                {
                  "internalType": "enum ClaimType",
                  "name": "claimType",
                  "type": "uint8"
                },
                {
                  "internalType": "bytes16",
                  "name": "groupId",
                  "type": "bytes16"
                },
                {
                  "internalType": "bytes16",
                  "name": "groupTimestamp",
                  "type": "bytes16"
                },
                {
                  "internalType": "uint256",
                  "name": "value",
                  "type": "uint256"
                },
                {
                  "internalType": "bool",
                  "name": "isOptional",
                  "type": "bool"
                },
                {
                  "internalType": "bool",
                  "name": "isSelectableByUser",
                  "type": "bool"
                },
                {
                  "internalType": "bytes",
                  "name": "extraData",
                  "type": "bytes"
                }
              ],
              "internalType": "struct ClaimRequest[]",
              "name": "claims",
              "type": "tuple[]"
            },
            {
              "components": [
                {
                  "internalType": "bytes",
                  "name": "message",
                  "type": "bytes"
                },
                {
                  "internalType": "bool",
                  "name": "isSelectableByUser",
                  "type": "bool"
                },
                {
                  "internalType": "bytes",
                  "name": "extraData",
                  "type": "bytes"
                }
              ],
              "internalType": "struct SignatureRequest",
              "name": "signature",
              "type": "tuple"
            }
          ],
          "internalType": "struct SismoConnectRequest",
          "name": "",
          "type": "tuple"
        }
      ],
      "stateMutability": "pure",
      "type": "function"
    },
    {
      "inputs": [
        {
          "components": [
            {
              "internalType": "enum AuthType",
              "name": "authType",
              "type": "uint8"
            },
            {
              "internalType": "uint256",
              "name": "userId",
              "type": "uint256"
            },
            {
              "internalType": "bool",
              "name": "isAnon",
              "type": "bool"
            },
            {
              "internalType": "bool",
              "name": "isOptional",
              "type": "bool"
            },
            {
              "internalType": "bool",
              "name": "isSelectableByUser",
              "type": "bool"
            },
            {
              "internalType": "bytes",
              "name": "extraData",
              "type": "bytes"
            }
          ],
          "internalType": "struct AuthRequest",
          "name": "auth",
          "type": "tuple"
        }
      ],
      "name": "build",
      "outputs": [
        {
          "components": [
            {
              "internalType": "bytes16",
              "name": "namespace",
              "type": "bytes16"
            },
            {
              "components": [
                {
                  "internalType": "enum AuthType",
                  "name": "authType",
                  "type": "uint8"
                },
                {
                  "internalType": "uint256",
                  "name": "userId",
                  "type": "uint256"
                },
                {
                  "internalType": "bool",
                  "name": "isAnon",
                  "type": "bool"
                },
                {
                  "internalType": "bool",
                  "name": "isOptional",
                  "type": "bool"
                },
                {
                  "internalType": "bool",
                  "name": "isSelectableByUser",
                  "type": "bool"
                },
                {
                  "internalType": "bytes",
                  "name": "extraData",
                  "type": "bytes"
                }
              ],
              "internalType": "struct AuthRequest[]",
              "name": "auths",
              "type": "tuple[]"
            },
            {
              "components": [
                {
                  "internalType": "enum ClaimType",
                  "name": "claimType",
                  "type": "uint8"
                },
                {
                  "internalType": "bytes16",
                  "name": "groupId",
                  "type": "bytes16"
                },
                {
                  "internalType": "bytes16",
                  "name": "groupTimestamp",
                  "type": "bytes16"
                },
                {
                  "internalType": "uint256",
                  "name": "value",
                  "type": "uint256"
                },
                {
                  "internalType": "bool",
                  "name": "isOptional",
                  "type": "bool"
                },
                {
                  "internalType": "bool",
                  "name": "isSelectableByUser",
                  "type": "bool"
                },
                {
                  "internalType": "bytes",
                  "name": "extraData",
                  "type": "bytes"
                }
              ],
              "internalType": "struct ClaimRequest[]",
              "name": "claims",
              "type": "tuple[]"
            },
            {
              "components": [
                {
                  "internalType": "bytes",
                  "name": "message",
                  "type": "bytes"
                },
                {
                  "internalType": "bool",
                  "name": "isSelectableByUser",
                  "type": "bool"
                },
                {
                  "internalType": "bytes",
                  "name": "extraData",
                  "type": "bytes"
                }
              ],
              "internalType": "struct SignatureRequest",
              "name": "signature",
              "type": "tuple"
            }
          ],
          "internalType": "struct SismoConnectRequest",
          "name": "",
          "type": "tuple"
        }
      ],
      "stateMutability": "view",
      "type": "function"
    },
    {
      "inputs": [
        {
          "components": [
            {
              "internalType": "enum AuthType",
              "name": "authType",
              "type": "uint8"
            },
            {
              "internalType": "uint256",
              "name": "userId",
              "type": "uint256"
            },
            {
              "internalType": "bool",
              "name": "isAnon",
              "type": "bool"
            },
            {
              "internalType": "bool",
              "name": "isOptional",
              "type": "bool"
            },
            {
              "internalType": "bool",
              "name": "isSelectableByUser",
              "type": "bool"
            },
            {
              "internalType": "bytes",
              "name": "extraData",
              "type": "bytes"
            }
          ],
          "internalType": "struct AuthRequest[]",
          "name": "auths",
          "type": "tuple[]"
        },
        {
          "components": [
            {
              "internalType": "bytes",
              "name": "message",
              "type": "bytes"
            },
            {
              "internalType": "bool",
              "name": "isSelectableByUser",
              "type": "bool"
            },
            {
              "internalType": "bytes",
              "name": "extraData",
              "type": "bytes"
            }
          ],
          "internalType": "struct SignatureRequest",
          "name": "signature",
          "type": "tuple"
        },
        {
          "internalType": "bytes16",
          "name": "namespace",
          "type": "bytes16"
        }
      ],
      "name": "build",
      "outputs": [
        {
          "components": [
            {
              "internalType": "bytes16",
              "name": "namespace",
              "type": "bytes16"
            },
            {
              "components": [
                {
                  "internalType": "enum AuthType",
                  "name": "authType",
                  "type": "uint8"
                },
                {
                  "internalType": "uint256",
                  "name": "userId",
                  "type": "uint256"
                },
                {
                  "internalType": "bool",
                  "name": "isAnon",
                  "type": "bool"
                },
                {
                  "internalType": "bool",
                  "name": "isOptional",
                  "type": "bool"
                },
                {
                  "internalType": "bool",
                  "name": "isSelectableByUser",
                  "type": "bool"
                },
                {
                  "internalType": "bytes",
                  "name": "extraData",
                  "type": "bytes"
                }
              ],
              "internalType": "struct AuthRequest[]",
              "name": "auths",
              "type": "tuple[]"
            },
            {
              "components": [
                {
                  "internalType": "enum ClaimType",
                  "name": "claimType",
                  "type": "uint8"
                },
                {
                  "internalType": "bytes16",
                  "name": "groupId",
                  "type": "bytes16"
                },
                {
                  "internalType": "bytes16",
                  "name": "groupTimestamp",
                  "type": "bytes16"
                },
                {
                  "internalType": "uint256",
                  "name": "value",
                  "type": "uint256"
                },
                {
                  "internalType": "bool",
                  "name": "isOptional",
                  "type": "bool"
                },
                {
                  "internalType": "bool",
                  "name": "isSelectableByUser",
                  "type": "bool"
                },
                {
                  "internalType": "bytes",
                  "name": "extraData",
                  "type": "bytes"
                }
              ],
              "internalType": "struct ClaimRequest[]",
              "name": "claims",
              "type": "tuple[]"
            },
            {
              "components": [
                {
                  "internalType": "bytes",
                  "name": "message",
                  "type": "bytes"
                },
                {
                  "internalType": "bool",
                  "name": "isSelectableByUser",
                  "type": "bool"
                },
                {
                  "internalType": "bytes",
                  "name": "extraData",
                  "type": "bytes"
                }
              ],
              "internalType": "struct SignatureRequest",
              "name": "signature",
              "type": "tuple"
            }
          ],
          "internalType": "struct SismoConnectRequest",
          "name": "",
          "type": "tuple"
        }
      ],
      "stateMutability": "pure",
      "type": "function"
    },
    {
      "inputs": [
        {
          "components": [
            {
              "internalType": "enum AuthType",
              "name": "authType",
              "type": "uint8"
            },
            {
              "internalType": "uint256",
              "name": "userId",
              "type": "uint256"
            },
            {
              "internalType": "bool",
              "name": "isAnon",
              "type": "bool"
            },
            {
              "internalType": "bool",
              "name": "isOptional",
              "type": "bool"
            },
            {
              "internalType": "bool",
              "name": "isSelectableByUser",
              "type": "bool"
            },
            {
              "internalType": "bytes",
              "name": "extraData",
              "type": "bytes"
            }
          ],
          "internalType": "struct AuthRequest",
          "name": "auth",
          "type": "tuple"
        },
        {
          "components": [
            {
              "internalType": "enum ClaimType",
              "name": "claimType",
              "type": "uint8"
            },
            {
              "internalType": "bytes16",
              "name": "groupId",
              "type": "bytes16"
            },
            {
              "internalType": "bytes16",
              "name": "groupTimestamp",
              "type": "bytes16"
            },
            {
              "internalType": "uint256",
              "name": "value",
              "type": "uint256"
            },
            {
              "internalType": "bool",
              "name": "isOptional",
              "type": "bool"
            },
            {
              "internalType": "bool",
              "name": "isSelectableByUser",
              "type": "bool"
            },
            {
              "internalType": "bytes",
              "name": "extraData",
              "type": "bytes"
            }
          ],
          "internalType": "struct ClaimRequest",
          "name": "claim",
          "type": "tuple"
        }
      ],
      "name": "build",
      "outputs": [
        {
          "components": [
            {
              "internalType": "bytes16",
              "name": "namespace",
              "type": "bytes16"
            },
            {
              "components": [
                {
                  "internalType": "enum AuthType",
                  "name": "authType",
                  "type": "uint8"
                },
                {
                  "internalType": "uint256",
                  "name": "userId",
                  "type": "uint256"
                },
                {
                  "internalType": "bool",
                  "name": "isAnon",
                  "type": "bool"
                },
                {
                  "internalType": "bool",
                  "name": "isOptional",
                  "type": "bool"
                },
                {
                  "internalType": "bool",
                  "name": "isSelectableByUser",
                  "type": "bool"
                },
                {
                  "internalType": "bytes",
                  "name": "extraData",
                  "type": "bytes"
                }
              ],
              "internalType": "struct AuthRequest[]",
              "name": "auths",
              "type": "tuple[]"
            },
            {
              "components": [
                {
                  "internalType": "enum ClaimType",
                  "name": "claimType",
                  "type": "uint8"
                },
                {
                  "internalType": "bytes16",
                  "name": "groupId",
                  "type": "bytes16"
                },
                {
                  "internalType": "bytes16",
                  "name": "groupTimestamp",
                  "type": "bytes16"
                },
                {
                  "internalType": "uint256",
                  "name": "value",
                  "type": "uint256"
                },
                {
                  "internalType": "bool",
                  "name": "isOptional",
                  "type": "bool"
                },
                {
                  "internalType": "bool",
                  "name": "isSelectableByUser",
                  "type": "bool"
                },
                {
                  "internalType": "bytes",
                  "name": "extraData",
                  "type": "bytes"
                }
              ],
              "internalType": "struct ClaimRequest[]",
              "name": "claims",
              "type": "tuple[]"
            },
            {
              "components": [
                {
                  "internalType": "bytes",
                  "name": "message",
                  "type": "bytes"
                },
                {
                  "internalType": "bool",
                  "name": "isSelectableByUser",
                  "type": "bool"
                },
                {
                  "internalType": "bytes",
                  "name": "extraData",
                  "type": "bytes"
                }
              ],
              "internalType": "struct SignatureRequest",
              "name": "signature",
              "type": "tuple"
            }
          ],
          "internalType": "struct SismoConnectRequest",
          "name": "",
          "type": "tuple"
        }
      ],
      "stateMutability": "view",
      "type": "function"
    },
    {
      "inputs": [
        {
          "components": [
            {
              "internalType": "enum AuthType",
              "name": "authType",
              "type": "uint8"
            },
            {
              "internalType": "uint256",
              "name": "userId",
              "type": "uint256"
            },
            {
              "internalType": "bool",
              "name": "isAnon",
              "type": "bool"
            },
            {
              "internalType": "bool",
              "name": "isOptional",
              "type": "bool"
            },
            {
              "internalType": "bool",
              "name": "isSelectableByUser",
              "type": "bool"
            },
            {
              "internalType": "bytes",
              "name": "extraData",
              "type": "bytes"
            }
          ],
          "internalType": "struct AuthRequest[]",
          "name": "auths",
          "type": "tuple[]"
        },
        {
          "components": [
            {
              "internalType": "enum ClaimType",
              "name": "claimType",
              "type": "uint8"
            },
            {
              "internalType": "bytes16",
              "name": "groupId",
              "type": "bytes16"
            },
            {
              "internalType": "bytes16",
              "name": "groupTimestamp",
              "type": "bytes16"
            },
            {
              "internalType": "uint256",
              "name": "value",
              "type": "uint256"
            },
            {
              "internalType": "bool",
              "name": "isOptional",
              "type": "bool"
            },
            {
              "internalType": "bool",
              "name": "isSelectableByUser",
              "type": "bool"
            },
            {
              "internalType": "bytes",
              "name": "extraData",
              "type": "bytes"
            }
          ],
          "internalType": "struct ClaimRequest[]",
          "name": "claims",
          "type": "tuple[]"
        },
        {
          "components": [
            {
              "internalType": "bytes",
              "name": "message",
              "type": "bytes"
            },
            {
              "internalType": "bool",
              "name": "isSelectableByUser",
              "type": "bool"
            },
            {
              "internalType": "bytes",
              "name": "extraData",
              "type": "bytes"
            }
          ],
          "internalType": "struct SignatureRequest",
          "name": "signature",
          "type": "tuple"
        },
        {
          "internalType": "bytes16",
          "name": "namespace",
          "type": "bytes16"
        }
      ],
      "name": "build",
      "outputs": [
        {
          "components": [
            {
              "internalType": "bytes16",
              "name": "namespace",
              "type": "bytes16"
            },
            {
              "components": [
                {
                  "internalType": "enum AuthType",
                  "name": "authType",
                  "type": "uint8"
                },
                {
                  "internalType": "uint256",
                  "name": "userId",
                  "type": "uint256"
                },
                {
                  "internalType": "bool",
                  "name": "isAnon",
                  "type": "bool"
                },
                {
                  "internalType": "bool",
                  "name": "isOptional",
                  "type": "bool"
                },
                {
                  "internalType": "bool",
                  "name": "isSelectableByUser",
                  "type": "bool"
                },
                {
                  "internalType": "bytes",
                  "name": "extraData",
                  "type": "bytes"
                }
              ],
              "internalType": "struct AuthRequest[]",
              "name": "auths",
              "type": "tuple[]"
            },
            {
              "components": [
                {
                  "internalType": "enum ClaimType",
                  "name": "claimType",
                  "type": "uint8"
                },
                {
                  "internalType": "bytes16",
                  "name": "groupId",
                  "type": "bytes16"
                },
                {
                  "internalType": "bytes16",
                  "name": "groupTimestamp",
                  "type": "bytes16"
                },
                {
                  "internalType": "uint256",
                  "name": "value",
                  "type": "uint256"
                },
                {
                  "internalType": "bool",
                  "name": "isOptional",
                  "type": "bool"
                },
                {
                  "internalType": "bool",
                  "name": "isSelectableByUser",
                  "type": "bool"
                },
                {
                  "internalType": "bytes",
                  "name": "extraData",
                  "type": "bytes"
                }
              ],
              "internalType": "struct ClaimRequest[]",
              "name": "claims",
              "type": "tuple[]"
            },
            {
              "components": [
                {
                  "internalType": "bytes",
                  "name": "message",
                  "type": "bytes"
                },
                {
                  "internalType": "bool",
                  "name": "isSelectableByUser",
                  "type": "bool"
                },
                {
                  "internalType": "bytes",
                  "name": "extraData",
                  "type": "bytes"
                }
              ],
              "internalType": "struct SignatureRequest",
              "name": "signature",
              "type": "tuple"
            }
          ],
          "internalType": "struct SismoConnectRequest",
          "name": "",
          "type": "tuple"
        }
      ],
      "stateMutability": "pure",
      "type": "function"
    },
    {
      "inputs": [
        {
          "components": [
            {
              "internalType": "enum AuthType",
              "name": "authType",
              "type": "uint8"
            },
            {
              "internalType": "uint256",
              "name": "userId",
              "type": "uint256"
            },
            {
              "internalType": "bool",
              "name": "isAnon",
              "type": "bool"
            },
            {
              "internalType": "bool",
              "name": "isOptional",
              "type": "bool"
            },
            {
              "internalType": "bool",
              "name": "isSelectableByUser",
              "type": "bool"
            },
            {
              "internalType": "bytes",
              "name": "extraData",
              "type": "bytes"
            }
          ],
          "internalType": "struct AuthRequest",
          "name": "auth",
          "type": "tuple"
        },
        {
          "components": [
            {
              "internalType": "enum ClaimType",
              "name": "claimType",
              "type": "uint8"
            },
            {
              "internalType": "bytes16",
              "name": "groupId",
              "type": "bytes16"
            },
            {
              "internalType": "bytes16",
              "name": "groupTimestamp",
              "type": "bytes16"
            },
            {
              "internalType": "uint256",
              "name": "value",
              "type": "uint256"
            },
            {
              "internalType": "bool",
              "name": "isOptional",
              "type": "bool"
            },
            {
              "internalType": "bool",
              "name": "isSelectableByUser",
              "type": "bool"
            },
            {
              "internalType": "bytes",
              "name": "extraData",
              "type": "bytes"
            }
          ],
          "internalType": "struct ClaimRequest",
          "name": "claim",
          "type": "tuple"
        },
        {
          "components": [
            {
              "internalType": "bytes",
              "name": "message",
              "type": "bytes"
            },
            {
              "internalType": "bool",
              "name": "isSelectableByUser",
              "type": "bool"
            },
            {
              "internalType": "bytes",
              "name": "extraData",
              "type": "bytes"
            }
          ],
          "internalType": "struct SignatureRequest",
          "name": "signature",
          "type": "tuple"
        },
        {
          "internalType": "bytes16",
          "name": "namespace",
          "type": "bytes16"
        }
      ],
      "name": "build",
      "outputs": [
        {
          "components": [
            {
              "internalType": "bytes16",
              "name": "namespace",
              "type": "bytes16"
            },
            {
              "components": [
                {
                  "internalType": "enum AuthType",
                  "name": "authType",
                  "type": "uint8"
                },
                {
                  "internalType": "uint256",
                  "name": "userId",
                  "type": "uint256"
                },
                {
                  "internalType": "bool",
                  "name": "isAnon",
                  "type": "bool"
                },
                {
                  "internalType": "bool",
                  "name": "isOptional",
                  "type": "bool"
                },
                {
                  "internalType": "bool",
                  "name": "isSelectableByUser",
                  "type": "bool"
                },
                {
                  "internalType": "bytes",
                  "name": "extraData",
                  "type": "bytes"
                }
              ],
              "internalType": "struct AuthRequest[]",
              "name": "auths",
              "type": "tuple[]"
            },
            {
              "components": [
                {
                  "internalType": "enum ClaimType",
                  "name": "claimType",
                  "type": "uint8"
                },
                {
                  "internalType": "bytes16",
                  "name": "groupId",
                  "type": "bytes16"
                },
                {
                  "internalType": "bytes16",
                  "name": "groupTimestamp",
                  "type": "bytes16"
                },
                {
                  "internalType": "uint256",
                  "name": "value",
                  "type": "uint256"
                },
                {
                  "internalType": "bool",
                  "name": "isOptional",
                  "type": "bool"
                },
                {
                  "internalType": "bool",
                  "name": "isSelectableByUser",
                  "type": "bool"
                },
                {
                  "internalType": "bytes",
                  "name": "extraData",
                  "type": "bytes"
                }
              ],
              "internalType": "struct ClaimRequest[]",
              "name": "claims",
              "type": "tuple[]"
            },
            {
              "components": [
                {
                  "internalType": "bytes",
                  "name": "message",
                  "type": "bytes"
                },
                {
                  "internalType": "bool",
                  "name": "isSelectableByUser",
                  "type": "bool"
                },
                {
                  "internalType": "bytes",
                  "name": "extraData",
                  "type": "bytes"
                }
              ],
              "internalType": "struct SignatureRequest",
              "name": "signature",
              "type": "tuple"
            }
          ],
          "internalType": "struct SismoConnectRequest",
          "name": "",
          "type": "tuple"
        }
      ],
      "stateMutability": "pure",
      "type": "function"
    },
    {
      "inputs": [
        {
          "components": [
            {
              "internalType": "enum ClaimType",
              "name": "claimType",
              "type": "uint8"
            },
            {
              "internalType": "bytes16",
              "name": "groupId",
              "type": "bytes16"
            },
            {
              "internalType": "bytes16",
              "name": "groupTimestamp",
              "type": "bytes16"
            },
            {
              "internalType": "uint256",
              "name": "value",
              "type": "uint256"
            },
            {
              "internalType": "bool",
              "name": "isOptional",
              "type": "bool"
            },
            {
              "internalType": "bool",
              "name": "isSelectableByUser",
              "type": "bool"
            },
            {
              "internalType": "bytes",
              "name": "extraData",
              "type": "bytes"
            }
          ],
          "internalType": "struct ClaimRequest[]",
          "name": "claims",
          "type": "tuple[]"
        },
        {
          "internalType": "bytes16",
          "name": "namespace",
          "type": "bytes16"
        }
      ],
      "name": "build",
      "outputs": [
        {
          "components": [
            {
              "internalType": "bytes16",
              "name": "namespace",
              "type": "bytes16"
            },
            {
              "components": [
                {
                  "internalType": "enum AuthType",
                  "name": "authType",
                  "type": "uint8"
                },
                {
                  "internalType": "uint256",
                  "name": "userId",
                  "type": "uint256"
                },
                {
                  "internalType": "bool",
                  "name": "isAnon",
                  "type": "bool"
                },
                {
                  "internalType": "bool",
                  "name": "isOptional",
                  "type": "bool"
                },
                {
                  "internalType": "bool",
                  "name": "isSelectableByUser",
                  "type": "bool"
                },
                {
                  "internalType": "bytes",
                  "name": "extraData",
                  "type": "bytes"
                }
              ],
              "internalType": "struct AuthRequest[]",
              "name": "auths",
              "type": "tuple[]"
            },
            {
              "components": [
                {
                  "internalType": "enum ClaimType",
                  "name": "claimType",
                  "type": "uint8"
                },
                {
                  "internalType": "bytes16",
                  "name": "groupId",
                  "type": "bytes16"
                },
                {
                  "internalType": "bytes16",
                  "name": "groupTimestamp",
                  "type": "bytes16"
                },
                {
                  "internalType": "uint256",
                  "name": "value",
                  "type": "uint256"
                },
                {
                  "internalType": "bool",
                  "name": "isOptional",
                  "type": "bool"
                },
                {
                  "internalType": "bool",
                  "name": "isSelectableByUser",
                  "type": "bool"
                },
                {
                  "internalType": "bytes",
                  "name": "extraData",
                  "type": "bytes"
                }
              ],
              "internalType": "struct ClaimRequest[]",
              "name": "claims",
              "type": "tuple[]"
            },
            {
              "components": [
                {
                  "internalType": "bytes",
                  "name": "message",
                  "type": "bytes"
                },
                {
                  "internalType": "bool",
                  "name": "isSelectableByUser",
                  "type": "bool"
                },
                {
                  "internalType": "bytes",
                  "name": "extraData",
                  "type": "bytes"
                }
              ],
              "internalType": "struct SignatureRequest",
              "name": "signature",
              "type": "tuple"
            }
          ],
          "internalType": "struct SismoConnectRequest",
          "name": "",
          "type": "tuple"
        }
      ],
      "stateMutability": "view",
      "type": "function"
    },
    {
      "inputs": [
        {
          "components": [
            {
              "internalType": "enum AuthType",
              "name": "authType",
              "type": "uint8"
            },
            {
              "internalType": "uint256",
              "name": "userId",
              "type": "uint256"
            },
            {
              "internalType": "bool",
              "name": "isAnon",
              "type": "bool"
            },
            {
              "internalType": "bool",
              "name": "isOptional",
              "type": "bool"
            },
            {
              "internalType": "bool",
              "name": "isSelectableByUser",
              "type": "bool"
            },
            {
              "internalType": "bytes",
              "name": "extraData",
              "type": "bytes"
            }
          ],
          "internalType": "struct AuthRequest",
          "name": "auth",
          "type": "tuple"
        },
        {
          "components": [
            {
              "internalType": "enum ClaimType",
              "name": "claimType",
              "type": "uint8"
            },
            {
              "internalType": "bytes16",
              "name": "groupId",
              "type": "bytes16"
            },
            {
              "internalType": "bytes16",
              "name": "groupTimestamp",
              "type": "bytes16"
            },
            {
              "internalType": "uint256",
              "name": "value",
              "type": "uint256"
            },
            {
              "internalType": "bool",
              "name": "isOptional",
              "type": "bool"
            },
            {
              "internalType": "bool",
              "name": "isSelectableByUser",
              "type": "bool"
            },
            {
              "internalType": "bytes",
              "name": "extraData",
              "type": "bytes"
            }
          ],
          "internalType": "struct ClaimRequest",
          "name": "claim",
          "type": "tuple"
        },
        {
          "components": [
            {
              "internalType": "bytes",
              "name": "message",
              "type": "bytes"
            },
            {
              "internalType": "bool",
              "name": "isSelectableByUser",
              "type": "bool"
            },
            {
              "internalType": "bytes",
              "name": "extraData",
              "type": "bytes"
            }
          ],
          "internalType": "struct SignatureRequest",
          "name": "signature",
          "type": "tuple"
        }
      ],
      "name": "build",
      "outputs": [
        {
          "components": [
            {
              "internalType": "bytes16",
              "name": "namespace",
              "type": "bytes16"
            },
            {
              "components": [
                {
                  "internalType": "enum AuthType",
                  "name": "authType",
                  "type": "uint8"
                },
                {
                  "internalType": "uint256",
                  "name": "userId",
                  "type": "uint256"
                },
                {
                  "internalType": "bool",
                  "name": "isAnon",
                  "type": "bool"
                },
                {
                  "internalType": "bool",
                  "name": "isOptional",
                  "type": "bool"
                },
                {
                  "internalType": "bool",
                  "name": "isSelectableByUser",
                  "type": "bool"
                },
                {
                  "internalType": "bytes",
                  "name": "extraData",
                  "type": "bytes"
                }
              ],
              "internalType": "struct AuthRequest[]",
              "name": "auths",
              "type": "tuple[]"
            },
            {
              "components": [
                {
                  "internalType": "enum ClaimType",
                  "name": "claimType",
                  "type": "uint8"
                },
                {
                  "internalType": "bytes16",
                  "name": "groupId",
                  "type": "bytes16"
                },
                {
                  "internalType": "bytes16",
                  "name": "groupTimestamp",
                  "type": "bytes16"
                },
                {
                  "internalType": "uint256",
                  "name": "value",
                  "type": "uint256"
                },
                {
                  "internalType": "bool",
                  "name": "isOptional",
                  "type": "bool"
                },
                {
                  "internalType": "bool",
                  "name": "isSelectableByUser",
                  "type": "bool"
                },
                {
                  "internalType": "bytes",
                  "name": "extraData",
                  "type": "bytes"
                }
              ],
              "internalType": "struct ClaimRequest[]",
              "name": "claims",
              "type": "tuple[]"
            },
            {
              "components": [
                {
                  "internalType": "bytes",
                  "name": "message",
                  "type": "bytes"
                },
                {
                  "internalType": "bool",
                  "name": "isSelectableByUser",
                  "type": "bool"
                },
                {
                  "internalType": "bytes",
                  "name": "extraData",
                  "type": "bytes"
                }
              ],
              "internalType": "struct SignatureRequest",
              "name": "signature",
              "type": "tuple"
            }
          ],
          "internalType": "struct SismoConnectRequest",
          "name": "",
          "type": "tuple"
        }
      ],
      "stateMutability": "pure",
      "type": "function"
    }
  ],
  "bytecode": {
    "object": "0x608060405260405180606001604052806040518060400160405280601881526020017f4d4553534147455f53454c45435445445f42595f5553455200000000000000008152508152602001600015158152602001604051806020016040528060008152508152506000808201518160000190816200007e919062000347565b5060208201518160010160006101000a81548160ff0219169083151502179055506040820151816002019081620000b6919062000347565b505050348015620000c657600080fd5b506200042e565b600081519050919050565b7f4e487b7100000000000000000000000000000000000000000000000000000000600052604160045260246000fd5b7f4e487b7100000000000000000000000000000000000000000000000000000000600052602260045260246000fd5b600060028204905060018216806200014f57607f821691505b60208210810362000165576200016462000107565b5b50919050565b60008190508160005260206000209050919050565b60006020601f8301049050919050565b600082821b905092915050565b600060088302620001cf7fffffffffffffffffffffffffffffffffffffffffffffffffffffffffffffffff8262000190565b620001db868362000190565b95508019841693508086168417925050509392505050565b6000819050919050565b6000819050919050565b600062000228620002226200021c84620001f3565b620001fd565b620001f3565b9050919050565b6000819050919050565b620002448362000207565b6200025c62000253826200022f565b8484546200019d565b825550505050565b600090565b6200027362000264565b6200028081848462000239565b505050565b5b81811015620002a8576200029c60008262000269565b60018101905062000286565b5050565b601f821115620002f757620002c1816200016b565b620002cc8462000180565b81016020851015620002dc578190505b620002f4620002eb8562000180565b83018262000285565b50505b505050565b600082821c905092915050565b60006200031c60001984600802620002fc565b1980831691505092915050565b600062000337838362000309565b9150826002028217905092915050565b6200035282620000cd565b67ffffffffffffffff8111156200036e576200036d620000d8565b5b6200037a825462000136565b62000387828285620002ac565b600060209050601f831160018114620003bf5760008415620003aa578287015190505b620003b6858262000329565b86555062000426565b601f198416620003cf866200016b565b60005b82811015620003f957848901518255600182019150602085019450602081019050620003d2565b8683101562000419578489015162000415601f89168262000309565b8355505b6001600288020188555050505b505050505050565b6143bb806200043e6000396000f3fe608060405234801561001057600080fd5b50600436106101735760003560e01c80639266f47c116100de578063d7ccd8da11610097578063e48cd72111610071578063e48cd72114610556578063e93f38b814610586578063f1c1e209146105b6578063f2d3f1f6146105e657610173565b8063d7ccd8da146104c6578063dd108267146104f6578063dde11c7c1461052657610173565b80639266f47c146103a657806399240336146103d6578063a156e2d814610406578063b33cd32314610436578063b5ae258714610466578063c9f97f531461049657610173565b806327b5b7c31161013057806327b5b7c3146102865780632ceb1e8d146102b657806331560e75146102e657806348fd24cc14610316578063548525771461034657806391ba07f31461037657610173565b8063080b53f8146101785780630e58be05146101a857806310c5d31b146101d857806311f83e201461020857806314ddafa3146102385780631b399c9914610268575b600080fd5b610192600480360381019061018d9190612f20565b610616565b60405161019f9190613458565b60405180910390f35b6101c260048036038101906101bd919061347a565b610878565b6040516101cf9190613458565b60405180910390f35b6101f260048036038101906101ed9190613640565b610af9565b6040516101ff9190613458565b60405180910390f35b610222600480360381019061021d91906137b1565b610c11565b60405161022f9190613458565b60405180910390f35b610252600480360381019061024d91906138db565b610e18565b60405161025f9190613458565b60405180910390f35b610270610eb6565b60405161027d9190613975565b60405180910390f35b6102a0600480360381019061029b9190613990565b610eda565b6040516102ad9190613458565b60405180910390f35b6102d060048036038101906102cb91906139ec565b6110c2565b6040516102dd9190613458565b60405180910390f35b61030060048036038101906102fb9190613a64565b61117f565b60405161030d9190613458565b60405180910390f35b610330600480360381019061032b9190613aef565b611403565b60405161033d9190613458565b60405180910390f35b610360600480360381019061035b9190613b67565b61153a565b60405161036d9190613458565b60405180910390f35b610390600480360381019061038b9190613bf2565b611652565b60405161039d9190613458565b60405180910390f35b6103c060048036038101906103bb9190613c4e565b6118b4565b6040516103cd9190613458565b60405180910390f35b6103f060048036038101906103eb9190613cd9565b611a44565b6040516103fd9190613458565b60405180910390f35b610420600480360381019061041b9190613d80565b611aa9565b60405161042d9190613458565b60405180910390f35b610450600480360381019061044b9190613df8565b611c58565b60405161045d9190613458565b60405180910390f35b610480600480360381019061047b9190613e41565b611e5f565b60405161048d9190613458565b60405180910390f35b6104b060048036038101906104ab9190613eb9565b611f1c565b6040516104bd9190613458565b60405180910390f35b6104e060048036038101906104db9190613f31565b612053565b6040516104ed9190613458565b60405180910390f35b610510600480360381019061050b9190613f7a565b6122d4565b60405161051d9190613458565b60405180910390f35b610540600480360381019061053b9190614005565b612372565b60405161054d9190613458565b60405180910390f35b610570600480360381019061056b919061407d565b612615565b60405161057d9190613458565b60405180910390f35b6105a0600480360381019061059b9190614138565b61265b565b6040516105ad9190613458565b60405180910390f35b6105d060048036038101906105cb91906141f3565b612795565b6040516105dd9190613458565b60405180910390f35b61060060048036038101906105fb919061424f565b61297d565b60405161060d9190613458565b60405180910390f35b61061e612ad6565b60008067ffffffffffffffff81111561063a57610639612c2b565b5b60405190808252806020026020018201604052801561067357816020015b610660612b17565b8152602001906001900390816106585790505b5090506000600167ffffffffffffffff81111561069357610692612c2b565b5b6040519080825280602002602001820160405280156106cc57816020015b6106b9612b65565b8152602001906001900390816106b15790505b50905084816000815181106106e4576106e36142f6565b5b60200260200101819052506040518060800160405280856fffffffffffffffffffffffffffffffff19168152602001838152602001828152602001600060405180606001604052908160008201805461073c90614354565b80601f016020809104026020016040519081016040528092919081815260200182805461076890614354565b80156107b55780601f1061078a576101008083540402835291602001916107b5565b820191906000526020600020905b81548152906001019060200180831161079857829003601f168201915b505050505081526020016001820160009054906101000a900460ff161515151581526020016002820180546107e990614354565b80601f016020809104026020016040519081016040528092919081815260200182805461081590614354565b80156108625780601f1061083757610100808354040283529160200191610862565b820191906000526020600020905b81548152906001019060200180831161084557829003601f168201915b5050505050815250508152509250505092915050565b610880612ad6565b60008067ffffffffffffffff81111561089c5761089b612c2b565b5b6040519080825280602002602001820160405280156108d557816020015b6108c2612b17565b8152602001906001900390816108ba5790505b5090506000600167ffffffffffffffff8111156108f5576108f4612c2b565b5b60405190808252806020026020018201604052801561092e57816020015b61091b612b65565b8152602001906001900390816109135790505b5090508381600081518110610946576109456142f6565b5b602002602001018190525060405180608001604052807fb8e2054f8a912367e38a22ce773328ff8aabf8082c4120bad9ef085e1dbf29a76fffffffffffffffffffffffffffffffff1916815260200183815260200182815260200160006040518060600160405290816000820180546109be90614354565b80601f01602080910402602001604051908101604052809291908181526020018280546109ea90614354565b8015610a375780601f10610a0c57610100808354040283529160200191610a37565b820191906000526020600020905b815481529060010190602001808311610a1a57829003601f168201915b505050505081526020016001820160009054906101000a900460ff16151515158152602001600282018054610a6b90614354565b80601f0160208091040260200160405190810160405280929190818152602001828054610a9790614354565b8015610ae45780601f10610ab957610100808354040283529160200191610ae4565b820191906000526020600020905b815481529060010190602001808311610ac757829003601f168201915b50505050508152505081525092505050919050565b610b01612ad6565b6000600167ffffffffffffffff811115610b1e57610b1d612c2b565b5b604051908082528060200260200182016040528015610b5757816020015b610b44612b17565b815260200190600190039081610b3c5790505b5090508481600081518110610b6f57610b6e6142f6565b5b602002602001018190525060008067ffffffffffffffff811115610b9657610b95612c2b565b5b604051908082528060200260200182016040528015610bcf57816020015b610bbc612b65565b815260200190600190039081610bb45790505b5090506040518060800160405280856fffffffffffffffffffffffffffffffff1916815260200183815260200182815260200186815250925050509392505050565b610c19612ad6565b60008067ffffffffffffffff811115610c3557610c34612c2b565b5b604051908082528060200260200182016040528015610c6e57816020015b610c5b612b65565b815260200190600190039081610c535790505b50905060405180608001604052807fb8e2054f8a912367e38a22ce773328ff8aabf8082c4120bad9ef085e1dbf29a76fffffffffffffffffffffffffffffffff191681526020018481526020018281526020016000604051806060016040529081600082018054610cde90614354565b80601f0160208091040260200160405190810160405280929190818152602001828054610d0a90614354565b8015610d575780601f10610d2c57610100808354040283529160200191610d57565b820191906000526020600020905b815481529060010190602001808311610d3a57829003601f168201915b505050505081526020016001820160009054906101000a900460ff16151515158152602001600282018054610d8b90614354565b80601f0160208091040260200160405190810160405280929190818152602001828054610db790614354565b8015610e045780601f10610dd957610100808354040283529160200191610e04565b820191906000526020600020905b815481529060010190602001808311610de757829003601f168201915b505050505081525050815250915050919050565b610e20612ad6565b60008067ffffffffffffffff811115610e3c57610e3b612c2b565b5b604051908082528060200260200182016040528015610e7557816020015b610e62612b17565b815260200190600190039081610e5a5790505b5090506040518060800160405280846fffffffffffffffffffffffffffffffff19168152602001828152602001868152602001858152509150509392505050565b7fb8e2054f8a912367e38a22ce773328ff8aabf8082c4120bad9ef085e1dbf29a781565b610ee2612ad6565b60008067ffffffffffffffff811115610efe57610efd612c2b565b5b604051908082528060200260200182016040528015610f3757816020015b610f24612b65565b815260200190600190039081610f1c5790505b5090506040518060800160405280846fffffffffffffffffffffffffffffffff191681526020018581526020018281526020016000604051806060016040529081600082018054610f8790614354565b80601f0160208091040260200160405190810160405280929190818152602001828054610fb390614354565b80156110005780601f10610fd557610100808354040283529160200191611000565b820191906000526020600020905b815481529060010190602001808311610fe357829003601f168201915b505050505081526020016001820160009054906101000a900460ff1615151515815260200160028201805461103490614354565b80601f016020809104026020016040519081016040528092919081815260200182805461106090614354565b80156110ad5780601f10611082576101008083540402835291602001916110ad565b820191906000526020600020905b81548152906001019060200180831161109057829003601f168201915b50505050508152505081525091505092915050565b6110ca612ad6565b60008067ffffffffffffffff8111156110e6576110e5612c2b565b5b60405190808252806020026020018201604052801561111f57816020015b61110c612b65565b8152602001906001900390816111045790505b50905060405180608001604052807fb8e2054f8a912367e38a22ce773328ff8aabf8082c4120bad9ef085e1dbf29a76fffffffffffffffffffffffffffffffff191681526020018581526020018281526020018481525091505092915050565b611187612ad6565b6000600167ffffffffffffffff8111156111a4576111a3612c2b565b5b6040519080825280602002602001820160405280156111dd57816020015b6111ca612b17565b8152602001906001900390816111c25790505b50905084816000815181106111f5576111f46142f6565b5b60200260200101819052506000600167ffffffffffffffff81111561121d5761121c612c2b565b5b60405190808252806020026020018201604052801561125657816020015b611243612b65565b81526020019060019003908161123b5790505b509050848160008151811061126e5761126d6142f6565b5b60200260200101819052506040518060800160405280856fffffffffffffffffffffffffffffffff1916815260200183815260200182815260200160006040518060600160405290816000820180546112c690614354565b80601f01602080910402602001604051908101604052809291908181526020018280546112f290614354565b801561133f5780601f106113145761010080835404028352916020019161133f565b820191906000526020600020905b81548152906001019060200180831161132257829003601f168201915b505050505081526020016001820160009054906101000a900460ff1615151515815260200160028201805461137390614354565b80601f016020809104026020016040519081016040528092919081815260200182805461139f90614354565b80156113ec5780601f106113c1576101008083540402835291602001916113ec565b820191906000526020600020905b8154815290600101906020018083116113cf57829003601f168201915b505050505081525050815250925050509392505050565b61140b612ad6565b6000600167ffffffffffffffff81111561142857611427612c2b565b5b60405190808252806020026020018201604052801561146157816020015b61144e612b17565b8152602001906001900390816114465790505b5090508381600081518110611479576114786142f6565b5b602002602001018190525060008067ffffffffffffffff8111156114a05761149f612c2b565b5b6040519080825280602002602001820160405280156114d957816020015b6114c6612b65565b8152602001906001900390816114be5790505b50905060405180608001604052807fb8e2054f8a912367e38a22ce773328ff8aabf8082c4120bad9ef085e1dbf29a76fffffffffffffffffffffffffffffffff19168152602001838152602001828152602001858152509250505092915050565b611542612ad6565b60008067ffffffffffffffff81111561155e5761155d612c2b565b5b60405190808252806020026020018201604052801561159757816020015b611584612b17565b81526020019060019003908161157c5790505b5090506000600167ffffffffffffffff8111156115b7576115b6612c2b565b5b6040519080825280602002602001820160405280156115f057816020015b6115dd612b65565b8152602001906001900390816115d55790505b5090508581600081518110611608576116076142f6565b5b60200260200101819052506040518060800160405280856fffffffffffffffffffffffffffffffff1916815260200183815260200182815260200186815250925050509392505050565b61165a612ad6565b6000600167ffffffffffffffff81111561167757611676612c2b565b5b6040519080825280602002602001820160405280156116b057816020015b61169d612b17565b8152602001906001900390816116955790505b50905083816000815181106116c8576116c76142f6565b5b602002602001018190525060008067ffffffffffffffff8111156116ef576116ee612c2b565b5b60405190808252806020026020018201604052801561172857816020015b611715612b65565b81526020019060019003908161170d5790505b5090506040518060800160405280856fffffffffffffffffffffffffffffffff19168152602001838152602001828152602001600060405180606001604052908160008201805461177890614354565b80601f01602080910402602001604051908101604052809291908181526020018280546117a490614354565b80156117f15780601f106117c6576101008083540402835291602001916117f1565b820191906000526020600020905b8154815290600101906020018083116117d457829003601f168201915b505050505081526020016001820160009054906101000a900460ff1615151515815260200160028201805461182590614354565b80601f016020809104026020016040519081016040528092919081815260200182805461185190614354565b801561189e5780601f106118735761010080835404028352916020019161189e565b820191906000526020600020905b81548152906001019060200180831161188157829003601f168201915b5050505050815250508152509250505092915050565b6118bc612ad6565b6040518060800160405280836fffffffffffffffffffffffffffffffff19168152602001858152602001848152602001600060405180606001604052908160008201805461190990614354565b80601f016020809104026020016040519081016040528092919081815260200182805461193590614354565b80156119825780601f1061195757610100808354040283529160200191611982565b820191906000526020600020905b81548152906001019060200180831161196557829003601f168201915b505050505081526020016001820160009054906101000a900460ff161515151581526020016002820180546119b690614354565b80601f01602080910402602001604051908101604052809291908181526020018280546119e290614354565b8015611a2f5780601f10611a0457610100808354040283529160200191611a2f565b820191906000526020600020905b815481529060010190602001808311611a1257829003601f168201915b50505050508152505081525090509392505050565b611a4c612ad6565b60405180608001604052807fb8e2054f8a912367e38a22ce773328ff8aabf8082c4120bad9ef085e1dbf29a76fffffffffffffffffffffffffffffffff191681526020018581526020018481526020018381525090509392505050565b611ab1612ad6565b60405180608001604052807fb8e2054f8a912367e38a22ce773328ff8aabf8082c4120bad9ef085e1dbf29a76fffffffffffffffffffffffffffffffff191681526020018481526020018381526020016000604051806060016040529081600082018054611b1e90614354565b80601f0160208091040260200160405190810160405280929190818152602001828054611b4a90614354565b8015611b975780601f10611b6c57610100808354040283529160200191611b97565b820191906000526020600020905b815481529060010190602001808311611b7a57829003601f168201915b505050505081526020016001820160009054906101000a900460ff16151515158152602001600282018054611bcb90614354565b80601f0160208091040260200160405190810160405280929190818152602001828054611bf790614354565b8015611c445780601f10611c1957610100808354040283529160200191611c44565b820191906000526020600020905b815481529060010190602001808311611c2757829003601f168201915b505050505081525050815250905092915050565b611c60612ad6565b60008067ffffffffffffffff811115611c7c57611c7b612c2b565b5b604051908082528060200260200182016040528015611cb557816020015b611ca2612b17565b815260200190600190039081611c9a5790505b50905060405180608001604052807fb8e2054f8a912367e38a22ce773328ff8aabf8082c4120bad9ef085e1dbf29a76fffffffffffffffffffffffffffffffff191681526020018281526020018481526020016000604051806060016040529081600082018054611d2590614354565b80601f0160208091040260200160405190810160405280929190818152602001828054611d5190614354565b8015611d9e5780601f10611d7357610100808354040283529160200191611d9e565b820191906000526020600020905b815481529060010190602001808311611d8157829003601f168201915b505050505081526020016001820160009054906101000a900460ff16151515158152602001600282018054611dd290614354565b80601f0160208091040260200160405190810160405280929190818152602001828054611dfe90614354565b8015611e4b5780601f10611e2057610100808354040283529160200191611e4b565b820191906000526020600020905b815481529060010190602001808311611e2e57829003601f168201915b505050505081525050815250915050919050565b611e67612ad6565b60008067ffffffffffffffff811115611e8357611e82612c2b565b5b604051908082528060200260200182016040528015611ebc57816020015b611ea9612b17565b815260200190600190039081611ea15790505b50905060405180608001604052807fb8e2054f8a912367e38a22ce773328ff8aabf8082c4120bad9ef085e1dbf29a76fffffffffffffffffffffffffffffffff191681526020018281526020018581526020018481525091505092915050565b611f24612ad6565b60008067ffffffffffffffff811115611f4057611f3f612c2b565b5b604051908082528060200260200182016040528015611f7957816020015b611f66612b17565b815260200190600190039081611f5e5790505b5090506000600167ffffffffffffffff811115611f9957611f98612c2b565b5b604051908082528060200260200182016040528015611fd257816020015b611fbf612b65565b815260200190600190039081611fb75790505b5090508481600081518110611fea57611fe96142f6565b5b602002602001018190525060405180608001604052807fb8e2054f8a912367e38a22ce773328ff8aabf8082c4120bad9ef085e1dbf29a76fffffffffffffffffffffffffffffffff19168152602001838152602001828152602001858152509250505092915050565b61205b612ad6565b6000600167ffffffffffffffff81111561207857612077612c2b565b5b6040519080825280602002602001820160405280156120b157816020015b61209e612b17565b8152602001906001900390816120965790505b50905082816000815181106120c9576120c86142f6565b5b602002602001018190525060008067ffffffffffffffff8111156120f0576120ef612c2b565b5b60405190808252806020026020018201604052801561212957816020015b612116612b65565b81526020019060019003908161210e5790505b50905060405180608001604052807fb8e2054f8a912367e38a22ce773328ff8aabf8082c4120bad9ef085e1dbf29a76fffffffffffffffffffffffffffffffff19168152602001838152602001828152602001600060405180606001604052908160008201805461219990614354565b80601f01602080910402602001604051908101604052809291908181526020018280546121c590614354565b80156122125780601f106121e757610100808354040283529160200191612212565b820191906000526020600020905b8154815290600101906020018083116121f557829003601f168201915b505050505081526020016001820160009054906101000a900460ff1615151515815260200160028201805461224690614354565b80601f016020809104026020016040519081016040528092919081815260200182805461227290614354565b80156122bf5780601f10612294576101008083540402835291602001916122bf565b820191906000526020600020905b8154815290600101906020018083116122a257829003601f168201915b50505050508152505081525092505050919050565b6122dc612ad6565b60008067ffffffffffffffff8111156122f8576122f7612c2b565b5b60405190808252806020026020018201604052801561233157816020015b61231e612b65565b8152602001906001900390816123165790505b5090506040518060800160405280846fffffffffffffffffffffffffffffffff19168152602001868152602001828152602001858152509150509392505050565b61237a612ad6565b6000600167ffffffffffffffff81111561239757612396612c2b565b5b6040519080825280602002602001820160405280156123d057816020015b6123bd612b17565b8152602001906001900390816123b55790505b50905083816000815181106123e8576123e76142f6565b5b60200260200101819052506000600167ffffffffffffffff8111156124105761240f612c2b565b5b60405190808252806020026020018201604052801561244957816020015b612436612b65565b81526020019060019003908161242e5790505b5090508381600081518110612461576124606142f6565b5b602002602001018190525060405180608001604052807fb8e2054f8a912367e38a22ce773328ff8aabf8082c4120bad9ef085e1dbf29a76fffffffffffffffffffffffffffffffff1916815260200183815260200182815260200160006040518060600160405290816000820180546124d990614354565b80601f016020809104026020016040519081016040528092919081815260200182805461250590614354565b80156125525780601f1061252757610100808354040283529160200191612552565b820191906000526020600020905b81548152906001019060200180831161253557829003601f168201915b505050505081526020016001820160009054906101000a900460ff1615151515815260200160028201805461258690614354565b80601f01602080910402602001604051908101604052809291908181526020018280546125b290614354565b80156125ff5780601f106125d4576101008083540402835291602001916125ff565b820191906000526020600020905b8154815290600101906020018083116125e257829003601f168201915b5050505050815250508152509250505092915050565b61261d612ad6565b6040518060800160405280836fffffffffffffffffffffffffffffffff19168152602001868152602001858152602001848152509050949350505050565b612663612ad6565b6000600167ffffffffffffffff8111156126805761267f612c2b565b5b6040519080825280602002602001820160405280156126b957816020015b6126a6612b17565b81526020019060019003908161269e5790505b50905085816000815181106126d1576126d06142f6565b5b60200260200101819052506000600167ffffffffffffffff8111156126f9576126f8612c2b565b5b60405190808252806020026020018201604052801561273257816020015b61271f612b65565b8152602001906001900390816127175790505b509050858160008151811061274a576127496142f6565b5b60200260200101819052506040518060800160405280856fffffffffffffffffffffffffffffffff191681526020018381526020018281526020018681525092505050949350505050565b61279d612ad6565b60008067ffffffffffffffff8111156127b9576127b8612c2b565b5b6040519080825280602002602001820160405280156127f257816020015b6127df612b17565b8152602001906001900390816127d75790505b5090506040518060800160405280846fffffffffffffffffffffffffffffffff19168152602001828152602001858152602001600060405180606001604052908160008201805461284290614354565b80601f016020809104026020016040519081016040528092919081815260200182805461286e90614354565b80156128bb5780601f10612890576101008083540402835291602001916128bb565b820191906000526020600020905b81548152906001019060200180831161289e57829003601f168201915b505050505081526020016001820160009054906101000a900460ff161515151581526020016002820180546128ef90614354565b80601f016020809104026020016040519081016040528092919081815260200182805461291b90614354565b80156129685780601f1061293d57610100808354040283529160200191612968565b820191906000526020600020905b81548152906001019060200180831161294b57829003601f168201915b50505050508152505081525091505092915050565b612985612ad6565b6000600167ffffffffffffffff8111156129a2576129a1612c2b565b5b6040519080825280602002602001820160405280156129db57816020015b6129c8612b17565b8152602001906001900390816129c05790505b50905084816000815181106129f3576129f26142f6565b5b60200260200101819052506000600167ffffffffffffffff811115612a1b57612a1a612c2b565b5b604051908082528060200260200182016040528015612a5457816020015b612a41612b65565b815260200190600190039081612a395790505b5090508481600081518110612a6c57612a6b6142f6565b5b602002602001018190525060405180608001604052807fb8e2054f8a912367e38a22ce773328ff8aabf8082c4120bad9ef085e1dbf29a76fffffffffffffffffffffffffffffffff1916815260200183815260200182815260200185815250925050509392505050565b604051806080016040528060006fffffffffffffffffffffffffffffffff191681526020016060815260200160608152602001612b11612bde565b81525090565b6040518060c0016040528060006005811115612b3657612b35612fb7565b5b815260200160008152602001600015158152602001600015158152602001600015158152602001606081525090565b6040518060e0016040528060006004811115612b8457612b83612fb7565b5b815260200160006fffffffffffffffffffffffffffffffff1916815260200160006fffffffffffffffffffffffffffffffff1916815260200160008152602001600015158152602001600015158152602001606081525090565b604051806060016040528060608152602001600015158152602001606081525090565b6000604051905090565b600080fd5b600080fd5b600080fd5b6000601f19601f8301169050919050565b7f4e487b7100000000000000000000000000000000000000000000000000000000600052604160045260246000fd5b612c6382612c1a565b810181811067ffffffffffffffff82111715612c8257612c81612c2b565b5b80604052505050565b6000612c95612c01565b9050612ca18282612c5a565b919050565b600080fd5b60058110612cb857600080fd5b50565b600081359050612cca81612cab565b92915050565b60007fffffffffffffffffffffffffffffffff0000000000000000000000000000000082169050919050565b612d0581612cd0565b8114612d1057600080fd5b50565b600081359050612d2281612cfc565b92915050565b6000819050919050565b612d3b81612d28565b8114612d4657600080fd5b50565b600081359050612d5881612d32565b92915050565b60008115159050919050565b612d7381612d5e565b8114612d7e57600080fd5b50565b600081359050612d9081612d6a565b92915050565b600080fd5b600080fd5b600067ffffffffffffffff821115612dbb57612dba612c2b565b5b612dc482612c1a565b9050602081019050919050565b82818337600083830152505050565b6000612df3612dee84612da0565b612c8b565b905082815260208101848484011115612e0f57612e0e612d9b565b5b612e1a848285612dd1565b509392505050565b600082601f830112612e3757612e36612d96565b5b8135612e47848260208601612de0565b91505092915050565b600060e08284031215612e6657612e65612c15565b5b612e7060e0612c8b565b90506000612e8084828501612cbb565b6000830152506020612e9484828501612d13565b6020830152506040612ea884828501612d13565b6040830152506060612ebc84828501612d49565b6060830152506080612ed084828501612d81565b60808301525060a0612ee484828501612d81565b60a08301525060c082013567ffffffffffffffff811115612f0857612f07612ca6565b5b612f1484828501612e22565b60c08301525092915050565b60008060408385031215612f3757612f36612c0b565b5b600083013567ffffffffffffffff811115612f5557612f54612c10565b5b612f6185828601612e50565b9250506020612f7285828601612d13565b9150509250929050565b612f8581612cd0565b82525050565b600081519050919050565b600082825260208201905092915050565b6000819050602082019050919050565b7f4e487b7100000000000000000000000000000000000000000000000000000000600052602160045260246000fd5b60068110612ff757612ff6612fb7565b5b50565b600081905061300882612fe6565b919050565b600061301882612ffa565b9050919050565b6130288161300d565b82525050565b61303781612d28565b82525050565b61304681612d5e565b82525050565b600081519050919050565b600082825260208201905092915050565b60005b8381101561308657808201518184015260208101905061306b565b60008484015250505050565b600061309d8261304c565b6130a78185613057565b93506130b7818560208601613068565b6130c081612c1a565b840191505092915050565b600060c0830160008301516130e3600086018261301f565b5060208301516130f6602086018261302e565b506040830151613109604086018261303d565b50606083015161311c606086018261303d565b50608083015161312f608086018261303d565b5060a083015184820360a08601526131478282613092565b9150508091505092915050565b600061316083836130cb565b905092915050565b6000602082019050919050565b600061318082612f8b565b61318a8185612f96565b93508360208202850161319c85612fa7565b8060005b858110156131d857848403895281516131b98582613154565b94506131c483613168565b925060208a019950506001810190506131a0565b50829750879550505050505092915050565b600081519050919050565b600082825260208201905092915050565b6000819050602082019050919050565b6005811061322757613226612fb7565b5b50565b600081905061323882613216565b919050565b60006132488261322a565b9050919050565b6132588161323d565b82525050565b600060e083016000830151613276600086018261324f565b5060208301516132896020860182612f7c565b50604083015161329c6040860182612f7c565b5060608301516132af606086018261302e565b5060808301516132c2608086018261303d565b5060a08301516132d560a086018261303d565b5060c083015184820360c08601526132ed8282613092565b9150508091505092915050565b6000613306838361325e565b905092915050565b6000602082019050919050565b6000613326826131ea565b61333081856131f5565b93508360208202850161334285613206565b8060005b8581101561337e578484038952815161335f85826132fa565b945061336a8361330e565b925060208a01995050600181019050613346565b50829750879550505050505092915050565b600060608301600083015184820360008601526133ad8282613092565b91505060208301516133c2602086018261303d565b50604083015184820360408601526133da8282613092565b9150508091505092915050565b60006080830160008301516133ff6000860182612f7c565b50602083015184820360208601526134178282613175565b91505060408301518482036040860152613431828261331b565b9150506060830151848203606086015261344b8282613390565b9150508091505092915050565b6000602082019050818103600083015261347281846133e7565b905092915050565b6000602082840312156134905761348f612c0b565b5b600082013567ffffffffffffffff8111156134ae576134ad612c10565b5b6134ba84828501612e50565b91505092915050565b600681106134d057600080fd5b50565b6000813590506134e2816134c3565b92915050565b600060c082840312156134fe576134fd612c15565b5b61350860c0612c8b565b90506000613518848285016134d3565b600083015250602061352c84828501612d49565b602083015250604061354084828501612d81565b604083015250606061355484828501612d81565b606083015250608061356884828501612d81565b60808301525060a082013567ffffffffffffffff81111561358c5761358b612ca6565b5b61359884828501612e22565b60a08301525092915050565b6000606082840312156135ba576135b9612c15565b5b6135c46060612c8b565b9050600082013567ffffffffffffffff8111156135e4576135e3612ca6565b5b6135f084828501612e22565b600083015250602061360484828501612d81565b602083015250604082013567ffffffffffffffff81111561362857613627612ca6565b5b61363484828501612e22565b60408301525092915050565b60008060006060848603121561365957613658612c0b565b5b600084013567ffffffffffffffff81111561367757613676612c10565b5b613683868287016134e8565b935050602084013567ffffffffffffffff8111156136a4576136a3612c10565b5b6136b0868287016135a4565b92505060406136c186828701612d13565b9150509250925092565b600067ffffffffffffffff8211156136e6576136e5612c2b565b5b602082029050602081019050919050565b600080fd5b600061370f61370a846136cb565b612c8b565b90508083825260208201905060208402830185811115613732576137316136f7565b5b835b8181101561377957803567ffffffffffffffff81111561375757613756612d96565b5b80860161376489826134e8565b85526020850194505050602081019050613734565b5050509392505050565b600082601f83011261379857613797612d96565b5b81356137a88482602086016136fc565b91505092915050565b6000602082840312156137c7576137c6612c0b565b5b600082013567ffffffffffffffff8111156137e5576137e4612c10565b5b6137f184828501613783565b91505092915050565b600067ffffffffffffffff82111561381557613814612c2b565b5b602082029050602081019050919050565b6000613839613834846137fa565b612c8b565b9050808382526020820190506020840283018581111561385c5761385b6136f7565b5b835b818110156138a357803567ffffffffffffffff81111561388157613880612d96565b5b80860161388e8982612e50565b8552602085019450505060208101905061385e565b5050509392505050565b600082601f8301126138c2576138c1612d96565b5b81356138d2848260208601613826565b91505092915050565b6000806000606084860312156138f4576138f3612c0b565b5b600084013567ffffffffffffffff81111561391257613911612c10565b5b61391e868287016138ad565b935050602084013567ffffffffffffffff81111561393f5761393e612c10565b5b61394b868287016135a4565b925050604061395c86828701612d13565b9150509250925092565b61396f81612cd0565b82525050565b600060208201905061398a6000830184613966565b92915050565b600080604083850312156139a7576139a6612c0b565b5b600083013567ffffffffffffffff8111156139c5576139c4612c10565b5b6139d185828601613783565b92505060206139e285828601612d13565b9150509250929050565b60008060408385031215613a0357613a02612c0b565b5b600083013567ffffffffffffffff811115613a2157613a20612c10565b5b613a2d85828601613783565b925050602083013567ffffffffffffffff811115613a4e57613a4d612c10565b5b613a5a858286016135a4565b9150509250929050565b600080600060608486031215613a7d57613a7c612c0b565b5b600084013567ffffffffffffffff811115613a9b57613a9a612c10565b5b613aa7868287016134e8565b935050602084013567ffffffffffffffff811115613ac857613ac7612c10565b5b613ad486828701612e50565b9250506040613ae586828701612d13565b9150509250925092565b60008060408385031215613b0657613b05612c0b565b5b600083013567ffffffffffffffff811115613b2457613b23612c10565b5b613b30858286016134e8565b925050602083013567ffffffffffffffff811115613b5157613b50612c10565b5b613b5d858286016135a4565b9150509250929050565b600080600060608486031215613b8057613b7f612c0b565b5b600084013567ffffffffffffffff811115613b9e57613b9d612c10565b5b613baa86828701612e50565b935050602084013567ffffffffffffffff811115613bcb57613bca612c10565b5b613bd7868287016135a4565b9250506040613be886828701612d13565b9150509250925092565b60008060408385031215613c0957613c08612c0b565b5b600083013567ffffffffffffffff811115613c2757613c26612c10565b5b613c33858286016134e8565b9250506020613c4485828601612d13565b9150509250929050565b600080600060608486031215613c6757613c66612c0b565b5b600084013567ffffffffffffffff811115613c8557613c84612c10565b5b613c9186828701613783565b935050602084013567ffffffffffffffff811115613cb257613cb1612c10565b5b613cbe868287016138ad565b9250506040613ccf86828701612d13565b9150509250925092565b600080600060608486031215613cf257613cf1612c0b565b5b600084013567ffffffffffffffff811115613d1057613d0f612c10565b5b613d1c86828701613783565b935050602084013567ffffffffffffffff811115613d3d57613d3c612c10565b5b613d49868287016138ad565b925050604084013567ffffffffffffffff811115613d6a57613d69612c10565b5b613d76868287016135a4565b9150509250925092565b60008060408385031215613d9757613d96612c0b565b5b600083013567ffffffffffffffff811115613db557613db4612c10565b5b613dc185828601613783565b925050602083013567ffffffffffffffff811115613de257613de1612c10565b5b613dee858286016138ad565b9150509250929050565b600060208284031215613e0e57613e0d612c0b565b5b600082013567ffffffffffffffff811115613e2c57613e2b612c10565b5b613e38848285016138ad565b91505092915050565b60008060408385031215613e5857613e57612c0b565b5b600083013567ffffffffffffffff811115613e7657613e75612c10565b5b613e82858286016138ad565b925050602083013567ffffffffffffffff811115613ea357613ea2612c10565b5b613eaf858286016135a4565b9150509250929050565b60008060408385031215613ed057613ecf612c0b565b5b600083013567ffffffffffffffff811115613eee57613eed612c10565b5b613efa85828601612e50565b925050602083013567ffffffffffffffff811115613f1b57613f1a612c10565b5b613f27858286016135a4565b9150509250929050565b600060208284031215613f4757613f46612c0b565b5b600082013567ffffffffffffffff811115613f6557613f64612c10565b5b613f71848285016134e8565b91505092915050565b600080600060608486031215613f9357613f92612c0b565b5b600084013567ffffffffffffffff811115613fb157613fb0612c10565b5b613fbd86828701613783565b935050602084013567ffffffffffffffff811115613fde57613fdd612c10565b5b613fea868287016135a4565b9250506040613ffb86828701612d13565b9150509250925092565b6000806040838503121561401c5761401b612c0b565b5b600083013567ffffffffffffffff81111561403a57614039612c10565b5b614046858286016134e8565b925050602083013567ffffffffffffffff81111561406757614066612c10565b5b61407385828601612e50565b9150509250929050565b6000806000806080858703121561409757614096612c0b565b5b600085013567ffffffffffffffff8111156140b5576140b4612c10565b5b6140c187828801613783565b945050602085013567ffffffffffffffff8111156140e2576140e1612c10565b5b6140ee878288016138ad565b935050604085013567ffffffffffffffff81111561410f5761410e612c10565b5b61411b878288016135a4565b925050606061412c87828801612d13565b91505092959194509250565b6000806000806080858703121561415257614151612c0b565b5b600085013567ffffffffffffffff8111156141705761416f612c10565b5b61417c878288016134e8565b945050602085013567ffffffffffffffff81111561419d5761419c612c10565b5b6141a987828801612e50565b935050604085013567ffffffffffffffff8111156141ca576141c9612c10565b5b6141d6878288016135a4565b92505060606141e787828801612d13565b91505092959194509250565b6000806040838503121561420a57614209612c0b565b5b600083013567ffffffffffffffff81111561422857614227612c10565b5b614234858286016138ad565b925050602061424585828601612d13565b9150509250929050565b60008060006060848603121561426857614267612c0b565b5b600084013567ffffffffffffffff81111561428657614285612c10565b5b614292868287016134e8565b935050602084013567ffffffffffffffff8111156142b3576142b2612c10565b5b6142bf86828701612e50565b925050604084013567ffffffffffffffff8111156142e0576142df612c10565b5b6142ec868287016135a4565b9150509250925092565b7f4e487b7100000000000000000000000000000000000000000000000000000000600052603260045260246000fd5b7f4e487b7100000000000000000000000000000000000000000000000000000000600052602260045260246000fd5b6000600282049050600182168061436c57607f821691505b60208210810361437f5761437e614325565b5b5091905056fea264697066735822122053abf9ad58a09b6671a48712abb76ad9a290af8210fa906b3dcde1fc057bb49b64736f6c63430008110033",
    "linkReferences": {}
  },
  "methodIdentifiers": {
    "DEFAULT_NAMESPACE()": "1b399c99",
    "build((uint8,bytes16,bytes16,uint256,bool,bool,bytes))": "0e58be05",
    "build((uint8,bytes16,bytes16,uint256,bool,bool,bytes),(bytes,bool,bytes))": "c9f97f53",
    "build((uint8,bytes16,bytes16,uint256,bool,bool,bytes),(bytes,bool,bytes),bytes16)": "54852577",
    "build((uint8,bytes16,bytes16,uint256,bool,bool,bytes),bytes16)": "080b53f8",
    "build((uint8,bytes16,bytes16,uint256,bool,bool,bytes)[])": "b33cd323",
    "build((uint8,bytes16,bytes16,uint256,bool,bool,bytes)[],(bytes,bool,bytes))": "b5ae2587",
    "build((uint8,bytes16,bytes16,uint256,bool,bool,bytes)[],(bytes,bool,bytes),bytes16)": "14ddafa3",
    "build((uint8,bytes16,bytes16,uint256,bool,bool,bytes)[],bytes16)": "f1c1e209",
    "build((uint8,uint256,bool,bool,bool,bytes))": "d7ccd8da",
    "build((uint8,uint256,bool,bool,bool,bytes),(bytes,bool,bytes))": "48fd24cc",
    "build((uint8,uint256,bool,bool,bool,bytes),(bytes,bool,bytes),bytes16)": "10c5d31b",
    "build((uint8,uint256,bool,bool,bool,bytes),(uint8,bytes16,bytes16,uint256,bool,bool,bytes))": "dde11c7c",
    "build((uint8,uint256,bool,bool,bool,bytes),(uint8,bytes16,bytes16,uint256,bool,bool,bytes),(bytes,bool,bytes))": "f2d3f1f6",
    "build((uint8,uint256,bool,bool,bool,bytes),(uint8,bytes16,bytes16,uint256,bool,bool,bytes),(bytes,bool,bytes),bytes16)": "e93f38b8",
    "build((uint8,uint256,bool,bool,bool,bytes),(uint8,bytes16,bytes16,uint256,bool,bool,bytes),bytes16)": "31560e75",
    "build((uint8,uint256,bool,bool,bool,bytes),bytes16)": "91ba07f3",
    "build((uint8,uint256,bool,bool,bool,bytes)[])": "11f83e20",
    "build((uint8,uint256,bool,bool,bool,bytes)[],(bytes,bool,bytes))": "2ceb1e8d",
    "build((uint8,uint256,bool,bool,bool,bytes)[],(bytes,bool,bytes),bytes16)": "dd108267",
    "build((uint8,uint256,bool,bool,bool,bytes)[],(uint8,bytes16,bytes16,uint256,bool,bool,bytes)[])": "a156e2d8",
    "build((uint8,uint256,bool,bool,bool,bytes)[],(uint8,bytes16,bytes16,uint256,bool,bool,bytes)[],(bytes,bool,bytes))": "99240336",
    "build((uint8,uint256,bool,bool,bool,bytes)[],(uint8,bytes16,bytes16,uint256,bool,bool,bytes)[],(bytes,bool,bytes),bytes16)": "e48cd721",
    "build((uint8,uint256,bool,bool,bool,bytes)[],(uint8,bytes16,bytes16,uint256,bool,bool,bytes)[],bytes16)": "9266f47c",
    "build((uint8,uint256,bool,bool,bool,bytes)[],bytes16)": "27b5b7c3"
  },
  "id": 26
}