{
  "abi": [
    {
      "inputs": [
        {
          "internalType": "string",
          "name": "name",
          "type": "string"
        },
        {
          "internalType": "string",
          "name": "symbol",
          "type": "string"
        }
      ],
      "stateMutability": "nonpayable",
      "type": "constructor"
    },
    {
      "inputs": [],
      "name": "AlreadyClaimed",
      "type": "error"
    },
    {
      "inputs": [
        {
          "internalType": "enum AuthType",
          "name": "authType",
          "type": "uint8"
        }
      ],
      "name": "AuthTypeNotFoundInVerifiedResult",
      "type": "error"
    },
    {
      "anonymous": false,
      "inputs": [
        {
          "indexed": true,
          "internalType": "address",
          "name": "owner",
          "type": "address"
        },
        {
          "indexed": true,
          "internalType": "address",
          "name": "spender",
          "type": "address"
        },
        {
          "indexed": false,
          "internalType": "uint256",
          "name": "value",
          "type": "uint256"
        }
      ],
      "name": "Approval",
      "type": "event"
    },
    {
      "anonymous": false,
      "inputs": [
        {
          "indexed": true,
          "internalType": "address",
          "name": "from",
          "type": "address"
        },
        {
          "indexed": true,
          "internalType": "address",
          "name": "to",
          "type": "address"
        },
        {
          "indexed": false,
          "internalType": "uint256",
          "name": "value",
          "type": "uint256"
        }
      ],
      "name": "Transfer",
      "type": "event"
    },
    {
      "inputs": [],
      "name": "ADDRESSES_PROVIDER_V2",
      "outputs": [
        {
          "internalType": "contract IAddressesProvider",
          "name": "",
          "type": "address"
        }
      ],
      "stateMutability": "view",
      "type": "function"
    },
    {
      "inputs": [],
      "name": "APP_ID",
      "outputs": [
        {
          "internalType": "bytes16",
          "name": "",
          "type": "bytes16"
        }
      ],
      "stateMutability": "view",
      "type": "function"
    },
    {
      "inputs": [],
      "name": "IS_IMPERSONATION_MODE",
      "outputs": [
        {
          "internalType": "bool",
          "name": "",
          "type": "bool"
        }
      ],
      "stateMutability": "view",
      "type": "function"
    },
    {
      "inputs": [],
      "name": "SISMO_CONNECT_LIB_VERSION",
      "outputs": [
        {
          "internalType": "uint256",
          "name": "",
          "type": "uint256"
        }
      ],
      "stateMutability": "view",
      "type": "function"
    },
    {
      "inputs": [
        {
          "internalType": "address",
          "name": "owner",
          "type": "address"
        },
        {
          "internalType": "address",
          "name": "spender",
          "type": "address"
        }
      ],
      "name": "allowance",
      "outputs": [
        {
          "internalType": "uint256",
          "name": "",
          "type": "uint256"
        }
      ],
      "stateMutability": "view",
      "type": "function"
    },
    {
      "inputs": [
        {
          "internalType": "address",
          "name": "spender",
          "type": "address"
        },
        {
          "internalType": "uint256",
          "name": "amount",
          "type": "uint256"
        }
      ],
      "name": "approve",
      "outputs": [
        {
          "internalType": "bool",
          "name": "",
          "type": "bool"
        }
      ],
      "stateMutability": "nonpayable",
      "type": "function"
    },
    {
      "inputs": [
        {
          "internalType": "address",
          "name": "account",
          "type": "address"
        }
      ],
      "name": "balanceOf",
      "outputs": [
        {
          "internalType": "uint256",
          "name": "",
          "type": "uint256"
        }
      ],
      "stateMutability": "view",
      "type": "function"
    },
    {
      "inputs": [
        {
          "internalType": "bool",
          "name": "isSelectableByUser",
          "type": "bool"
        }
      ],
      "name": "buildSignature",
      "outputs": [
        {
          "components": [
            {
              "internalType": "bytes",
              "name": "message",
              "type": "bytes"
            },
            {
              "internalType": "bool",
              "name": "isSelectableByUser",
              "type": "bool"
            },
            {
              "internalType": "bytes",
              "name": "extraData",
              "type": "bytes"
            }
          ],
          "internalType": "struct SignatureRequest",
          "name": "",
          "type": "tuple"
        }
      ],
      "stateMutability": "view",
      "type": "function"
    },
    {
      "inputs": [
        {
          "internalType": "bytes",
          "name": "message",
          "type": "bytes"
        },
        {
          "internalType": "bytes",
          "name": "extraData",
          "type": "bytes"
        }
      ],
      "name": "buildSignature",
      "outputs": [
        {
          "components": [
            {
              "internalType": "bytes",
              "name": "message",
              "type": "bytes"
            },
            {
              "internalType": "bool",
              "name": "isSelectableByUser",
              "type": "bool"
            },
            {
              "internalType": "bytes",
              "name": "extraData",
              "type": "bytes"
            }
          ],
          "internalType": "struct SignatureRequest",
          "name": "",
          "type": "tuple"
        }
      ],
      "stateMutability": "view",
      "type": "function"
    },
    {
      "inputs": [
        {
          "internalType": "bool",
          "name": "isSelectableByUser",
          "type": "bool"
        },
        {
          "internalType": "bytes",
          "name": "extraData",
          "type": "bytes"
        }
      ],
      "name": "buildSignature",
      "outputs": [
        {
          "components": [
            {
              "internalType": "bytes",
              "name": "message",
              "type": "bytes"
            },
            {
              "internalType": "bool",
              "name": "isSelectableByUser",
              "type": "bool"
            },
            {
              "internalType": "bytes",
              "name": "extraData",
              "type": "bytes"
            }
          ],
          "internalType": "struct SignatureRequest",
          "name": "",
          "type": "tuple"
        }
      ],
      "stateMutability": "view",
      "type": "function"
    },
    {
      "inputs": [
        {
          "internalType": "bytes",
          "name": "message",
          "type": "bytes"
        },
        {
          "internalType": "bool",
          "name": "isSelectableByUser",
          "type": "bool"
        },
        {
          "internalType": "bytes",
          "name": "extraData",
          "type": "bytes"
        }
      ],
      "name": "buildSignature",
      "outputs": [
        {
          "components": [
            {
              "internalType": "bytes",
              "name": "message",
              "type": "bytes"
            },
            {
              "internalType": "bool",
              "name": "isSelectableByUser",
              "type": "bool"
            },
            {
              "internalType": "bytes",
              "name": "extraData",
              "type": "bytes"
            }
          ],
          "internalType": "struct SignatureRequest",
          "name": "",
          "type": "tuple"
        }
      ],
      "stateMutability": "view",
      "type": "function"
    },
    {
      "inputs": [
        {
          "internalType": "bytes",
          "name": "response",
          "type": "bytes"
        }
      ],
      "name": "claimWithSismo",
      "outputs": [],
      "stateMutability": "nonpayable",
      "type": "function"
    },
    {
      "inputs": [
        {
          "internalType": "uint256",
          "name": "",
          "type": "uint256"
        }
      ],
      "name": "claimed",
      "outputs": [
        {
          "internalType": "bool",
          "name": "",
          "type": "bool"
        }
      ],
      "stateMutability": "view",
      "type": "function"
    },
    {
      "inputs": [],
      "name": "config",
      "outputs": [
        {
          "internalType": "bytes16",
          "name": "appId",
          "type": "bytes16"
        },
        {
          "components": [
            {
              "internalType": "bool",
              "name": "isImpersonationMode",
              "type": "bool"
            }
          ],
          "internalType": "struct VaultConfig",
          "name": "vault",
          "type": "tuple"
        }
      ],
      "stateMutability": "view",
      "type": "function"
    },
    {
      "inputs": [],
      "name": "decimals",
      "outputs": [
        {
          "internalType": "uint8",
          "name": "",
          "type": "uint8"
        }
      ],
      "stateMutability": "view",
      "type": "function"
    },
    {
      "inputs": [
        {
          "internalType": "address",
          "name": "spender",
          "type": "address"
        },
        {
          "internalType": "uint256",
          "name": "subtractedValue",
          "type": "uint256"
        }
      ],
      "name": "decreaseAllowance",
      "outputs": [
        {
          "internalType": "bool",
          "name": "",
          "type": "bool"
        }
      ],
      "stateMutability": "nonpayable",
      "type": "function"
    },
    {
      "inputs": [
        {
          "internalType": "address",
          "name": "spender",
          "type": "address"
        },
        {
          "internalType": "uint256",
          "name": "addedValue",
          "type": "uint256"
        }
      ],
      "name": "increaseAllowance",
      "outputs": [
        {
          "internalType": "bool",
          "name": "",
          "type": "bool"
        }
      ],
      "stateMutability": "nonpayable",
      "type": "function"
    },
    {
      "inputs": [],
      "name": "name",
      "outputs": [
        {
          "internalType": "string",
          "name": "",
          "type": "string"
        }
      ],
      "stateMutability": "view",
      "type": "function"
    },
    {
      "inputs": [],
      "name": "symbol",
      "outputs": [
        {
          "internalType": "string",
          "name": "",
          "type": "string"
        }
      ],
      "stateMutability": "view",
      "type": "function"
    },
    {
      "inputs": [],
      "name": "totalSupply",
      "outputs": [
        {
          "internalType": "uint256",
          "name": "",
          "type": "uint256"
        }
      ],
      "stateMutability": "view",
      "type": "function"
    },
    {
      "inputs": [
        {
          "internalType": "address",
          "name": "to",
          "type": "address"
        },
        {
          "internalType": "uint256",
          "name": "amount",
          "type": "uint256"
        }
      ],
      "name": "transfer",
      "outputs": [
        {
          "internalType": "bool",
          "name": "",
          "type": "bool"
        }
      ],
      "stateMutability": "nonpayable",
      "type": "function"
    },
    {
      "inputs": [
        {
          "internalType": "address",
          "name": "from",
          "type": "address"
        },
        {
          "internalType": "address",
          "name": "to",
          "type": "address"
        },
        {
          "internalType": "uint256",
          "name": "amount",
          "type": "uint256"
        }
      ],
      "name": "transferFrom",
      "outputs": [
        {
          "internalType": "bool",
          "name": "",
          "type": "bool"
        }
      ],
      "stateMutability": "nonpayable",
      "type": "function"
    }
  ],
  "bytecode": {
    "object": "0x60806040523480156200001157600080fd5b506040516200501838038062005018833981810160405281019062000037919062000860565b6200005d6ff4977993e52606cfd67b7a1cde71706960801b60016200061760201b60201c565b8282816003908162000070919062000b30565b50806004908162000082919062000b30565b50505080600a60008201518160000160006101000a8154816fffffffffffffffffffffffffffffffff021916908360801c021790555060208201518160010160008201518160000160006101000a81548160ff0219169083151502179055505050905050733cd5334eb64ebbd4003b72022cc25465f1bfcee673ffffffffffffffffffffffffffffffffffffffff1663693ec85e6040518060400160405280601981526020017f7369736d6f436f6e6e65637456657269666965722d76312e31000000000000008152506040518263ffffffff1660e01b81526004016200016a919062000c69565b602060405180830381865afa15801562000188573d6000803e3d6000fd5b505050506040513d601f19601f82011682018060405250810190620001ae919062000cf2565b600560006101000a81548173ffffffffffffffffffffffffffffffffffffffff021916908373ffffffffffffffffffffffffffffffffffffffff160217905550733cd5334eb64ebbd4003b72022cc25465f1bfcee673ffffffffffffffffffffffffffffffffffffffff1663693ec85e6040518060400160405280601781526020017f61757468526571756573744275696c6465722d76312e310000000000000000008152506040518263ffffffff1660e01b815260040162000272919062000c69565b602060405180830381865afa15801562000290573d6000803e3d6000fd5b505050506040513d601f19601f82011682018060405250810190620002b6919062000cf2565b600660006101000a81548173ffffffffffffffffffffffffffffffffffffffff021916908373ffffffffffffffffffffffffffffffffffffffff160217905550733cd5334eb64ebbd4003b72022cc25465f1bfcee673ffffffffffffffffffffffffffffffffffffffff1663693ec85e6040518060400160405280601881526020017f636c61696d526571756573744275696c6465722d76312e3100000000000000008152506040518263ffffffff1660e01b81526004016200037a919062000c69565b602060405180830381865afa15801562000398573d6000803e3d6000fd5b505050506040513d601f19601f82011682018060405250810190620003be919062000cf2565b600760006101000a81548173ffffffffffffffffffffffffffffffffffffffff021916908373ffffffffffffffffffffffffffffffffffffffff160217905550733cd5334eb64ebbd4003b72022cc25465f1bfcee673ffffffffffffffffffffffffffffffffffffffff1663693ec85e6040518060400160405280601581526020017f7369676e61747572654275696c6465722d76312e3100000000000000000000008152506040518263ffffffff1660e01b815260040162000482919062000c69565b602060405180830381865afa158015620004a0573d6000803e3d6000fd5b505050506040513d601f19601f82011682018060405250810190620004c6919062000cf2565b600860006101000a81548173ffffffffffffffffffffffffffffffffffffffff021916908373ffffffffffffffffffffffffffffffffffffffff160217905550733cd5334eb64ebbd4003b72022cc25465f1bfcee673ffffffffffffffffffffffffffffffffffffffff1663693ec85e6040518060400160405280601381526020017f726571756573744275696c6465722d76312e31000000000000000000000000008152506040518263ffffffff1660e01b81526004016200058a919062000c69565b602060405180830381865afa158015620005a8573d6000803e3d6000fd5b505050506040513d601f19601f82011682018060405250810190620005ce919062000cf2565b600960006101000a81548173ffffffffffffffffffffffffffffffffffffffff021916908373ffffffffffffffffffffffffffffffffffffffff16021790555050505062000d24565b6200062162000683565b6040518060400160405280846fffffffffffffffffffffffffffffffff1916815260200162000656846200066160201b60201c565b815250905092915050565b6200066b620006b8565b60405180602001604052808315158152509050919050565b604051806040016040528060006fffffffffffffffffffffffffffffffff19168152602001620006b2620006b8565b81525090565b60405180602001604052806000151581525090565b6000604051905090565b600080fd5b600080fd5b600080fd5b600080fd5b6000601f19601f8301169050919050565b7f4e487b7100000000000000000000000000000000000000000000000000000000600052604160045260246000fd5b6200073682620006eb565b810181811067ffffffffffffffff82111715620007585762000757620006fc565b5b80604052505050565b60006200076d620006cd565b90506200077b82826200072b565b919050565b600067ffffffffffffffff8211156200079e576200079d620006fc565b5b620007a982620006eb565b9050602081019050919050565b60005b83811015620007d6578082015181840152602081019050620007b9565b60008484015250505050565b6000620007f9620007f38462000780565b62000761565b905082815260208101848484011115620008185762000817620006e6565b5b62000825848285620007b6565b509392505050565b600082601f830112620008455762000844620006e1565b5b815162000857848260208601620007e2565b91505092915050565b600080604083850312156200087a5762000879620006d7565b5b600083015167ffffffffffffffff8111156200089b576200089a620006dc565b5b620008a9858286016200082d565b925050602083015167ffffffffffffffff811115620008cd57620008cc620006dc565b5b620008db858286016200082d565b9150509250929050565b600081519050919050565b7f4e487b7100000000000000000000000000000000000000000000000000000000600052602260045260246000fd5b600060028204905060018216806200093857607f821691505b6020821081036200094e576200094d620008f0565b5b50919050565b60008190508160005260206000209050919050565b60006020601f8301049050919050565b600082821b905092915050565b600060088302620009b87fffffffffffffffffffffffffffffffffffffffffffffffffffffffffffffffff8262000979565b620009c4868362000979565b95508019841693508086168417925050509392505050565b6000819050919050565b6000819050919050565b600062000a1162000a0b62000a0584620009dc565b620009e6565b620009dc565b9050919050565b6000819050919050565b62000a2d83620009f0565b62000a4562000a3c8262000a18565b84845462000986565b825550505050565b600090565b62000a5c62000a4d565b62000a6981848462000a22565b505050565b5b8181101562000a915762000a8560008262000a52565b60018101905062000a6f565b5050565b601f82111562000ae05762000aaa8162000954565b62000ab58462000969565b8101602085101562000ac5578190505b62000add62000ad48562000969565b83018262000a6e565b50505b505050565b600082821c905092915050565b600062000b056000198460080262000ae5565b1980831691505092915050565b600062000b20838362000af2565b9150826002028217905092915050565b62000b3b82620008e5565b67ffffffffffffffff81111562000b575762000b56620006fc565b5b62000b6382546200091f565b62000b7082828562000a95565b600060209050601f83116001811462000ba8576000841562000b93578287015190505b62000b9f858262000b12565b86555062000c0f565b601f19841662000bb88662000954565b60005b8281101562000be25784890151825560018201915060208501945060208101905062000bbb565b8683101562000c02578489015162000bfe601f89168262000af2565b8355505b6001600288020188555050505b505050505050565b600082825260208201905092915050565b600062000c3582620008e5565b62000c41818562000c17565b935062000c53818560208601620007b6565b62000c5e81620006eb565b840191505092915050565b6000602082019050818103600083015262000c85818462000c28565b905092915050565b600073ffffffffffffffffffffffffffffffffffffffff82169050919050565b600062000cba8262000c8d565b9050919050565b62000ccc8162000cad565b811462000cd857600080fd5b50565b60008151905062000cec8162000cc1565b92915050565b60006020828403121562000d0b5762000d0a620006d7565b5b600062000d1b8482850162000cdb565b91505092915050565b6142e48062000d346000396000f3fe608060405234801561001057600080fd5b50600436106101425760003560e01c806379502c55116100b8578063c187bbc11161007c578063c187bbc1146103b6578063c9512d99146103d4578063cea8eb4e146103f2578063dbe7e3bd14610422578063dd62ed3e14610452578063e06897031461048257610142565b806379502c55146102fb57806395d89b411461031a578063a183dc2714610338578063a457c2d714610356578063a9059cbb1461038657610142565b8063395093511161010a57806339509351146102015780633ed1ef3814610231578063469163011461024d578063491611951461026b5780636e01370e1461029b57806370a08231146102cb57610142565b806306fdde0314610147578063095ea7b31461016557806318160ddd1461019557806323b872dd146101b3578063313ce567146101e3575b600080fd5b61014f6104b2565b60405161015c91906117e9565b60405180910390f35b61017f600480360381019061017a91906118b3565b610544565b60405161018c919061190e565b60405180910390f35b61019d610567565b6040516101aa9190611938565b60405180910390f35b6101cd60048036038101906101c89190611953565b610571565b6040516101da919061190e565b60405180910390f35b6101eb6105a0565b6040516101f891906119c2565b60405180910390f35b61021b600480360381019061021691906118b3565b6105a9565b604051610228919061190e565b60405180910390f35b61024b60048036038101906102469190611b12565b6105e0565b005b6102556106d9565b6040516102629190611bba565b60405180910390f35b61028560048036038101906102809190611c01565b6106f1565b6040516102929190611ce9565b60405180910390f35b6102b560048036038101906102b09190611d0b565b6107a1565b6040516102c29190611ce9565b60405180910390f35b6102e560048036038101906102e09190611d83565b610854565b6040516102f29190611938565b60405180910390f35b61030361089c565b604051610311929190611e07565b60405180910390f35b6103226108e0565b60405161032f91906117e9565b60405180910390f35b610340610972565b60405161034d919061190e565b60405180910390f35b610370600480360381019061036b91906118b3565b610977565b60405161037d919061190e565b60405180910390f35b6103a0600480360381019061039b91906118b3565b6109ee565b6040516103ad919061190e565b60405180910390f35b6103be610a11565b6040516103cb9190611e30565b60405180910390f35b6103dc610a28565b6040516103e99190611938565b60405180910390f35b61040c60048036038101906104079190611e4b565b610a2d565b6040516104199190611ce9565b60405180910390f35b61043c60048036038101906104379190611ea7565b610ae0565b604051610449919061190e565b60405180910390f35b61046c60048036038101906104679190611ed4565b610b00565b6040516104799190611938565b60405180910390f35b61049c60048036038101906104979190611f14565b610b87565b6040516104a99190611ce9565b60405180910390f35b6060600380546104c190611fce565b80601f01602080910402602001604051908101604052809291908181526020018280546104ed90611fce565b801561053a5780601f1061050f5761010080835404028352916020019161053a565b820191906000526020600020905b81548152906001019060200180831161051d57829003601f168201915b5050505050905090565b60008061054f610c3d565b905061055c818585610c45565b600191505092915050565b6000600254905090565b60008061057c610c3d565b9050610589858285610e0e565b610594858585610e9a565b60019150509392505050565b60006012905090565b6000806105b4610c3d565b90506105d58185856105c68589610b00565b6105d0919061202e565b610c45565b600191505092915050565b600061061d826105f06000611110565b610618336040516020016106049190612071565b6040516020818303038152906040526111c0565b611270565b9050600061063560008361135190919063ffffffff16565b9050600c600082815260200190815260200160002060009054906101000a900460ff161561068f576040517f646cf55800000000000000000000000000000000000000000000000000000000815260040160405180910390fd5b600068056bc75e2d6310000090506001600c600084815260200190815260200160002060006101000a81548160ff0219169083151502179055506106d33382611435565b50505050565b733cd5334eb64ebbd4003b72022cc25465f1bfcee681565b6106f9611648565b600860009054906101000a900473ffffffffffffffffffffffffffffffffffffffff1673ffffffffffffffffffffffffffffffffffffffff16633ed8572e836040518263ffffffff1660e01b8152600401610754919061190e565b600060405180830381865afa158015610771573d6000803e3d6000fd5b505050506040513d6000823e3d601f19601f8201168201806040525081019061079a91906121b7565b9050919050565b6107a9611648565b600860009054906101000a900473ffffffffffffffffffffffffffffffffffffffff1673ffffffffffffffffffffffffffffffffffffffff16635de3b44c84846040518363ffffffff1660e01b815260040161080692919061224a565b600060405180830381865afa158015610823573d6000803e3d6000fd5b505050506040513d6000823e3d601f19601f8201168201806040525081019061084c91906121b7565b905092915050565b60008060008373ffffffffffffffffffffffffffffffffffffffff1673ffffffffffffffffffffffffffffffffffffffff168152602001908152602001600020549050919050565b600a8060000160009054906101000a900460801b90806001016040518060200160405290816000820160009054906101000a900460ff161515151581525050905082565b6060600480546108ef90611fce565b80601f016020809104026020016040519081016040528092919081815260200182805461091b90611fce565b80156109685780601f1061093d57610100808354040283529160200191610968565b820191906000526020600020905b81548152906001019060200180831161094b57829003601f168201915b5050505050905090565b600181565b600080610982610c3d565b905060006109908286610b00565b9050838110156109d5576040517f08c379a00000000000000000000000000000000000000000000000000000000081526004016109cc906122f3565b60405180910390fd5b6109e28286868403610c45565b60019250505092915050565b6000806109f9610c3d565b9050610a06818585610e9a565b600191505092915050565b6ff4977993e52606cfd67b7a1cde71706960801b81565b600281565b610a35611648565b600860009054906101000a900473ffffffffffffffffffffffffffffffffffffffff1673ffffffffffffffffffffffffffffffffffffffff16637476d1ac84846040518363ffffffff1660e01b8152600401610a92929190612313565b600060405180830381865afa158015610aaf573d6000803e3d6000fd5b505050506040513d6000823e3d601f19601f82011682018060405250810190610ad891906121b7565b905092915050565b600c6020528060005260406000206000915054906101000a900460ff1681565b6000600160008473ffffffffffffffffffffffffffffffffffffffff1673ffffffffffffffffffffffffffffffffffffffff16815260200190815260200160002060008373ffffffffffffffffffffffffffffffffffffffff1673ffffffffffffffffffffffffffffffffffffffff16815260200190815260200160002054905092915050565b610b8f611648565b600860009054906101000a900473ffffffffffffffffffffffffffffffffffffffff1673ffffffffffffffffffffffffffffffffffffffff16631f785c958585856040518463ffffffff1660e01b8152600401610bee93929190612343565b600060405180830381865afa158015610c0b573d6000803e3d6000fd5b505050506040513d6000823e3d601f19601f82011682018060405250810190610c3491906121b7565b90509392505050565b600033905090565b600073ffffffffffffffffffffffffffffffffffffffff168373ffffffffffffffffffffffffffffffffffffffff1603610cb4576040517f08c379a0000000000000000000000000000000000000000000000000000000008152600401610cab906123fa565b60405180910390fd5b600073ffffffffffffffffffffffffffffffffffffffff168273ffffffffffffffffffffffffffffffffffffffff1603610d23576040517f08c379a0000000000000000000000000000000000000000000000000000000008152600401610d1a9061248c565b60405180910390fd5b80600160008573ffffffffffffffffffffffffffffffffffffffff1673ffffffffffffffffffffffffffffffffffffffff16815260200190815260200160002060008473ffffffffffffffffffffffffffffffffffffffff1673ffffffffffffffffffffffffffffffffffffffff168152602001908152602001600020819055508173ffffffffffffffffffffffffffffffffffffffff168373ffffffffffffffffffffffffffffffffffffffff167f8c5be1e5ebec7d5bd14f71427d1e84f3dd0314c0f7b2291e5b200ac8c7c3b92583604051610e019190611938565b60405180910390a3505050565b6000610e1a8484610b00565b90507fffffffffffffffffffffffffffffffffffffffffffffffffffffffffffffffff8114610e945781811015610e86576040517f08c379a0000000000000000000000000000000000000000000000000000000008152600401610e7d906124f8565b60405180910390fd5b610e938484848403610c45565b5b50505050565b600073ffffffffffffffffffffffffffffffffffffffff168373ffffffffffffffffffffffffffffffffffffffff1603610f09576040517f08c379a0000000000000000000000000000000000000000000000000000000008152600401610f009061258a565b60405180910390fd5b600073ffffffffffffffffffffffffffffffffffffffff168273ffffffffffffffffffffffffffffffffffffffff1603610f78576040517f08c379a0000000000000000000000000000000000000000000000000000000008152600401610f6f9061261c565b60405180910390fd5b610f8383838361158b565b60008060008573ffffffffffffffffffffffffffffffffffffffff1673ffffffffffffffffffffffffffffffffffffffff16815260200190815260200160002054905081811015611009576040517f08c379a0000000000000000000000000000000000000000000000000000000008152600401611000906126ae565b60405180910390fd5b8181036000808673ffffffffffffffffffffffffffffffffffffffff1673ffffffffffffffffffffffffffffffffffffffff16815260200190815260200160002081905550816000808573ffffffffffffffffffffffffffffffffffffffff1673ffffffffffffffffffffffffffffffffffffffff168152602001908152602001600020600082825401925050819055508273ffffffffffffffffffffffffffffffffffffffff168473ffffffffffffffffffffffffffffffffffffffff167fddf252ad1be2c89b69c2b068fc378daa952ba7f163c4a11628f55a4df523b3ef846040516110f79190611938565b60405180910390a361110a848484611590565b50505050565b61111861166b565b600660009054906101000a900473ffffffffffffffffffffffffffffffffffffffff1673ffffffffffffffffffffffffffffffffffffffff16633a0ba6ff836040518263ffffffff1660e01b81526004016111739190612745565b600060405180830381865afa158015611190573d6000803e3d6000fd5b505050506040513d6000823e3d601f19601f820116820180604052508101906111b99190612856565b9050919050565b6111c8611648565b600860009054906101000a900473ffffffffffffffffffffffffffffffffffffffff1673ffffffffffffffffffffffffffffffffffffffff16636835f32c836040518263ffffffff1660e01b8152600401611223919061289f565b600060405180830381865afa158015611240573d6000803e3d6000fd5b505050506040513d6000823e3d601f19601f8201168201806040525081019061126991906121b7565b9050919050565b6112786116b9565b60008480602001905181019061128e9190612f14565b9050600061129c8585611595565b9050600560009054906101000a900473ffffffffffffffffffffffffffffffffffffffff1673ffffffffffffffffffffffffffffffffffffffff166312b037ff8383600a6040518463ffffffff1660e01b81526004016112fe93929190613870565b6000604051808303816000875af115801561131d573d6000803e3d6000fd5b505050506040513d6000823e3d601f19601f820116820180604052508101906113469190613d1b565b925050509392505050565b600080600090505b8360600151518110156113f157826005811115611379576113786126ce565b5b846060015182815181106113905761138f613d64565b5b60200260200101516000015160058111156113ae576113ad6126ce565b5b036113de57836060015181815181106113ca576113c9613d64565b5b60200260200101516040015191505061142f565b80806113e990613d93565b915050611359565b50816040517f267ac2cf0000000000000000000000000000000000000000000000000000000081526004016114269190612745565b60405180910390fd5b92915050565b600073ffffffffffffffffffffffffffffffffffffffff168273ffffffffffffffffffffffffffffffffffffffff16036114a4576040517f08c379a000000000000000000000000000000000000000000000000000000000815260040161149b90613e27565b60405180910390fd5b6114b06000838361158b565b80600260008282546114c2919061202e565b92505081905550806000808473ffffffffffffffffffffffffffffffffffffffff1673ffffffffffffffffffffffffffffffffffffffff168152602001908152602001600020600082825401925050819055508173ffffffffffffffffffffffffffffffffffffffff16600073ffffffffffffffffffffffffffffffffffffffff167fddf252ad1be2c89b69c2b068fc378daa952ba7f163c4a11628f55a4df523b3ef836040516115739190611938565b60405180910390a361158760008383611590565b5050565b505050565b505050565b61159d611718565b600960009054906101000a900473ffffffffffffffffffffffffffffffffffffffff1673ffffffffffffffffffffffffffffffffffffffff166348fd24cc84846040518363ffffffff1660e01b81526004016115fa929190613ed0565b600060405180830381865afa158015611617573d6000803e3d6000fd5b505050506040513d6000823e3d601f19601f820116820180604052508101906116409190614265565b905092915050565b604051806060016040528060608152602001600015158152602001606081525090565b6040518060c001604052806000600581111561168a576116896126ce565b5b815260200160008152602001600015158152602001600015158152602001600015158152602001606081525090565b6040518060c0016040528060006fffffffffffffffffffffffffffffffff1916815260200160006fffffffffffffffffffffffffffffffff19168152602001600080191681526020016060815260200160608152602001606081525090565b604051806080016040528060006fffffffffffffffffffffffffffffffff191681526020016060815260200160608152602001611753611648565b81525090565b600081519050919050565b600082825260208201905092915050565b60005b83811015611793578082015181840152602081019050611778565b60008484015250505050565b6000601f19601f8301169050919050565b60006117bb82611759565b6117c58185611764565b93506117d5818560208601611775565b6117de8161179f565b840191505092915050565b6000602082019050818103600083015261180381846117b0565b905092915050565b6000604051905090565b600080fd5b600080fd5b600073ffffffffffffffffffffffffffffffffffffffff82169050919050565b600061184a8261181f565b9050919050565b61185a8161183f565b811461186557600080fd5b50565b60008135905061187781611851565b92915050565b6000819050919050565b6118908161187d565b811461189b57600080fd5b50565b6000813590506118ad81611887565b92915050565b600080604083850312156118ca576118c9611815565b5b60006118d885828601611868565b92505060206118e98582860161189e565b9150509250929050565b60008115159050919050565b611908816118f3565b82525050565b600060208201905061192360008301846118ff565b92915050565b6119328161187d565b82525050565b600060208201905061194d6000830184611929565b92915050565b60008060006060848603121561196c5761196b611815565b5b600061197a86828701611868565b935050602061198b86828701611868565b925050604061199c8682870161189e565b9150509250925092565b600060ff82169050919050565b6119bc816119a6565b82525050565b60006020820190506119d760008301846119b3565b92915050565b600080fd5b600080fd5b7f4e487b7100000000000000000000000000000000000000000000000000000000600052604160045260246000fd5b611a1f8261179f565b810181811067ffffffffffffffff82111715611a3e57611a3d6119e7565b5b80604052505050565b6000611a5161180b565b9050611a5d8282611a16565b919050565b600067ffffffffffffffff821115611a7d57611a7c6119e7565b5b611a868261179f565b9050602081019050919050565b82818337600083830152505050565b6000611ab5611ab084611a62565b611a47565b905082815260208101848484011115611ad157611ad06119e2565b5b611adc848285611a93565b509392505050565b600082601f830112611af957611af86119dd565b5b8135611b09848260208601611aa2565b91505092915050565b600060208284031215611b2857611b27611815565b5b600082013567ffffffffffffffff811115611b4657611b4561181a565b5b611b5284828501611ae4565b91505092915050565b6000819050919050565b6000611b80611b7b611b768461181f565b611b5b565b61181f565b9050919050565b6000611b9282611b65565b9050919050565b6000611ba482611b87565b9050919050565b611bb481611b99565b82525050565b6000602082019050611bcf6000830184611bab565b92915050565b611bde816118f3565b8114611be957600080fd5b50565b600081359050611bfb81611bd5565b92915050565b600060208284031215611c1757611c16611815565b5b6000611c2584828501611bec565b91505092915050565b600081519050919050565b600082825260208201905092915050565b6000611c5582611c2e565b611c5f8185611c39565b9350611c6f818560208601611775565b611c788161179f565b840191505092915050565b611c8c816118f3565b82525050565b60006060830160008301518482036000860152611caf8282611c4a565b9150506020830151611cc46020860182611c83565b5060408301518482036040860152611cdc8282611c4a565b9150508091505092915050565b60006020820190508181036000830152611d038184611c92565b905092915050565b60008060408385031215611d2257611d21611815565b5b600083013567ffffffffffffffff811115611d4057611d3f61181a565b5b611d4c85828601611ae4565b925050602083013567ffffffffffffffff811115611d6d57611d6c61181a565b5b611d7985828601611ae4565b9150509250929050565b600060208284031215611d9957611d98611815565b5b6000611da784828501611868565b91505092915050565b60007fffffffffffffffffffffffffffffffff0000000000000000000000000000000082169050919050565b611de581611db0565b82525050565b602082016000820151611e016000850182611c83565b50505050565b6000604082019050611e1c6000830185611ddc565b611e296020830184611deb565b9392505050565b6000602082019050611e456000830184611ddc565b92915050565b60008060408385031215611e6257611e61611815565b5b6000611e7085828601611bec565b925050602083013567ffffffffffffffff811115611e9157611e9061181a565b5b611e9d85828601611ae4565b9150509250929050565b600060208284031215611ebd57611ebc611815565b5b6000611ecb8482850161189e565b91505092915050565b60008060408385031215611eeb57611eea611815565b5b6000611ef985828601611868565b9250506020611f0a85828601611868565b9150509250929050565b600080600060608486031215611f2d57611f2c611815565b5b600084013567ffffffffffffffff811115611f4b57611f4a61181a565b5b611f5786828701611ae4565b9350506020611f6886828701611bec565b925050604084013567ffffffffffffffff811115611f8957611f8861181a565b5b611f9586828701611ae4565b9150509250925092565b7f4e487b7100000000000000000000000000000000000000000000000000000000600052602260045260246000fd5b60006002820490506001821680611fe657607f821691505b602082108103611ff957611ff8611f9f565b5b50919050565b7f4e487b7100000000000000000000000000000000000000000000000000000000600052601160045260246000fd5b60006120398261187d565b91506120448361187d565b925082820190508082111561205c5761205b611fff565b5b92915050565b61206b8161183f565b82525050565b60006020820190506120866000830184612062565b92915050565b600080fd5b600080fd5b60006120a96120a484611a62565b611a47565b9050828152602081018484840111156120c5576120c46119e2565b5b6120d0848285611775565b509392505050565b600082601f8301126120ed576120ec6119dd565b5b81516120fd848260208601612096565b91505092915050565b60008151905061211581611bd5565b92915050565b6000606082840312156121315761213061208c565b5b61213b6060611a47565b9050600082015167ffffffffffffffff81111561215b5761215a612091565b5b612167848285016120d8565b600083015250602061217b84828501612106565b602083015250604082015167ffffffffffffffff81111561219f5761219e612091565b5b6121ab848285016120d8565b60408301525092915050565b6000602082840312156121cd576121cc611815565b5b600082015167ffffffffffffffff8111156121eb576121ea61181a565b5b6121f78482850161211b565b91505092915050565b600082825260208201905092915050565b600061221c82611c2e565b6122268185612200565b9350612236818560208601611775565b61223f8161179f565b840191505092915050565b600060408201905081810360008301526122648185612211565b905081810360208301526122788184612211565b90509392505050565b7f45524332303a2064656372656173656420616c6c6f77616e63652062656c6f7760008201527f207a65726f000000000000000000000000000000000000000000000000000000602082015250565b60006122dd602583611764565b91506122e882612281565b604082019050919050565b6000602082019050818103600083015261230c816122d0565b9050919050565b600060408201905061232860008301856118ff565b818103602083015261233a8184612211565b90509392505050565b6000606082019050818103600083015261235d8186612211565b905061236c60208301856118ff565b818103604083015261237e8184612211565b9050949350505050565b7f45524332303a20617070726f76652066726f6d20746865207a65726f2061646460008201527f7265737300000000000000000000000000000000000000000000000000000000602082015250565b60006123e4602483611764565b91506123ef82612388565b604082019050919050565b60006020820190508181036000830152612413816123d7565b9050919050565b7f45524332303a20617070726f766520746f20746865207a65726f20616464726560008201527f7373000000000000000000000000000000000000000000000000000000000000602082015250565b6000612476602283611764565b91506124818261241a565b604082019050919050565b600060208201905081810360008301526124a581612469565b9050919050565b7f45524332303a20696e73756666696369656e7420616c6c6f77616e6365000000600082015250565b60006124e2601d83611764565b91506124ed826124ac565b602082019050919050565b60006020820190508181036000830152612511816124d5565b9050919050565b7f45524332303a207472616e736665722066726f6d20746865207a65726f20616460008201527f6472657373000000000000000000000000000000000000000000000000000000602082015250565b6000612574602583611764565b915061257f82612518565b604082019050919050565b600060208201905081810360008301526125a381612567565b9050919050565b7f45524332303a207472616e7366657220746f20746865207a65726f206164647260008201527f6573730000000000000000000000000000000000000000000000000000000000602082015250565b6000612606602383611764565b9150612611826125aa565b604082019050919050565b60006020820190508181036000830152612635816125f9565b9050919050565b7f45524332303a207472616e7366657220616d6f756e742065786365656473206260008201527f616c616e63650000000000000000000000000000000000000000000000000000602082015250565b6000612698602683611764565b91506126a38261263c565b604082019050919050565b600060208201905081810360008301526126c78161268b565b9050919050565b7f4e487b7100000000000000000000000000000000000000000000000000000000600052602160045260246000fd5b6006811061270e5761270d6126ce565b5b50565b600081905061271f826126fd565b919050565b600061272f82612711565b9050919050565b61273f81612724565b82525050565b600060208201905061275a6000830184612736565b92915050565b6006811061276d57600080fd5b50565b60008151905061277f81612760565b92915050565b60008151905061279481611887565b92915050565b600060c082840312156127b0576127af61208c565b5b6127ba60c0611a47565b905060006127ca84828501612770565b60008301525060206127de84828501612785565b60208301525060406127f284828501612106565b604083015250606061280684828501612106565b606083015250608061281a84828501612106565b60808301525060a082015167ffffffffffffffff81111561283e5761283d612091565b5b61284a848285016120d8565b60a08301525092915050565b60006020828403121561286c5761286b611815565b5b600082015167ffffffffffffffff81111561288a5761288961181a565b5b6128968482850161279a565b91505092915050565b600060208201905081810360008301526128b98184612211565b905092915050565b6128ca81611db0565b81146128d557600080fd5b50565b6000815190506128e7816128c1565b92915050565b6000819050919050565b612900816128ed565b811461290b57600080fd5b50565b60008151905061291d816128f7565b92915050565b600067ffffffffffffffff82111561293e5761293d6119e7565b5b602082029050602081019050919050565b600080fd5b600067ffffffffffffffff82111561296f5761296e6119e7565b5b602082029050602081019050919050565b600060a082840312156129965761299561208c565b5b6129a060a0611a47565b905060006129b084828501612770565b60008301525060206129c484828501612106565b60208301525060406129d884828501612106565b60408301525060606129ec84828501612785565b606083015250608082015167ffffffffffffffff811115612a1057612a0f612091565b5b612a1c848285016120d8565b60808301525092915050565b6000612a3b612a3684612954565b611a47565b90508083825260208201905060208402830185811115612a5e57612a5d61294f565b5b835b81811015612aa557805167ffffffffffffffff811115612a8357612a826119dd565b5b808601612a908982612980565b85526020850194505050602081019050612a60565b5050509392505050565b600082601f830112612ac457612ac36119dd565b5b8151612ad4848260208601612a28565b91505092915050565b600067ffffffffffffffff821115612af857612af76119e7565b5b602082029050602081019050919050565b60058110612b1657600080fd5b50565b600081519050612b2881612b09565b92915050565b600060c08284031215612b4457612b4361208c565b5b612b4e60c0611a47565b90506000612b5e84828501612b19565b6000830152506020612b72848285016128d8565b6020830152506040612b86848285016128d8565b6040830152506060612b9a84828501612106565b6060830152506080612bae84828501612785565b60808301525060a082015167ffffffffffffffff811115612bd257612bd1612091565b5b612bde848285016120d8565b60a08301525092915050565b6000612bfd612bf884612add565b611a47565b90508083825260208201905060208402830185811115612c2057612c1f61294f565b5b835b81811015612c6757805167ffffffffffffffff811115612c4557612c446119dd565b5b808601612c528982612b2e565b85526020850194505050602081019050612c22565b5050509392505050565b600082601f830112612c8657612c856119dd565b5b8151612c96848260208601612bea565b91505092915050565b600060a08284031215612cb557612cb461208c565b5b612cbf60a0611a47565b9050600082015167ffffffffffffffff811115612cdf57612cde612091565b5b612ceb84828501612aaf565b600083015250602082015167ffffffffffffffff811115612d0f57612d0e612091565b5b612d1b84828501612c71565b6020830152506040612d2f8482850161290e565b604083015250606082015167ffffffffffffffff811115612d5357612d52612091565b5b612d5f848285016120d8565b606083015250608082015167ffffffffffffffff811115612d8357612d82612091565b5b612d8f848285016120d8565b60808301525092915050565b6000612dae612da984612923565b611a47565b90508083825260208201905060208402830185811115612dd157612dd061294f565b5b835b81811015612e1857805167ffffffffffffffff811115612df657612df56119dd565b5b808601612e038982612c9f565b85526020850194505050602081019050612dd3565b5050509392505050565b600082601f830112612e3757612e366119dd565b5b8151612e47848260208601612d9b565b91505092915050565b600060a08284031215612e6657612e6561208c565b5b612e7060a0611a47565b90506000612e80848285016128d8565b6000830152506020612e94848285016128d8565b6020830152506040612ea88482850161290e565b604083015250606082015167ffffffffffffffff811115612ecc57612ecb612091565b5b612ed8848285016120d8565b606083015250608082015167ffffffffffffffff811115612efc57612efb612091565b5b612f0884828501612e22565b60808301525092915050565b600060208284031215612f2a57612f29611815565b5b600082015167ffffffffffffffff811115612f4857612f4761181a565b5b612f5484828501612e50565b91505092915050565b612f6681611db0565b82525050565b612f75816128ed565b82525050565b600081519050919050565b600082825260208201905092915050565b6000819050602082019050919050565b600081519050919050565b600082825260208201905092915050565b6000819050602082019050919050565b612fdc81612724565b82525050565b612feb8161187d565b82525050565b600060a0830160008301516130096000860182612fd3565b50602083015161301c6020860182611c83565b50604083015161302f6040860182611c83565b5060608301516130426060860182612fe2565b506080830151848203608086015261305a8282611c4a565b9150508091505092915050565b60006130738383612ff1565b905092915050565b6000602082019050919050565b600061309382612fa7565b61309d8185612fb2565b9350836020820285016130af85612fc3565b8060005b858110156130eb57848403895281516130cc8582613067565b94506130d78361307b565b925060208a019950506001810190506130b3565b50829750879550505050505092915050565b600081519050919050565b600082825260208201905092915050565b6000819050602082019050919050565b6005811061313a576131396126ce565b5b50565b600081905061314b82613129565b919050565b600061315b8261313d565b9050919050565b61316b81613150565b82525050565b600060c0830160008301516131896000860182613162565b50602083015161319c6020860182612f5d565b5060408301516131af6040860182612f5d565b5060608301516131c26060860182611c83565b5060808301516131d56080860182612fe2565b5060a083015184820360a08601526131ed8282611c4a565b9150508091505092915050565b60006132068383613171565b905092915050565b6000602082019050919050565b6000613226826130fd565b6132308185613108565b93508360208202850161324285613119565b8060005b8581101561327e578484038952815161325f85826131fa565b945061326a8361320e565b925060208a01995050600181019050613246565b50829750879550505050505092915050565b600060a08301600083015184820360008601526132ad8282613088565b915050602083015184820360208601526132c7828261321b565b91505060408301516132dc6040860182612f6c565b50606083015184820360608601526132f48282611c4a565b9150506080830151848203608086015261330e8282611c4a565b9150508091505092915050565b60006133278383613290565b905092915050565b6000602082019050919050565b600061334782612f7b565b6133518185612f86565b93508360208202850161336385612f97565b8060005b8581101561339f5784840389528151613380858261331b565b945061338b8361332f565b925060208a01995050600181019050613367565b50829750879550505050505092915050565b600060a0830160008301516133c96000860182612f5d565b5060208301516133dc6020860182612f5d565b5060408301516133ef6040860182612f6c565b50606083015184820360608601526134078282611c4a565b91505060808301518482036080860152613421828261333c565b9150508091505092915050565b600081519050919050565b600082825260208201905092915050565b6000819050602082019050919050565b600060c0830160008301516134726000860182612fd3565b5060208301516134856020860182612fe2565b5060408301516134986040860182611c83565b5060608301516134ab6060860182611c83565b5060808301516134be6080860182611c83565b5060a083015184820360a08601526134d68282611c4a565b9150508091505092915050565b60006134ef838361345a565b905092915050565b6000602082019050919050565b600061350f8261342e565b6135198185613439565b93508360208202850161352b8561344a565b8060005b85811015613567578484038952815161354885826134e3565b9450613553836134f7565b925060208a0199505060018101905061352f565b50829750879550505050505092915050565b600081519050919050565b600082825260208201905092915050565b6000819050602082019050919050565b600060e0830160008301516135bd6000860182613162565b5060208301516135d06020860182612f5d565b5060408301516135e36040860182612f5d565b5060608301516135f66060860182612fe2565b5060808301516136096080860182611c83565b5060a083015161361c60a0860182611c83565b5060c083015184820360c08601526136348282611c4a565b9150508091505092915050565b600061364d83836135a5565b905092915050565b6000602082019050919050565b600061366d82613579565b6136778185613584565b93508360208202850161368985613595565b8060005b858110156136c557848403895281516136a68582613641565b94506136b183613655565b925060208a0199505060018101905061368d565b50829750879550505050505092915050565b600060608301600083015184820360008601526136f48282611c4a565b91505060208301516137096020860182611c83565b50604083015184820360408601526137218282611c4a565b9150508091505092915050565b60006080830160008301516137466000860182612f5d565b506020830151848203602086015261375e8282613504565b915050604083015184820360408601526137788282613662565b9150506060830151848203606086015261379282826136d7565b9150508091505092915050565b60008160001c9050919050565b60008160801b9050919050565b60006137c4826137ac565b9050919050565b60006137de6137d98361379f565b6137b9565b9050919050565b600060ff82169050919050565b60006138056138008361379f565b6137e5565b9050919050565b602082016000808301549050613821816137f2565b61382e6000860182611c83565b5050505050565b60408201600080830154905061384a816137cb565b6138576000860182612f5d565b5060018301613869602086018261380c565b5050505050565b6000608082019050818103600083015261388a81866133b1565b9050818103602083015261389e818561372e565b90506138ad6040830184613835565b949350505050565b600067ffffffffffffffff8211156138d0576138cf6119e7565b5b602082029050602081019050919050565b600060a082840312156138f7576138f661208c565b5b61390160a0611a47565b9050600061391184828501612770565b600083015250602061392584828501612106565b602083015250604061393984828501612785565b604083015250606082015167ffffffffffffffff81111561395d5761395c612091565b5b613969848285016120d8565b606083015250608082015167ffffffffffffffff81111561398d5761398c612091565b5b613999848285016120d8565b60808301525092915050565b60006139b86139b3846138b5565b611a47565b905080838252602082019050602084028301858111156139db576139da61294f565b5b835b81811015613a2257805167ffffffffffffffff811115613a00576139ff6119dd565b5b808601613a0d89826138e1565b855260208501945050506020810190506139dd565b5050509392505050565b600082601f830112613a4157613a406119dd565b5b8151613a518482602086016139a5565b91505092915050565b600067ffffffffffffffff821115613a7557613a746119e7565b5b602082029050602081019050919050565b600060e08284031215613a9c57613a9b61208c565b5b613aa660e0611a47565b90506000613ab684828501612b19565b6000830152506020613aca848285016128d8565b6020830152506040613ade848285016128d8565b6040830152506060613af284828501612785565b606083015250608082015167ffffffffffffffff811115613b1657613b15612091565b5b613b22848285016120d8565b60808301525060a0613b3684828501612785565b60a08301525060c082015167ffffffffffffffff811115613b5a57613b59612091565b5b613b66848285016120d8565b60c08301525092915050565b6000613b85613b8084613a5a565b611a47565b90508083825260208201905060208402830185811115613ba857613ba761294f565b5b835b81811015613bef57805167ffffffffffffffff811115613bcd57613bcc6119dd565b5b808601613bda8982613a86565b85526020850194505050602081019050613baa565b5050509392505050565b600082601f830112613c0e57613c0d6119dd565b5b8151613c1e848260208601613b72565b91505092915050565b600060c08284031215613c3d57613c3c61208c565b5b613c4760c0611a47565b90506000613c57848285016128d8565b6000830152506020613c6b848285016128d8565b6020830152506040613c7f8482850161290e565b604083015250606082015167ffffffffffffffff811115613ca357613ca2612091565b5b613caf84828501613a2c565b606083015250608082015167ffffffffffffffff811115613cd357613cd2612091565b5b613cdf84828501613bf9565b60808301525060a082015167ffffffffffffffff811115613d0357613d02612091565b5b613d0f848285016120d8565b60a08301525092915050565b600060208284031215613d3157613d30611815565b5b600082015167ffffffffffffffff811115613d4f57613d4e61181a565b5b613d5b84828501613c27565b91505092915050565b7f4e487b7100000000000000000000000000000000000000000000000000000000600052603260045260246000fd5b6000613d9e8261187d565b91507fffffffffffffffffffffffffffffffffffffffffffffffffffffffffffffffff8203613dd057613dcf611fff565b5b600182019050919050565b7f45524332303a206d696e7420746f20746865207a65726f206164647265737300600082015250565b6000613e11601f83611764565b9150613e1c82613ddb565b602082019050919050565b60006020820190508181036000830152613e4081613e04565b9050919050565b600060c083016000830151613e5f6000860182612fd3565b506020830151613e726020860182612fe2565b506040830151613e856040860182611c83565b506060830151613e986060860182611c83565b506080830151613eab6080860182611c83565b5060a083015184820360a0860152613ec38282611c4a565b9150508091505092915050565b60006040820190508181036000830152613eea8185613e47565b90508181036020830152613efe8184611c92565b90509392505050565b600067ffffffffffffffff821115613f2257613f216119e7565b5b602082029050602081019050919050565b6000613f46613f4184613f07565b611a47565b90508083825260208201905060208402830185811115613f6957613f6861294f565b5b835b81811015613fb057805167ffffffffffffffff811115613f8e57613f8d6119dd565b5b808601613f9b898261279a565b85526020850194505050602081019050613f6b565b5050509392505050565b600082601f830112613fcf57613fce6119dd565b5b8151613fdf848260208601613f33565b91505092915050565b600067ffffffffffffffff821115614003576140026119e7565b5b602082029050602081019050919050565b600060e0828403121561402a5761402961208c565b5b61403460e0611a47565b9050600061404484828501612b19565b6000830152506020614058848285016128d8565b602083015250604061406c848285016128d8565b604083015250606061408084828501612785565b606083015250608061409484828501612106565b60808301525060a06140a884828501612106565b60a08301525060c082015167ffffffffffffffff8111156140cc576140cb612091565b5b6140d8848285016120d8565b60c08301525092915050565b60006140f76140f284613fe8565b611a47565b9050808382526020820190506020840283018581111561411a5761411961294f565b5b835b8181101561416157805167ffffffffffffffff81111561413f5761413e6119dd565b5b80860161414c8982614014565b8552602085019450505060208101905061411c565b5050509392505050565b600082601f8301126141805761417f6119dd565b5b81516141908482602086016140e4565b91505092915050565b6000608082840312156141af576141ae61208c565b5b6141b96080611a47565b905060006141c9848285016128d8565b600083015250602082015167ffffffffffffffff8111156141ed576141ec612091565b5b6141f984828501613fba565b602083015250604082015167ffffffffffffffff81111561421d5761421c612091565b5b6142298482850161416b565b604083015250606082015167ffffffffffffffff81111561424d5761424c612091565b5b6142598482850161211b565b60608301525092915050565b60006020828403121561427b5761427a611815565b5b600082015167ffffffffffffffff8111156142995761429861181a565b5b6142a584828501614199565b9150509291505056fea264697066735822122042e5868992d5d9e44e75d73c366c226de85295a3e9d3db6297ffc5726734257264736f6c63430008110033",
    "linkReferences": {}
  },
  "methodIdentifiers": {
    "ADDRESSES_PROVIDER_V2()": "46916301",
    "APP_ID()": "c187bbc1",
    "IS_IMPERSONATION_MODE()": "a183dc27",
    "SISMO_CONNECT_LIB_VERSION()": "c9512d99",
    "allowance(address,address)": "dd62ed3e",
    "approve(address,uint256)": "095ea7b3",
    "balanceOf(address)": "70a08231",
    "buildSignature(bool)": "49161195",
    "buildSignature(bool,bytes)": "cea8eb4e",
    "buildSignature(bytes,bool,bytes)": "e0689703",
    "buildSignature(bytes,bytes)": "6e01370e",
    "claimWithSismo(bytes)": "3ed1ef38",
    "claimed(uint256)": "dbe7e3bd",
    "config()": "79502c55",
    "decimals()": "313ce567",
    "decreaseAllowance(address,uint256)": "a457c2d7",
    "increaseAllowance(address,uint256)": "39509351",
    "name()": "06fdde03",
    "symbol()": "95d89b41",
    "totalSupply()": "18160ddd",
    "transfer(address,uint256)": "a9059cbb",
    "transferFrom(address,address,uint256)": "23b872dd"
  },
  "id": 34
}